{
	"Dapp/tracker.sol": {
		"SimpleStorage": {
			"abi": [
				{
					"anonymous": false,
					"inputs": [
						{
							"indexed": true,
							"internalType": "uint256",
							"name": "id",
							"type": "uint256"
						},
						{
							"indexed": true,
							"internalType": "address",
							"name": "owner",
							"type": "address"
						},
						{
							"indexed": false,
							"internalType": "string",
							"name": "name",
							"type": "string"
						}
					],
					"name": "ItemRegistered",
					"type": "event"
				},
				{
					"anonymous": false,
					"inputs": [
						{
							"indexed": true,
							"internalType": "uint256",
							"name": "id",
							"type": "uint256"
						},
						{
							"indexed": true,
							"internalType": "address",
							"name": "from",
							"type": "address"
						},
						{
							"indexed": true,
							"internalType": "address",
							"name": "to",
							"type": "address"
						}
					],
					"name": "OwnershipTransferred",
					"type": "event"
				},
				{
					"inputs": [
						{
							"internalType": "uint256",
							"name": "_id",
							"type": "uint256"
						}
					],
					"name": "burnItem",
					"outputs": [],
					"stateMutability": "nonpayable",
					"type": "function"
				},
				{
					"inputs": [],
					"name": "count",
					"outputs": [
						{
							"internalType": "uint256",
							"name": "",
							"type": "uint256"
						}
					],
					"stateMutability": "view",
					"type": "function"
				},
				{
					"inputs": [
						{
							"internalType": "uint256",
							"name": "",
							"type": "uint256"
						}
					],
					"name": "items",
					"outputs": [
						{
							"internalType": "uint256",
							"name": "id",
							"type": "uint256"
						},
						{
							"internalType": "string",
							"name": "name",
							"type": "string"
						},
						{
							"internalType": "address",
							"name": "owner",
							"type": "address"
						}
					],
					"stateMutability": "view",
					"type": "function"
				},
				{
					"inputs": [
						{
							"internalType": "string",
							"name": "_name",
							"type": "string"
						}
					],
					"name": "registerItems",
					"outputs": [],
					"stateMutability": "nonpayable",
					"type": "function"
				},
				{
					"inputs": [
						{
							"internalType": "uint256",
							"name": "id",
							"type": "uint256"
						},
						{
							"internalType": "address",
							"name": "newOwner",
							"type": "address"
						}
					],
					"name": "transferOwnership",
					"outputs": [],
					"stateMutability": "nonpayable",
					"type": "function"
				}
			],
			"devdoc": {
				"kind": "dev",
				"methods": {},
				"version": 1
			},
			"evm": {
				"assembly": "    /* \"Dapp/tracker.sol\":27:1219  contract SimpleStorage {... */\n  mstore(0x40, 0x80)\n    /* \"Dapp/tracker.sol\":208:209  0 */\n  0x00\n    /* \"Dapp/tracker.sol\":188:209  uint public count = 0 */\n  0x01\n  sstore\n    /* \"Dapp/tracker.sol\":27:1219  contract SimpleStorage {... */\n  callvalue\n  dup1\n  iszero\n  tag_1\n  jumpi\n  revert(0x00, 0x00)\ntag_1:\n  pop\n  dataSize(sub_0)\n  dup1\n  dataOffset(sub_0)\n  0x00\n  codecopy\n  0x00\n  return\nstop\n\nsub_0: assembly {\n        /* \"Dapp/tracker.sol\":27:1219  contract SimpleStorage {... */\n      mstore(0x40, 0x80)\n      callvalue\n      dup1\n      iszero\n      tag_1\n      jumpi\n      revert(0x00, 0x00)\n    tag_1:\n      pop\n      jumpi(tag_2, lt(calldatasize, 0x04))\n      shr(0xe0, calldataload(0x00))\n      dup1\n      0x06661abd\n      eq\n      tag_3\n      jumpi\n      dup1\n      0x29507f73\n      eq\n      tag_4\n      jumpi\n      dup1\n      0x576cc0f7\n      eq\n      tag_5\n      jumpi\n      dup1\n      0x7effb29f\n      eq\n      tag_6\n      jumpi\n      dup1\n      0xbfb231d2\n      eq\n      tag_7\n      jumpi\n    tag_2:\n      revert(0x00, 0x00)\n        /* \"Dapp/tracker.sol\":188:209  uint public count = 0 */\n    tag_3:\n      tag_8\n      tag_9\n      jump\t// in\n    tag_8:\n      mload(0x40)\n      tag_10\n      swap2\n      swap1\n      tag_11\n      jump\t// in\n    tag_10:\n      mload(0x40)\n      dup1\n      swap2\n      sub\n      swap1\n      return\n        /* \"Dapp/tracker.sol\":638:936  function transferOwnership(uint256 id, address newOwner) public {... */\n    tag_4:\n      tag_12\n      0x04\n      dup1\n      calldatasize\n      sub\n      dup2\n      add\n      swap1\n      tag_13\n      swap2\n      swap1\n      tag_14\n      jump\t// in\n    tag_13:\n      tag_15\n      jump\t// in\n    tag_12:\n      stop\n        /* \"Dapp/tracker.sol\":941:1217  function burnItem(uint256 _id) public {... */\n    tag_5:\n      tag_16\n      0x04\n      dup1\n      calldatasize\n      sub\n      dup2\n      add\n      swap1\n      tag_17\n      swap2\n      swap1\n      tag_18\n      jump\t// in\n    tag_17:\n      tag_19\n      jump\t// in\n    tag_16:\n      stop\n        /* \"Dapp/tracker.sol\":393:633  function registerItems(string memory _name) public {... */\n    tag_6:\n      tag_20\n      0x04\n      dup1\n      calldatasize\n      sub\n      dup2\n      add\n      swap1\n      tag_21\n      swap2\n      swap1\n      tag_22\n      jump\t// in\n    tag_21:\n      tag_23\n      jump\t// in\n    tag_20:\n      stop\n        /* \"Dapp/tracker.sol\":144:182  mapping (uint256 => Item) public items */\n    tag_7:\n      tag_24\n      0x04\n      dup1\n      calldatasize\n      sub\n      dup2\n      add\n      swap1\n      tag_25\n      swap2\n      swap1\n      tag_18\n      jump\t// in\n    tag_25:\n      tag_26\n      jump\t// in\n    tag_24:\n      mload(0x40)\n      tag_27\n      swap4\n      swap3\n      swap2\n      swap1\n      tag_28\n      jump\t// in\n    tag_27:\n      mload(0x40)\n      dup1\n      swap2\n      sub\n      swap1\n      return\n        /* \"Dapp/tracker.sol\":188:209  uint public count = 0 */\n    tag_9:\n      sload(0x01)\n      dup2\n      jump\t// out\n        /* \"Dapp/tracker.sol\":638:936  function transferOwnership(uint256 id, address newOwner) public {... */\n    tag_15:\n        /* \"Dapp/tracker.sol\":712:730  address orig_owner */\n      0x00\n        /* \"Dapp/tracker.sol\":733:738  items */\n      0x00\n        /* \"Dapp/tracker.sol\":733:742  items[id] */\n      0x00\n        /* \"Dapp/tracker.sol\":739:741  id */\n      dup5\n        /* \"Dapp/tracker.sol\":733:742  items[id] */\n      dup2\n      mstore\n      0x20\n      add\n      swap1\n      dup2\n      mstore\n      0x20\n      add\n      0x00\n      keccak256\n        /* \"Dapp/tracker.sol\":733:748  items[id].owner */\n      0x02\n      add\n      0x00\n      swap1\n      sload\n      swap1\n      0x0100\n      exp\n      swap1\n      div\n      0xffffffffffffffffffffffffffffffffffffffff\n      and\n        /* \"Dapp/tracker.sol\":712:748  address orig_owner = items[id].owner */\n      swap1\n      pop\n        /* \"Dapp/tracker.sol\":780:790  orig_owner */\n      dup1\n        /* \"Dapp/tracker.sol\":766:790  msg.sender == orig_owner */\n      0xffffffffffffffffffffffffffffffffffffffff\n      and\n        /* \"Dapp/tracker.sol\":766:776  msg.sender */\n      caller\n        /* \"Dapp/tracker.sol\":766:790  msg.sender == orig_owner */\n      0xffffffffffffffffffffffffffffffffffffffff\n      and\n      eq\n        /* \"Dapp/tracker.sol\":758:832  require(msg.sender == orig_owner, \"Only the owner can call this function\") */\n      tag_30\n      jumpi\n      mload(0x40)\n      0x08c379a000000000000000000000000000000000000000000000000000000000\n      dup2\n      mstore\n      0x04\n      add\n      tag_31\n      swap1\n      tag_32\n      jump\t// in\n    tag_31:\n      mload(0x40)\n      dup1\n      swap2\n      sub\n      swap1\n      revert\n    tag_30:\n        /* \"Dapp/tracker.sol\":860:868  newOwner */\n      dup2\n        /* \"Dapp/tracker.sol\":842:847  items */\n      0x00\n        /* \"Dapp/tracker.sol\":842:851  items[id] */\n      0x00\n        /* \"Dapp/tracker.sol\":848:850  id */\n      dup6\n        /* \"Dapp/tracker.sol\":842:851  items[id] */\n      dup2\n      mstore\n      0x20\n      add\n      swap1\n      dup2\n      mstore\n      0x20\n      add\n      0x00\n      keccak256\n        /* \"Dapp/tracker.sol\":842:857  items[id].owner */\n      0x02\n      add\n      0x00\n        /* \"Dapp/tracker.sol\":842:868  items[id].owner = newOwner */\n      0x0100\n      exp\n      dup2\n      sload\n      dup2\n      0xffffffffffffffffffffffffffffffffffffffff\n      mul\n      not\n      and\n      swap1\n      dup4\n      0xffffffffffffffffffffffffffffffffffffffff\n      and\n      mul\n      or\n      swap1\n      sstore\n      pop\n        /* \"Dapp/tracker.sol\":920:928  newOwner */\n      dup2\n        /* \"Dapp/tracker.sol\":883:929  OwnershipTransferred(id, orig_owner, newOwner) */\n      0xffffffffffffffffffffffffffffffffffffffff\n      and\n        /* \"Dapp/tracker.sol\":908:918  orig_owner */\n      dup2\n        /* \"Dapp/tracker.sol\":883:929  OwnershipTransferred(id, orig_owner, newOwner) */\n      0xffffffffffffffffffffffffffffffffffffffff\n      and\n        /* \"Dapp/tracker.sol\":904:906  id */\n      dup5\n        /* \"Dapp/tracker.sol\":883:929  OwnershipTransferred(id, orig_owner, newOwner) */\n      0x16b85f49bf01212961345d3016c9a531894accf62eb7680f2045d79185cc0ec0\n      mload(0x40)\n      mload(0x40)\n      dup1\n      swap2\n      sub\n      swap1\n      log4\n        /* \"Dapp/tracker.sol\":702:936  {... */\n      pop\n        /* \"Dapp/tracker.sol\":638:936  function transferOwnership(uint256 id, address newOwner) public {... */\n      pop\n      pop\n      jump\t// out\n        /* \"Dapp/tracker.sol\":941:1217  function burnItem(uint256 _id) public {... */\n    tag_19:\n        /* \"Dapp/tracker.sol\":1007:1012  items */\n      0x00\n        /* \"Dapp/tracker.sol\":1007:1017  items[_id] */\n      0x00\n        /* \"Dapp/tracker.sol\":1013:1016  _id */\n      dup3\n        /* \"Dapp/tracker.sol\":1007:1017  items[_id] */\n      dup2\n      mstore\n      0x20\n      add\n      swap1\n      dup2\n      mstore\n      0x20\n      add\n      0x00\n      keccak256\n        /* \"Dapp/tracker.sol\":1007:1023  items[_id].owner */\n      0x02\n      add\n      0x00\n      swap1\n      sload\n      swap1\n      0x0100\n      exp\n      swap1\n      div\n      0xffffffffffffffffffffffffffffffffffffffff\n      and\n        /* \"Dapp/tracker.sol\":993:1023  msg.sender == items[_id].owner */\n      0xffffffffffffffffffffffffffffffffffffffff\n      and\n        /* \"Dapp/tracker.sol\":993:1003  msg.sender */\n      caller\n        /* \"Dapp/tracker.sol\":993:1023  msg.sender == items[_id].owner */\n      0xffffffffffffffffffffffffffffffffffffffff\n      and\n      eq\n        /* \"Dapp/tracker.sol\":985:1070  require(msg.sender == items[_id].owner, \"Only the current owner can burn this item.\") */\n      tag_34\n      jumpi\n      mload(0x40)\n      0x08c379a000000000000000000000000000000000000000000000000000000000\n      dup2\n      mstore\n      0x04\n      add\n      tag_35\n      swap1\n      tag_36\n      jump\t// in\n    tag_35:\n      mload(0x40)\n      dup1\n      swap2\n      sub\n      swap1\n      revert\n    tag_34:\n        /* \"Dapp/tracker.sol\":1076:1097  address originalOwner */\n      0x00\n        /* \"Dapp/tracker.sol\":1100:1105  items */\n      0x00\n        /* \"Dapp/tracker.sol\":1100:1110  items[_id] */\n      0x00\n        /* \"Dapp/tracker.sol\":1106:1109  _id */\n      dup4\n        /* \"Dapp/tracker.sol\":1100:1110  items[_id] */\n      dup2\n      mstore\n      0x20\n      add\n      swap1\n      dup2\n      mstore\n      0x20\n      add\n      0x00\n      keccak256\n        /* \"Dapp/tracker.sol\":1100:1116  items[_id].owner */\n      0x02\n      add\n      0x00\n      swap1\n      sload\n      swap1\n      0x0100\n      exp\n      swap1\n      div\n      0xffffffffffffffffffffffffffffffffffffffff\n      and\n        /* \"Dapp/tracker.sol\":1076:1116  address originalOwner = items[_id].owner */\n      swap1\n      pop\n        /* \"Dapp/tracker.sol\":1149:1150  0 */\n      0x00\n        /* \"Dapp/tracker.sol\":1122:1127  items */\n      0x00\n        /* \"Dapp/tracker.sol\":1122:1132  items[_id] */\n      0x00\n        /* \"Dapp/tracker.sol\":1128:1131  _id */\n      dup5\n        /* \"Dapp/tracker.sol\":1122:1132  items[_id] */\n      dup2\n      mstore\n      0x20\n      add\n      swap1\n      dup2\n      mstore\n      0x20\n      add\n      0x00\n      keccak256\n        /* \"Dapp/tracker.sol\":1122:1138  items[_id].owner */\n      0x02\n      add\n      0x00\n        /* \"Dapp/tracker.sol\":1122:1151  items[_id].owner = address(0) */\n      0x0100\n      exp\n      dup2\n      sload\n      dup2\n      0xffffffffffffffffffffffffffffffffffffffff\n      mul\n      not\n      and\n      swap1\n      dup4\n      0xffffffffffffffffffffffffffffffffffffffff\n      and\n      mul\n      or\n      swap1\n      sstore\n      pop\n        /* \"Dapp/tracker.sol\":1211:1212  0 */\n      0x00\n        /* \"Dapp/tracker.sol\":1162:1214  OwnershipTransferred(_id, originalOwner, address(0)) */\n      0xffffffffffffffffffffffffffffffffffffffff\n      and\n        /* \"Dapp/tracker.sol\":1188:1201  originalOwner */\n      dup2\n        /* \"Dapp/tracker.sol\":1162:1214  OwnershipTransferred(_id, originalOwner, address(0)) */\n      0xffffffffffffffffffffffffffffffffffffffff\n      and\n        /* \"Dapp/tracker.sol\":1183:1186  _id */\n      dup4\n        /* \"Dapp/tracker.sol\":1162:1214  OwnershipTransferred(_id, originalOwner, address(0)) */\n      0x16b85f49bf01212961345d3016c9a531894accf62eb7680f2045d79185cc0ec0\n      mload(0x40)\n      mload(0x40)\n      dup1\n      swap2\n      sub\n      swap1\n      log4\n        /* \"Dapp/tracker.sol\":979:1217  {... */\n      pop\n        /* \"Dapp/tracker.sol\":941:1217  function burnItem(uint256 _id) public {... */\n      pop\n      jump\t// out\n        /* \"Dapp/tracker.sol\":393:633  function registerItems(string memory _name) public {... */\n    tag_23:\n        /* \"Dapp/tracker.sol\":454:473  Item memory newItem */\n      0x00\n        /* \"Dapp/tracker.sol\":476:506  Item(count, _name, msg.sender) */\n      mload(0x40)\n      dup1\n      0x60\n      add\n      0x40\n      mstore\n      dup1\n        /* \"Dapp/tracker.sol\":481:486  count */\n      sload(0x01)\n        /* \"Dapp/tracker.sol\":476:506  Item(count, _name, msg.sender) */\n      dup2\n      mstore\n      0x20\n      add\n        /* \"Dapp/tracker.sol\":488:493  _name */\n      dup4\n        /* \"Dapp/tracker.sol\":476:506  Item(count, _name, msg.sender) */\n      dup2\n      mstore\n      0x20\n      add\n        /* \"Dapp/tracker.sol\":495:505  msg.sender */\n      caller\n        /* \"Dapp/tracker.sol\":476:506  Item(count, _name, msg.sender) */\n      0xffffffffffffffffffffffffffffffffffffffff\n      and\n      dup2\n      mstore\n      pop\n        /* \"Dapp/tracker.sol\":454:506  Item memory newItem = Item(count, _name, msg.sender) */\n      swap1\n      pop\n        /* \"Dapp/tracker.sol\":531:538  newItem */\n      dup1\n        /* \"Dapp/tracker.sol\":516:521  items */\n      0x00\n        /* \"Dapp/tracker.sol\":516:528  items[count] */\n      0x00\n        /* \"Dapp/tracker.sol\":522:527  count */\n      sload(0x01)\n        /* \"Dapp/tracker.sol\":516:528  items[count] */\n      dup2\n      mstore\n      0x20\n      add\n      swap1\n      dup2\n      mstore\n      0x20\n      add\n      0x00\n      keccak256\n        /* \"Dapp/tracker.sol\":516:538  items[count] = newItem */\n      0x00\n      dup3\n      add\n      mload\n      dup2\n      0x00\n      add\n      sstore\n      0x20\n      dup3\n      add\n      mload\n      dup2\n      0x01\n      add\n      swap1\n      dup2\n      tag_38\n      swap2\n      swap1\n      tag_39\n      jump\t// in\n    tag_38:\n      pop\n      0x40\n      dup3\n      add\n      mload\n      dup2\n      0x02\n      add\n      exp(0x0100, 0x00)\n      dup2\n      sload\n      dup2\n      0xffffffffffffffffffffffffffffffffffffffff\n      mul\n      not\n      and\n      swap1\n      dup4\n      0xffffffffffffffffffffffffffffffffffffffff\n      and\n      mul\n      or\n      swap1\n      sstore\n      pop\n      swap1\n      pop\n      pop\n        /* \"Dapp/tracker.sol\":580:587  newItem */\n      dup1\n        /* \"Dapp/tracker.sol\":580:593  newItem.owner */\n      0x40\n      add\n      mload\n        /* \"Dapp/tracker.sol\":553:608  ItemRegistered(newItem.id, newItem.owner, newItem.name) */\n      0xffffffffffffffffffffffffffffffffffffffff\n      and\n        /* \"Dapp/tracker.sol\":568:575  newItem */\n      dup2\n        /* \"Dapp/tracker.sol\":568:578  newItem.id */\n      0x00\n      add\n      mload\n        /* \"Dapp/tracker.sol\":553:608  ItemRegistered(newItem.id, newItem.owner, newItem.name) */\n      0x6e25be3619376e564cfe010b907906379faef975c78ba0112d80e039a612a04f\n        /* \"Dapp/tracker.sol\":595:602  newItem */\n      dup4\n        /* \"Dapp/tracker.sol\":595:607  newItem.name */\n      0x20\n      add\n      mload\n        /* \"Dapp/tracker.sol\":553:608  ItemRegistered(newItem.id, newItem.owner, newItem.name) */\n      mload(0x40)\n      tag_40\n      swap2\n      swap1\n      tag_41\n      jump\t// in\n    tag_40:\n      mload(0x40)\n      dup1\n      swap2\n      sub\n      swap1\n      log3\n        /* \"Dapp/tracker.sol\":618:623  count */\n      0x01\n      0x00\n        /* \"Dapp/tracker.sol\":618:626  count ++ */\n      dup2\n      sload\n      dup1\n      swap3\n      swap2\n      swap1\n      tag_42\n      swap1\n      tag_43\n      jump\t// in\n    tag_42:\n      swap2\n      swap1\n      pop\n      sstore\n      pop\n        /* \"Dapp/tracker.sol\":444:633  {... */\n      pop\n        /* \"Dapp/tracker.sol\":393:633  function registerItems(string memory _name) public {... */\n      pop\n      jump\t// out\n        /* \"Dapp/tracker.sol\":144:182  mapping (uint256 => Item) public items */\n    tag_26:\n      mstore(0x20, 0x00)\n      dup1\n      0x00\n      mstore\n      keccak256(0x00, 0x40)\n      0x00\n      swap2\n      pop\n      swap1\n      pop\n      dup1\n      0x00\n      add\n      sload\n      swap1\n      dup1\n      0x01\n      add\n      dup1\n      sload\n      tag_44\n      swap1\n      tag_45\n      jump\t// in\n    tag_44:\n      dup1\n      0x1f\n      add\n      0x20\n      dup1\n      swap2\n      div\n      mul\n      0x20\n      add\n      mload(0x40)\n      swap1\n      dup2\n      add\n      0x40\n      mstore\n      dup1\n      swap3\n      swap2\n      swap1\n      dup2\n      dup2\n      mstore\n      0x20\n      add\n      dup3\n      dup1\n      sload\n      tag_46\n      swap1\n      tag_45\n      jump\t// in\n    tag_46:\n      dup1\n      iszero\n      tag_47\n      jumpi\n      dup1\n      0x1f\n      lt\n      tag_48\n      jumpi\n      0x0100\n      dup1\n      dup4\n      sload\n      div\n      mul\n      dup4\n      mstore\n      swap2\n      0x20\n      add\n      swap2\n      jump(tag_47)\n    tag_48:\n      dup3\n      add\n      swap2\n      swap1\n      0x00\n      mstore\n      keccak256(0x00, 0x20)\n      swap1\n    tag_49:\n      dup2\n      sload\n      dup2\n      mstore\n      swap1\n      0x01\n      add\n      swap1\n      0x20\n      add\n      dup1\n      dup4\n      gt\n      tag_49\n      jumpi\n      dup3\n      swap1\n      sub\n      0x1f\n      and\n      dup3\n      add\n      swap2\n    tag_47:\n      pop\n      pop\n      pop\n      pop\n      pop\n      swap1\n      dup1\n      0x02\n      add\n      0x00\n      swap1\n      sload\n      swap1\n      0x0100\n      exp\n      swap1\n      div\n      0xffffffffffffffffffffffffffffffffffffffff\n      and\n      swap1\n      pop\n      dup4\n      jump\t// out\n        /* \"#utility.yul\":7:84   */\n    tag_50:\n        /* \"#utility.yul\":44:51   */\n      0x00\n        /* \"#utility.yul\":73:78   */\n      dup2\n        /* \"#utility.yul\":62:78   */\n      swap1\n      pop\n        /* \"#utility.yul\":7:84   */\n      swap2\n      swap1\n      pop\n      jump\t// out\n        /* \"#utility.yul\":90:208   */\n    tag_51:\n        /* \"#utility.yul\":177:201   */\n      tag_100\n        /* \"#utility.yul\":195:200   */\n      dup2\n        /* \"#utility.yul\":177:201   */\n      tag_50\n      jump\t// in\n    tag_100:\n        /* \"#utility.yul\":172:175   */\n      dup3\n        /* \"#utility.yul\":165:202   */\n      mstore\n        /* \"#utility.yul\":90:208   */\n      pop\n      pop\n      jump\t// out\n        /* \"#utility.yul\":214:436   */\n    tag_11:\n        /* \"#utility.yul\":307:311   */\n      0x00\n        /* \"#utility.yul\":345:347   */\n      0x20\n        /* \"#utility.yul\":334:343   */\n      dup3\n        /* \"#utility.yul\":330:348   */\n      add\n        /* \"#utility.yul\":322:348   */\n      swap1\n      pop\n        /* \"#utility.yul\":358:429   */\n      tag_102\n        /* \"#utility.yul\":426:427   */\n      0x00\n        /* \"#utility.yul\":415:424   */\n      dup4\n        /* \"#utility.yul\":411:428   */\n      add\n        /* \"#utility.yul\":402:408   */\n      dup5\n        /* \"#utility.yul\":358:429   */\n      tag_51\n      jump\t// in\n    tag_102:\n        /* \"#utility.yul\":214:436   */\n      swap3\n      swap2\n      pop\n      pop\n      jump\t// out\n        /* \"#utility.yul\":442:517   */\n    tag_52:\n        /* \"#utility.yul\":475:481   */\n      0x00\n        /* \"#utility.yul\":508:510   */\n      0x40\n        /* \"#utility.yul\":502:511   */\n      mload\n        /* \"#utility.yul\":492:511   */\n      swap1\n      pop\n        /* \"#utility.yul\":442:517   */\n      swap1\n      jump\t// out\n        /* \"#utility.yul\":523:640   */\n    tag_53:\n        /* \"#utility.yul\":632:633   */\n      0x00\n        /* \"#utility.yul\":629:630   */\n      0x00\n        /* \"#utility.yul\":622:634   */\n      revert\n        /* \"#utility.yul\":646:763   */\n    tag_54:\n        /* \"#utility.yul\":755:756   */\n      0x00\n        /* \"#utility.yul\":752:753   */\n      0x00\n        /* \"#utility.yul\":745:757   */\n      revert\n        /* \"#utility.yul\":769:891   */\n    tag_55:\n        /* \"#utility.yul\":842:866   */\n      tag_107\n        /* \"#utility.yul\":860:865   */\n      dup2\n        /* \"#utility.yul\":842:866   */\n      tag_50\n      jump\t// in\n    tag_107:\n        /* \"#utility.yul\":835:840   */\n      dup2\n        /* \"#utility.yul\":832:867   */\n      eq\n        /* \"#utility.yul\":822:885   */\n      tag_108\n      jumpi\n        /* \"#utility.yul\":881:882   */\n      0x00\n        /* \"#utility.yul\":878:879   */\n      0x00\n        /* \"#utility.yul\":871:883   */\n      revert\n        /* \"#utility.yul\":822:885   */\n    tag_108:\n        /* \"#utility.yul\":769:891   */\n      pop\n      jump\t// out\n        /* \"#utility.yul\":897:1036   */\n    tag_56:\n        /* \"#utility.yul\":943:948   */\n      0x00\n        /* \"#utility.yul\":981:987   */\n      dup2\n        /* \"#utility.yul\":968:988   */\n      calldataload\n        /* \"#utility.yul\":959:988   */\n      swap1\n      pop\n        /* \"#utility.yul\":997:1030   */\n      tag_110\n        /* \"#utility.yul\":1024:1029   */\n      dup2\n        /* \"#utility.yul\":997:1030   */\n      tag_55\n      jump\t// in\n    tag_110:\n        /* \"#utility.yul\":897:1036   */\n      swap3\n      swap2\n      pop\n      pop\n      jump\t// out\n        /* \"#utility.yul\":1042:1168   */\n    tag_57:\n        /* \"#utility.yul\":1079:1086   */\n      0x00\n        /* \"#utility.yul\":1119:1161   */\n      0xffffffffffffffffffffffffffffffffffffffff\n        /* \"#utility.yul\":1112:1117   */\n      dup3\n        /* \"#utility.yul\":1108:1162   */\n      and\n        /* \"#utility.yul\":1097:1162   */\n      swap1\n      pop\n        /* \"#utility.yul\":1042:1168   */\n      swap2\n      swap1\n      pop\n      jump\t// out\n        /* \"#utility.yul\":1174:1270   */\n    tag_58:\n        /* \"#utility.yul\":1211:1218   */\n      0x00\n        /* \"#utility.yul\":1240:1264   */\n      tag_113\n        /* \"#utility.yul\":1258:1263   */\n      dup3\n        /* \"#utility.yul\":1240:1264   */\n      tag_57\n      jump\t// in\n    tag_113:\n        /* \"#utility.yul\":1229:1264   */\n      swap1\n      pop\n        /* \"#utility.yul\":1174:1270   */\n      swap2\n      swap1\n      pop\n      jump\t// out\n        /* \"#utility.yul\":1276:1398   */\n    tag_59:\n        /* \"#utility.yul\":1349:1373   */\n      tag_115\n        /* \"#utility.yul\":1367:1372   */\n      dup2\n        /* \"#utility.yul\":1349:1373   */\n      tag_58\n      jump\t// in\n    tag_115:\n        /* \"#utility.yul\":1342:1347   */\n      dup2\n        /* \"#utility.yul\":1339:1374   */\n      eq\n        /* \"#utility.yul\":1329:1392   */\n      tag_116\n      jumpi\n        /* \"#utility.yul\":1388:1389   */\n      0x00\n        /* \"#utility.yul\":1385:1386   */\n      0x00\n        /* \"#utility.yul\":1378:1390   */\n      revert\n        /* \"#utility.yul\":1329:1392   */\n    tag_116:\n        /* \"#utility.yul\":1276:1398   */\n      pop\n      jump\t// out\n        /* \"#utility.yul\":1404:1543   */\n    tag_60:\n        /* \"#utility.yul\":1450:1455   */\n      0x00\n        /* \"#utility.yul\":1488:1494   */\n      dup2\n        /* \"#utility.yul\":1475:1495   */\n      calldataload\n        /* \"#utility.yul\":1466:1495   */\n      swap1\n      pop\n        /* \"#utility.yul\":1504:1537   */\n      tag_118\n        /* \"#utility.yul\":1531:1536   */\n      dup2\n        /* \"#utility.yul\":1504:1537   */\n      tag_59\n      jump\t// in\n    tag_118:\n        /* \"#utility.yul\":1404:1543   */\n      swap3\n      swap2\n      pop\n      pop\n      jump\t// out\n        /* \"#utility.yul\":1549:2023   */\n    tag_14:\n        /* \"#utility.yul\":1617:1623   */\n      0x00\n        /* \"#utility.yul\":1625:1631   */\n      0x00\n        /* \"#utility.yul\":1674:1676   */\n      0x40\n        /* \"#utility.yul\":1662:1671   */\n      dup4\n        /* \"#utility.yul\":1653:1660   */\n      dup6\n        /* \"#utility.yul\":1649:1672   */\n      sub\n        /* \"#utility.yul\":1645:1677   */\n      slt\n        /* \"#utility.yul\":1642:1761   */\n      iszero\n      tag_120\n      jumpi\n        /* \"#utility.yul\":1680:1759   */\n      tag_121\n      tag_53\n      jump\t// in\n    tag_121:\n        /* \"#utility.yul\":1642:1761   */\n    tag_120:\n        /* \"#utility.yul\":1800:1801   */\n      0x00\n        /* \"#utility.yul\":1825:1878   */\n      tag_122\n        /* \"#utility.yul\":1870:1877   */\n      dup6\n        /* \"#utility.yul\":1861:1867   */\n      dup3\n        /* \"#utility.yul\":1850:1859   */\n      dup7\n        /* \"#utility.yul\":1846:1868   */\n      add\n        /* \"#utility.yul\":1825:1878   */\n      tag_56\n      jump\t// in\n    tag_122:\n        /* \"#utility.yul\":1815:1878   */\n      swap3\n      pop\n        /* \"#utility.yul\":1771:1888   */\n      pop\n        /* \"#utility.yul\":1927:1929   */\n      0x20\n        /* \"#utility.yul\":1953:2006   */\n      tag_123\n        /* \"#utility.yul\":1998:2005   */\n      dup6\n        /* \"#utility.yul\":1989:1995   */\n      dup3\n        /* \"#utility.yul\":1978:1987   */\n      dup7\n        /* \"#utility.yul\":1974:1996   */\n      add\n        /* \"#utility.yul\":1953:2006   */\n      tag_60\n      jump\t// in\n    tag_123:\n        /* \"#utility.yul\":1943:2006   */\n      swap2\n      pop\n        /* \"#utility.yul\":1898:2016   */\n      pop\n        /* \"#utility.yul\":1549:2023   */\n      swap3\n      pop\n      swap3\n      swap1\n      pop\n      jump\t// out\n        /* \"#utility.yul\":2029:2358   */\n    tag_18:\n        /* \"#utility.yul\":2088:2094   */\n      0x00\n        /* \"#utility.yul\":2137:2139   */\n      0x20\n        /* \"#utility.yul\":2125:2134   */\n      dup3\n        /* \"#utility.yul\":2116:2123   */\n      dup5\n        /* \"#utility.yul\":2112:2135   */\n      sub\n        /* \"#utility.yul\":2108:2140   */\n      slt\n        /* \"#utility.yul\":2105:2224   */\n      iszero\n      tag_125\n      jumpi\n        /* \"#utility.yul\":2143:2222   */\n      tag_126\n      tag_53\n      jump\t// in\n    tag_126:\n        /* \"#utility.yul\":2105:2224   */\n    tag_125:\n        /* \"#utility.yul\":2263:2264   */\n      0x00\n        /* \"#utility.yul\":2288:2341   */\n      tag_127\n        /* \"#utility.yul\":2333:2340   */\n      dup5\n        /* \"#utility.yul\":2324:2330   */\n      dup3\n        /* \"#utility.yul\":2313:2322   */\n      dup6\n        /* \"#utility.yul\":2309:2331   */\n      add\n        /* \"#utility.yul\":2288:2341   */\n      tag_56\n      jump\t// in\n    tag_127:\n        /* \"#utility.yul\":2278:2341   */\n      swap2\n      pop\n        /* \"#utility.yul\":2234:2351   */\n      pop\n        /* \"#utility.yul\":2029:2358   */\n      swap3\n      swap2\n      pop\n      pop\n      jump\t// out\n        /* \"#utility.yul\":2364:2481   */\n    tag_61:\n        /* \"#utility.yul\":2473:2474   */\n      0x00\n        /* \"#utility.yul\":2470:2471   */\n      0x00\n        /* \"#utility.yul\":2463:2475   */\n      revert\n        /* \"#utility.yul\":2487:2604   */\n    tag_62:\n        /* \"#utility.yul\":2596:2597   */\n      0x00\n        /* \"#utility.yul\":2593:2594   */\n      0x00\n        /* \"#utility.yul\":2586:2598   */\n      revert\n        /* \"#utility.yul\":2610:2712   */\n    tag_63:\n        /* \"#utility.yul\":2651:2657   */\n      0x00\n        /* \"#utility.yul\":2702:2704   */\n      0x1f\n        /* \"#utility.yul\":2698:2705   */\n      not\n        /* \"#utility.yul\":2693:2695   */\n      0x1f\n        /* \"#utility.yul\":2686:2691   */\n      dup4\n        /* \"#utility.yul\":2682:2696   */\n      add\n        /* \"#utility.yul\":2678:2706   */\n      and\n        /* \"#utility.yul\":2668:2706   */\n      swap1\n      pop\n        /* \"#utility.yul\":2610:2712   */\n      swap2\n      swap1\n      pop\n      jump\t// out\n        /* \"#utility.yul\":2718:2898   */\n    tag_64:\n        /* \"#utility.yul\":2766:2843   */\n      0x4e487b7100000000000000000000000000000000000000000000000000000000\n        /* \"#utility.yul\":2763:2764   */\n      0x00\n        /* \"#utility.yul\":2756:2844   */\n      mstore\n        /* \"#utility.yul\":2863:2867   */\n      0x41\n        /* \"#utility.yul\":2860:2861   */\n      0x04\n        /* \"#utility.yul\":2853:2868   */\n      mstore\n        /* \"#utility.yul\":2887:2891   */\n      0x24\n        /* \"#utility.yul\":2884:2885   */\n      0x00\n        /* \"#utility.yul\":2877:2892   */\n      revert\n        /* \"#utility.yul\":2904:3185   */\n    tag_65:\n        /* \"#utility.yul\":2987:3014   */\n      tag_133\n        /* \"#utility.yul\":3009:3013   */\n      dup3\n        /* \"#utility.yul\":2987:3014   */\n      tag_63\n      jump\t// in\n    tag_133:\n        /* \"#utility.yul\":2979:2985   */\n      dup2\n        /* \"#utility.yul\":2975:3015   */\n      add\n        /* \"#utility.yul\":3117:3123   */\n      dup2\n        /* \"#utility.yul\":3105:3115   */\n      dup2\n        /* \"#utility.yul\":3102:3124   */\n      lt\n        /* \"#utility.yul\":3081:3099   */\n      0xffffffffffffffff\n        /* \"#utility.yul\":3069:3079   */\n      dup3\n        /* \"#utility.yul\":3066:3100   */\n      gt\n        /* \"#utility.yul\":3063:3125   */\n      or\n        /* \"#utility.yul\":3060:3148   */\n      iszero\n      tag_134\n      jumpi\n        /* \"#utility.yul\":3128:3146   */\n      tag_135\n      tag_64\n      jump\t// in\n    tag_135:\n        /* \"#utility.yul\":3060:3148   */\n    tag_134:\n        /* \"#utility.yul\":3168:3178   */\n      dup1\n        /* \"#utility.yul\":3164:3166   */\n      0x40\n        /* \"#utility.yul\":3157:3179   */\n      mstore\n        /* \"#utility.yul\":2947:3185   */\n      pop\n        /* \"#utility.yul\":2904:3185   */\n      pop\n      pop\n      jump\t// out\n        /* \"#utility.yul\":3191:3320   */\n    tag_66:\n        /* \"#utility.yul\":3225:3231   */\n      0x00\n        /* \"#utility.yul\":3252:3272   */\n      tag_137\n      tag_52\n      jump\t// in\n    tag_137:\n        /* \"#utility.yul\":3242:3272   */\n      swap1\n      pop\n        /* \"#utility.yul\":3281:3314   */\n      tag_138\n        /* \"#utility.yul\":3309:3313   */\n      dup3\n        /* \"#utility.yul\":3301:3307   */\n      dup3\n        /* \"#utility.yul\":3281:3314   */\n      tag_65\n      jump\t// in\n    tag_138:\n        /* \"#utility.yul\":3191:3320   */\n      swap2\n      swap1\n      pop\n      jump\t// out\n        /* \"#utility.yul\":3326:3634   */\n    tag_67:\n        /* \"#utility.yul\":3388:3392   */\n      0x00\n        /* \"#utility.yul\":3478:3496   */\n      0xffffffffffffffff\n        /* \"#utility.yul\":3470:3476   */\n      dup3\n        /* \"#utility.yul\":3467:3497   */\n      gt\n        /* \"#utility.yul\":3464:3520   */\n      iszero\n      tag_140\n      jumpi\n        /* \"#utility.yul\":3500:3518   */\n      tag_141\n      tag_64\n      jump\t// in\n    tag_141:\n        /* \"#utility.yul\":3464:3520   */\n    tag_140:\n        /* \"#utility.yul\":3538:3567   */\n      tag_142\n        /* \"#utility.yul\":3560:3566   */\n      dup3\n        /* \"#utility.yul\":3538:3567   */\n      tag_63\n      jump\t// in\n    tag_142:\n        /* \"#utility.yul\":3530:3567   */\n      swap1\n      pop\n        /* \"#utility.yul\":3622:3626   */\n      0x20\n        /* \"#utility.yul\":3616:3620   */\n      dup2\n        /* \"#utility.yul\":3612:3627   */\n      add\n        /* \"#utility.yul\":3604:3627   */\n      swap1\n      pop\n        /* \"#utility.yul\":3326:3634   */\n      swap2\n      swap1\n      pop\n      jump\t// out\n        /* \"#utility.yul\":3640:3788   */\n    tag_68:\n        /* \"#utility.yul\":3738:3744   */\n      dup3\n        /* \"#utility.yul\":3733:3736   */\n      dup2\n        /* \"#utility.yul\":3728:3731   */\n      dup4\n        /* \"#utility.yul\":3715:3745   */\n      calldatacopy\n        /* \"#utility.yul\":3779:3780   */\n      0x00\n        /* \"#utility.yul\":3770:3776   */\n      dup4\n        /* \"#utility.yul\":3765:3768   */\n      dup4\n        /* \"#utility.yul\":3761:3777   */\n      add\n        /* \"#utility.yul\":3754:3781   */\n      mstore\n        /* \"#utility.yul\":3640:3788   */\n      pop\n      pop\n      pop\n      jump\t// out\n        /* \"#utility.yul\":3794:4219   */\n    tag_69:\n        /* \"#utility.yul\":3872:3877   */\n      0x00\n        /* \"#utility.yul\":3897:3963   */\n      tag_145\n        /* \"#utility.yul\":3913:3962   */\n      tag_146\n        /* \"#utility.yul\":3955:3961   */\n      dup5\n        /* \"#utility.yul\":3913:3962   */\n      tag_67\n      jump\t// in\n    tag_146:\n        /* \"#utility.yul\":3897:3963   */\n      tag_66\n      jump\t// in\n    tag_145:\n        /* \"#utility.yul\":3888:3963   */\n      swap1\n      pop\n        /* \"#utility.yul\":3986:3992   */\n      dup3\n        /* \"#utility.yul\":3979:3984   */\n      dup2\n        /* \"#utility.yul\":3972:3993   */\n      mstore\n        /* \"#utility.yul\":4024:4028   */\n      0x20\n        /* \"#utility.yul\":4017:4022   */\n      dup2\n        /* \"#utility.yul\":4013:4029   */\n      add\n        /* \"#utility.yul\":4062:4065   */\n      dup5\n        /* \"#utility.yul\":4053:4059   */\n      dup5\n        /* \"#utility.yul\":4048:4051   */\n      dup5\n        /* \"#utility.yul\":4044:4060   */\n      add\n        /* \"#utility.yul\":4041:4066   */\n      gt\n        /* \"#utility.yul\":4038:4150   */\n      iszero\n      tag_147\n      jumpi\n        /* \"#utility.yul\":4069:4148   */\n      tag_148\n      tag_62\n      jump\t// in\n    tag_148:\n        /* \"#utility.yul\":4038:4150   */\n    tag_147:\n        /* \"#utility.yul\":4159:4213   */\n      tag_149\n        /* \"#utility.yul\":4206:4212   */\n      dup5\n        /* \"#utility.yul\":4201:4204   */\n      dup3\n        /* \"#utility.yul\":4196:4199   */\n      dup6\n        /* \"#utility.yul\":4159:4213   */\n      tag_68\n      jump\t// in\n    tag_149:\n        /* \"#utility.yul\":3878:4219   */\n      pop\n        /* \"#utility.yul\":3794:4219   */\n      swap4\n      swap3\n      pop\n      pop\n      pop\n      jump\t// out\n        /* \"#utility.yul\":4239:4579   */\n    tag_70:\n        /* \"#utility.yul\":4295:4300   */\n      0x00\n        /* \"#utility.yul\":4344:4347   */\n      dup3\n        /* \"#utility.yul\":4337:4341   */\n      0x1f\n        /* \"#utility.yul\":4329:4335   */\n      dup4\n        /* \"#utility.yul\":4325:4342   */\n      add\n        /* \"#utility.yul\":4321:4348   */\n      slt\n        /* \"#utility.yul\":4311:4433   */\n      tag_151\n      jumpi\n        /* \"#utility.yul\":4352:4431   */\n      tag_152\n      tag_61\n      jump\t// in\n    tag_152:\n        /* \"#utility.yul\":4311:4433   */\n    tag_151:\n        /* \"#utility.yul\":4469:4475   */\n      dup2\n        /* \"#utility.yul\":4456:4476   */\n      calldataload\n        /* \"#utility.yul\":4494:4573   */\n      tag_153\n        /* \"#utility.yul\":4569:4572   */\n      dup5\n        /* \"#utility.yul\":4561:4567   */\n      dup3\n        /* \"#utility.yul\":4554:4558   */\n      0x20\n        /* \"#utility.yul\":4546:4552   */\n      dup7\n        /* \"#utility.yul\":4542:4559   */\n      add\n        /* \"#utility.yul\":4494:4573   */\n      tag_69\n      jump\t// in\n    tag_153:\n        /* \"#utility.yul\":4485:4573   */\n      swap2\n      pop\n        /* \"#utility.yul\":4301:4579   */\n      pop\n        /* \"#utility.yul\":4239:4579   */\n      swap3\n      swap2\n      pop\n      pop\n      jump\t// out\n        /* \"#utility.yul\":4585:5094   */\n    tag_22:\n        /* \"#utility.yul\":4654:4660   */\n      0x00\n        /* \"#utility.yul\":4703:4705   */\n      0x20\n        /* \"#utility.yul\":4691:4700   */\n      dup3\n        /* \"#utility.yul\":4682:4689   */\n      dup5\n        /* \"#utility.yul\":4678:4701   */\n      sub\n        /* \"#utility.yul\":4674:4706   */\n      slt\n        /* \"#utility.yul\":4671:4790   */\n      iszero\n      tag_155\n      jumpi\n        /* \"#utility.yul\":4709:4788   */\n      tag_156\n      tag_53\n      jump\t// in\n    tag_156:\n        /* \"#utility.yul\":4671:4790   */\n    tag_155:\n        /* \"#utility.yul\":4857:4858   */\n      0x00\n        /* \"#utility.yul\":4846:4855   */\n      dup3\n        /* \"#utility.yul\":4842:4859   */\n      add\n        /* \"#utility.yul\":4829:4860   */\n      calldataload\n        /* \"#utility.yul\":4887:4905   */\n      0xffffffffffffffff\n        /* \"#utility.yul\":4879:4885   */\n      dup2\n        /* \"#utility.yul\":4876:4906   */\n      gt\n        /* \"#utility.yul\":4873:4990   */\n      iszero\n      tag_157\n      jumpi\n        /* \"#utility.yul\":4909:4988   */\n      tag_158\n      tag_54\n      jump\t// in\n    tag_158:\n        /* \"#utility.yul\":4873:4990   */\n    tag_157:\n        /* \"#utility.yul\":5014:5077   */\n      tag_159\n        /* \"#utility.yul\":5069:5076   */\n      dup5\n        /* \"#utility.yul\":5060:5066   */\n      dup3\n        /* \"#utility.yul\":5049:5058   */\n      dup6\n        /* \"#utility.yul\":5045:5067   */\n      add\n        /* \"#utility.yul\":5014:5077   */\n      tag_70\n      jump\t// in\n    tag_159:\n        /* \"#utility.yul\":5004:5077   */\n      swap2\n      pop\n        /* \"#utility.yul\":4800:5087   */\n      pop\n        /* \"#utility.yul\":4585:5094   */\n      swap3\n      swap2\n      pop\n      pop\n      jump\t// out\n        /* \"#utility.yul\":5100:5199   */\n    tag_71:\n        /* \"#utility.yul\":5152:5158   */\n      0x00\n        /* \"#utility.yul\":5186:5191   */\n      dup2\n        /* \"#utility.yul\":5180:5192   */\n      mload\n        /* \"#utility.yul\":5170:5192   */\n      swap1\n      pop\n        /* \"#utility.yul\":5100:5199   */\n      swap2\n      swap1\n      pop\n      jump\t// out\n        /* \"#utility.yul\":5205:5374   */\n    tag_72:\n        /* \"#utility.yul\":5289:5300   */\n      0x00\n        /* \"#utility.yul\":5323:5329   */\n      dup3\n        /* \"#utility.yul\":5318:5321   */\n      dup3\n        /* \"#utility.yul\":5311:5330   */\n      mstore\n        /* \"#utility.yul\":5363:5367   */\n      0x20\n        /* \"#utility.yul\":5358:5361   */\n      dup3\n        /* \"#utility.yul\":5354:5368   */\n      add\n        /* \"#utility.yul\":5339:5368   */\n      swap1\n      pop\n        /* \"#utility.yul\":5205:5374   */\n      swap3\n      swap2\n      pop\n      pop\n      jump\t// out\n        /* \"#utility.yul\":5380:5519   */\n    tag_73:\n        /* \"#utility.yul\":5469:5475   */\n      dup3\n        /* \"#utility.yul\":5464:5467   */\n      dup2\n        /* \"#utility.yul\":5459:5462   */\n      dup4\n        /* \"#utility.yul\":5453:5476   */\n      mcopy\n        /* \"#utility.yul\":5510:5511   */\n      0x00\n        /* \"#utility.yul\":5501:5507   */\n      dup4\n        /* \"#utility.yul\":5496:5499   */\n      dup4\n        /* \"#utility.yul\":5492:5508   */\n      add\n        /* \"#utility.yul\":5485:5512   */\n      mstore\n        /* \"#utility.yul\":5380:5519   */\n      pop\n      pop\n      pop\n      jump\t// out\n        /* \"#utility.yul\":5525:5902   */\n    tag_74:\n        /* \"#utility.yul\":5613:5616   */\n      0x00\n        /* \"#utility.yul\":5641:5680   */\n      tag_164\n        /* \"#utility.yul\":5674:5679   */\n      dup3\n        /* \"#utility.yul\":5641:5680   */\n      tag_71\n      jump\t// in\n    tag_164:\n        /* \"#utility.yul\":5696:5767   */\n      tag_165\n        /* \"#utility.yul\":5760:5766   */\n      dup2\n        /* \"#utility.yul\":5755:5758   */\n      dup6\n        /* \"#utility.yul\":5696:5767   */\n      tag_72\n      jump\t// in\n    tag_165:\n        /* \"#utility.yul\":5689:5767   */\n      swap4\n      pop\n        /* \"#utility.yul\":5776:5841   */\n      tag_166\n        /* \"#utility.yul\":5834:5840   */\n      dup2\n        /* \"#utility.yul\":5829:5832   */\n      dup6\n        /* \"#utility.yul\":5822:5826   */\n      0x20\n        /* \"#utility.yul\":5815:5820   */\n      dup7\n        /* \"#utility.yul\":5811:5827   */\n      add\n        /* \"#utility.yul\":5776:5841   */\n      tag_73\n      jump\t// in\n    tag_166:\n        /* \"#utility.yul\":5866:5895   */\n      tag_167\n        /* \"#utility.yul\":5888:5894   */\n      dup2\n        /* \"#utility.yul\":5866:5895   */\n      tag_63\n      jump\t// in\n    tag_167:\n        /* \"#utility.yul\":5861:5864   */\n      dup5\n        /* \"#utility.yul\":5857:5896   */\n      add\n        /* \"#utility.yul\":5850:5896   */\n      swap2\n      pop\n        /* \"#utility.yul\":5617:5902   */\n      pop\n        /* \"#utility.yul\":5525:5902   */\n      swap3\n      swap2\n      pop\n      pop\n      jump\t// out\n        /* \"#utility.yul\":5908:6026   */\n    tag_75:\n        /* \"#utility.yul\":5995:6019   */\n      tag_169\n        /* \"#utility.yul\":6013:6018   */\n      dup2\n        /* \"#utility.yul\":5995:6019   */\n      tag_58\n      jump\t// in\n    tag_169:\n        /* \"#utility.yul\":5990:5993   */\n      dup3\n        /* \"#utility.yul\":5983:6020   */\n      mstore\n        /* \"#utility.yul\":5908:6026   */\n      pop\n      pop\n      jump\t// out\n        /* \"#utility.yul\":6032:6565   */\n    tag_28:\n        /* \"#utility.yul\":6201:6205   */\n      0x00\n        /* \"#utility.yul\":6239:6241   */\n      0x60\n        /* \"#utility.yul\":6228:6237   */\n      dup3\n        /* \"#utility.yul\":6224:6242   */\n      add\n        /* \"#utility.yul\":6216:6242   */\n      swap1\n      pop\n        /* \"#utility.yul\":6252:6323   */\n      tag_171\n        /* \"#utility.yul\":6320:6321   */\n      0x00\n        /* \"#utility.yul\":6309:6318   */\n      dup4\n        /* \"#utility.yul\":6305:6322   */\n      add\n        /* \"#utility.yul\":6296:6302   */\n      dup7\n        /* \"#utility.yul\":6252:6323   */\n      tag_51\n      jump\t// in\n    tag_171:\n        /* \"#utility.yul\":6370:6379   */\n      dup2\n        /* \"#utility.yul\":6364:6368   */\n      dup2\n        /* \"#utility.yul\":6360:6380   */\n      sub\n        /* \"#utility.yul\":6355:6357   */\n      0x20\n        /* \"#utility.yul\":6344:6353   */\n      dup4\n        /* \"#utility.yul\":6340:6358   */\n      add\n        /* \"#utility.yul\":6333:6381   */\n      mstore\n        /* \"#utility.yul\":6398:6476   */\n      tag_172\n        /* \"#utility.yul\":6471:6475   */\n      dup2\n        /* \"#utility.yul\":6462:6468   */\n      dup6\n        /* \"#utility.yul\":6398:6476   */\n      tag_74\n      jump\t// in\n    tag_172:\n        /* \"#utility.yul\":6390:6476   */\n      swap1\n      pop\n        /* \"#utility.yul\":6486:6558   */\n      tag_173\n        /* \"#utility.yul\":6554:6556   */\n      0x40\n        /* \"#utility.yul\":6543:6552   */\n      dup4\n        /* \"#utility.yul\":6539:6557   */\n      add\n        /* \"#utility.yul\":6530:6536   */\n      dup5\n        /* \"#utility.yul\":6486:6558   */\n      tag_75\n      jump\t// in\n    tag_173:\n        /* \"#utility.yul\":6032:6565   */\n      swap5\n      swap4\n      pop\n      pop\n      pop\n      pop\n      jump\t// out\n        /* \"#utility.yul\":6571:6795   */\n    tag_76:\n        /* \"#utility.yul\":6711:6745   */\n      0x4f6e6c7920746865206f776e65722063616e2063616c6c20746869732066756e\n        /* \"#utility.yul\":6707:6708   */\n      0x00\n        /* \"#utility.yul\":6699:6705   */\n      dup3\n        /* \"#utility.yul\":6695:6709   */\n      add\n        /* \"#utility.yul\":6688:6746   */\n      mstore\n        /* \"#utility.yul\":6780:6787   */\n      0x6374696f6e000000000000000000000000000000000000000000000000000000\n        /* \"#utility.yul\":6775:6777   */\n      0x20\n        /* \"#utility.yul\":6767:6773   */\n      dup3\n        /* \"#utility.yul\":6763:6778   */\n      add\n        /* \"#utility.yul\":6756:6788   */\n      mstore\n        /* \"#utility.yul\":6571:6795   */\n      pop\n      jump\t// out\n        /* \"#utility.yul\":6801:7167   */\n    tag_77:\n        /* \"#utility.yul\":6943:6946   */\n      0x00\n        /* \"#utility.yul\":6964:7031   */\n      tag_176\n        /* \"#utility.yul\":7028:7030   */\n      0x25\n        /* \"#utility.yul\":7023:7026   */\n      dup4\n        /* \"#utility.yul\":6964:7031   */\n      tag_72\n      jump\t// in\n    tag_176:\n        /* \"#utility.yul\":6957:7031   */\n      swap2\n      pop\n        /* \"#utility.yul\":7040:7133   */\n      tag_177\n        /* \"#utility.yul\":7129:7132   */\n      dup3\n        /* \"#utility.yul\":7040:7133   */\n      tag_76\n      jump\t// in\n    tag_177:\n        /* \"#utility.yul\":7158:7160   */\n      0x40\n        /* \"#utility.yul\":7153:7156   */\n      dup3\n        /* \"#utility.yul\":7149:7161   */\n      add\n        /* \"#utility.yul\":7142:7161   */\n      swap1\n      pop\n        /* \"#utility.yul\":6801:7167   */\n      swap2\n      swap1\n      pop\n      jump\t// out\n        /* \"#utility.yul\":7173:7592   */\n    tag_32:\n        /* \"#utility.yul\":7339:7343   */\n      0x00\n        /* \"#utility.yul\":7377:7379   */\n      0x20\n        /* \"#utility.yul\":7366:7375   */\n      dup3\n        /* \"#utility.yul\":7362:7380   */\n      add\n        /* \"#utility.yul\":7354:7380   */\n      swap1\n      pop\n        /* \"#utility.yul\":7426:7435   */\n      dup2\n        /* \"#utility.yul\":7420:7424   */\n      dup2\n        /* \"#utility.yul\":7416:7436   */\n      sub\n        /* \"#utility.yul\":7412:7413   */\n      0x00\n        /* \"#utility.yul\":7401:7410   */\n      dup4\n        /* \"#utility.yul\":7397:7414   */\n      add\n        /* \"#utility.yul\":7390:7437   */\n      mstore\n        /* \"#utility.yul\":7454:7585   */\n      tag_179\n        /* \"#utility.yul\":7580:7584   */\n      dup2\n        /* \"#utility.yul\":7454:7585   */\n      tag_77\n      jump\t// in\n    tag_179:\n        /* \"#utility.yul\":7446:7585   */\n      swap1\n      pop\n        /* \"#utility.yul\":7173:7592   */\n      swap2\n      swap1\n      pop\n      jump\t// out\n        /* \"#utility.yul\":7598:7827   */\n    tag_78:\n        /* \"#utility.yul\":7738:7772   */\n      0x4f6e6c79207468652063757272656e74206f776e65722063616e206275726e20\n        /* \"#utility.yul\":7734:7735   */\n      0x00\n        /* \"#utility.yul\":7726:7732   */\n      dup3\n        /* \"#utility.yul\":7722:7736   */\n      add\n        /* \"#utility.yul\":7715:7773   */\n      mstore\n        /* \"#utility.yul\":7807:7819   */\n      0x74686973206974656d2e00000000000000000000000000000000000000000000\n        /* \"#utility.yul\":7802:7804   */\n      0x20\n        /* \"#utility.yul\":7794:7800   */\n      dup3\n        /* \"#utility.yul\":7790:7805   */\n      add\n        /* \"#utility.yul\":7783:7820   */\n      mstore\n        /* \"#utility.yul\":7598:7827   */\n      pop\n      jump\t// out\n        /* \"#utility.yul\":7833:8199   */\n    tag_79:\n        /* \"#utility.yul\":7975:7978   */\n      0x00\n        /* \"#utility.yul\":7996:8063   */\n      tag_182\n        /* \"#utility.yul\":8060:8062   */\n      0x2a\n        /* \"#utility.yul\":8055:8058   */\n      dup4\n        /* \"#utility.yul\":7996:8063   */\n      tag_72\n      jump\t// in\n    tag_182:\n        /* \"#utility.yul\":7989:8063   */\n      swap2\n      pop\n        /* \"#utility.yul\":8072:8165   */\n      tag_183\n        /* \"#utility.yul\":8161:8164   */\n      dup3\n        /* \"#utility.yul\":8072:8165   */\n      tag_78\n      jump\t// in\n    tag_183:\n        /* \"#utility.yul\":8190:8192   */\n      0x40\n        /* \"#utility.yul\":8185:8188   */\n      dup3\n        /* \"#utility.yul\":8181:8193   */\n      add\n        /* \"#utility.yul\":8174:8193   */\n      swap1\n      pop\n        /* \"#utility.yul\":7833:8199   */\n      swap2\n      swap1\n      pop\n      jump\t// out\n        /* \"#utility.yul\":8205:8624   */\n    tag_36:\n        /* \"#utility.yul\":8371:8375   */\n      0x00\n        /* \"#utility.yul\":8409:8411   */\n      0x20\n        /* \"#utility.yul\":8398:8407   */\n      dup3\n        /* \"#utility.yul\":8394:8412   */\n      add\n        /* \"#utility.yul\":8386:8412   */\n      swap1\n      pop\n        /* \"#utility.yul\":8458:8467   */\n      dup2\n        /* \"#utility.yul\":8452:8456   */\n      dup2\n        /* \"#utility.yul\":8448:8468   */\n      sub\n        /* \"#utility.yul\":8444:8445   */\n      0x00\n        /* \"#utility.yul\":8433:8442   */\n      dup4\n        /* \"#utility.yul\":8429:8446   */\n      add\n        /* \"#utility.yul\":8422:8469   */\n      mstore\n        /* \"#utility.yul\":8486:8617   */\n      tag_185\n        /* \"#utility.yul\":8612:8616   */\n      dup2\n        /* \"#utility.yul\":8486:8617   */\n      tag_79\n      jump\t// in\n    tag_185:\n        /* \"#utility.yul\":8478:8617   */\n      swap1\n      pop\n        /* \"#utility.yul\":8205:8624   */\n      swap2\n      swap1\n      pop\n      jump\t// out\n        /* \"#utility.yul\":8630:8810   */\n    tag_80:\n        /* \"#utility.yul\":8678:8755   */\n      0x4e487b7100000000000000000000000000000000000000000000000000000000\n        /* \"#utility.yul\":8675:8676   */\n      0x00\n        /* \"#utility.yul\":8668:8756   */\n      mstore\n        /* \"#utility.yul\":8775:8779   */\n      0x22\n        /* \"#utility.yul\":8772:8773   */\n      0x04\n        /* \"#utility.yul\":8765:8780   */\n      mstore\n        /* \"#utility.yul\":8799:8803   */\n      0x24\n        /* \"#utility.yul\":8796:8797   */\n      0x00\n        /* \"#utility.yul\":8789:8804   */\n      revert\n        /* \"#utility.yul\":8816:9136   */\n    tag_45:\n        /* \"#utility.yul\":8860:8866   */\n      0x00\n        /* \"#utility.yul\":8897:8898   */\n      0x02\n        /* \"#utility.yul\":8891:8895   */\n      dup3\n        /* \"#utility.yul\":8887:8899   */\n      div\n        /* \"#utility.yul\":8877:8899   */\n      swap1\n      pop\n        /* \"#utility.yul\":8944:8945   */\n      0x01\n        /* \"#utility.yul\":8938:8942   */\n      dup3\n        /* \"#utility.yul\":8934:8946   */\n      and\n        /* \"#utility.yul\":8965:8983   */\n      dup1\n        /* \"#utility.yul\":8955:9036   */\n      tag_188\n      jumpi\n        /* \"#utility.yul\":9021:9025   */\n      0x7f\n        /* \"#utility.yul\":9013:9019   */\n      dup3\n        /* \"#utility.yul\":9009:9026   */\n      and\n        /* \"#utility.yul\":8999:9026   */\n      swap2\n      pop\n        /* \"#utility.yul\":8955:9036   */\n    tag_188:\n        /* \"#utility.yul\":9083:9085   */\n      0x20\n        /* \"#utility.yul\":9075:9081   */\n      dup3\n        /* \"#utility.yul\":9072:9086   */\n      lt\n        /* \"#utility.yul\":9052:9070   */\n      dup2\n        /* \"#utility.yul\":9049:9087   */\n      sub\n        /* \"#utility.yul\":9046:9130   */\n      tag_189\n      jumpi\n        /* \"#utility.yul\":9102:9120   */\n      tag_190\n      tag_80\n      jump\t// in\n    tag_190:\n        /* \"#utility.yul\":9046:9130   */\n    tag_189:\n        /* \"#utility.yul\":8867:9136   */\n      pop\n        /* \"#utility.yul\":8816:9136   */\n      swap2\n      swap1\n      pop\n      jump\t// out\n        /* \"#utility.yul\":9142:9283   */\n    tag_81:\n        /* \"#utility.yul\":9191:9195   */\n      0x00\n        /* \"#utility.yul\":9214:9217   */\n      dup2\n        /* \"#utility.yul\":9206:9217   */\n      swap1\n      pop\n        /* \"#utility.yul\":9237:9240   */\n      dup2\n        /* \"#utility.yul\":9234:9235   */\n      0x00\n        /* \"#utility.yul\":9227:9241   */\n      mstore\n        /* \"#utility.yul\":9271:9275   */\n      0x20\n        /* \"#utility.yul\":9268:9269   */\n      0x00\n        /* \"#utility.yul\":9258:9276   */\n      keccak256\n        /* \"#utility.yul\":9250:9276   */\n      swap1\n      pop\n        /* \"#utility.yul\":9142:9283   */\n      swap2\n      swap1\n      pop\n      jump\t// out\n        /* \"#utility.yul\":9289:9382   */\n    tag_82:\n        /* \"#utility.yul\":9326:9332   */\n      0x00\n        /* \"#utility.yul\":9373:9375   */\n      0x20\n        /* \"#utility.yul\":9368:9370   */\n      0x1f\n        /* \"#utility.yul\":9361:9366   */\n      dup4\n        /* \"#utility.yul\":9357:9371   */\n      add\n        /* \"#utility.yul\":9353:9376   */\n      div\n        /* \"#utility.yul\":9343:9376   */\n      swap1\n      pop\n        /* \"#utility.yul\":9289:9382   */\n      swap2\n      swap1\n      pop\n      jump\t// out\n        /* \"#utility.yul\":9388:9495   */\n    tag_83:\n        /* \"#utility.yul\":9432:9440   */\n      0x00\n        /* \"#utility.yul\":9482:9487   */\n      dup3\n        /* \"#utility.yul\":9476:9480   */\n      dup3\n        /* \"#utility.yul\":9472:9488   */\n      shl\n        /* \"#utility.yul\":9451:9488   */\n      swap1\n      pop\n        /* \"#utility.yul\":9388:9495   */\n      swap3\n      swap2\n      pop\n      pop\n      jump\t// out\n        /* \"#utility.yul\":9501:9894   */\n    tag_84:\n        /* \"#utility.yul\":9570:9576   */\n      0x00\n        /* \"#utility.yul\":9620:9621   */\n      0x08\n        /* \"#utility.yul\":9608:9618   */\n      dup4\n        /* \"#utility.yul\":9604:9622   */\n      mul\n        /* \"#utility.yul\":9643:9740   */\n      tag_195\n        /* \"#utility.yul\":9673:9739   */\n      0xffffffffffffffffffffffffffffffffffffffffffffffffffffffffffffffff\n        /* \"#utility.yul\":9662:9671   */\n      dup3\n        /* \"#utility.yul\":9643:9740   */\n      tag_83\n      jump\t// in\n    tag_195:\n        /* \"#utility.yul\":9761:9800   */\n      tag_196\n        /* \"#utility.yul\":9791:9799   */\n      dup7\n        /* \"#utility.yul\":9780:9789   */\n      dup4\n        /* \"#utility.yul\":9761:9800   */\n      tag_83\n      jump\t// in\n    tag_196:\n        /* \"#utility.yul\":9749:9800   */\n      swap6\n      pop\n        /* \"#utility.yul\":9833:9837   */\n      dup1\n        /* \"#utility.yul\":9829:9838   */\n      not\n        /* \"#utility.yul\":9822:9827   */\n      dup5\n        /* \"#utility.yul\":9818:9839   */\n      and\n        /* \"#utility.yul\":9809:9839   */\n      swap4\n      pop\n        /* \"#utility.yul\":9882:9886   */\n      dup1\n        /* \"#utility.yul\":9872:9880   */\n      dup7\n        /* \"#utility.yul\":9868:9887   */\n      and\n        /* \"#utility.yul\":9861:9866   */\n      dup5\n        /* \"#utility.yul\":9858:9888   */\n      or\n        /* \"#utility.yul\":9848:9888   */\n      swap3\n      pop\n        /* \"#utility.yul\":9577:9894   */\n      pop\n      pop\n        /* \"#utility.yul\":9501:9894   */\n      swap4\n      swap3\n      pop\n      pop\n      pop\n      jump\t// out\n        /* \"#utility.yul\":9900:9960   */\n    tag_85:\n        /* \"#utility.yul\":9928:9931   */\n      0x00\n        /* \"#utility.yul\":9949:9954   */\n      dup2\n        /* \"#utility.yul\":9942:9954   */\n      swap1\n      pop\n        /* \"#utility.yul\":9900:9960   */\n      swap2\n      swap1\n      pop\n      jump\t// out\n        /* \"#utility.yul\":9966:10108   */\n    tag_86:\n        /* \"#utility.yul\":10016:10025   */\n      0x00\n        /* \"#utility.yul\":10049:10102   */\n      tag_199\n        /* \"#utility.yul\":10067:10101   */\n      tag_200\n        /* \"#utility.yul\":10076:10100   */\n      tag_201\n        /* \"#utility.yul\":10094:10099   */\n      dup5\n        /* \"#utility.yul\":10076:10100   */\n      tag_50\n      jump\t// in\n    tag_201:\n        /* \"#utility.yul\":10067:10101   */\n      tag_85\n      jump\t// in\n    tag_200:\n        /* \"#utility.yul\":10049:10102   */\n      tag_50\n      jump\t// in\n    tag_199:\n        /* \"#utility.yul\":10036:10102   */\n      swap1\n      pop\n        /* \"#utility.yul\":9966:10108   */\n      swap2\n      swap1\n      pop\n      jump\t// out\n        /* \"#utility.yul\":10114:10189   */\n    tag_87:\n        /* \"#utility.yul\":10157:10160   */\n      0x00\n        /* \"#utility.yul\":10178:10183   */\n      dup2\n        /* \"#utility.yul\":10171:10183   */\n      swap1\n      pop\n        /* \"#utility.yul\":10114:10189   */\n      swap2\n      swap1\n      pop\n      jump\t// out\n        /* \"#utility.yul\":10195:10464   */\n    tag_88:\n        /* \"#utility.yul\":10305:10344   */\n      tag_204\n        /* \"#utility.yul\":10336:10343   */\n      dup4\n        /* \"#utility.yul\":10305:10344   */\n      tag_86\n      jump\t// in\n    tag_204:\n        /* \"#utility.yul\":10366:10457   */\n      tag_205\n        /* \"#utility.yul\":10415:10456   */\n      tag_206\n        /* \"#utility.yul\":10439:10455   */\n      dup3\n        /* \"#utility.yul\":10415:10456   */\n      tag_87\n      jump\t// in\n    tag_206:\n        /* \"#utility.yul\":10407:10413   */\n      dup5\n        /* \"#utility.yul\":10400:10404   */\n      dup5\n        /* \"#utility.yul\":10394:10405   */\n      sload\n        /* \"#utility.yul\":10366:10457   */\n      tag_84\n      jump\t// in\n    tag_205:\n        /* \"#utility.yul\":10360:10364   */\n      dup3\n        /* \"#utility.yul\":10353:10458   */\n      sstore\n        /* \"#utility.yul\":10271:10464   */\n      pop\n        /* \"#utility.yul\":10195:10464   */\n      pop\n      pop\n      pop\n      jump\t// out\n        /* \"#utility.yul\":10470:10543   */\n    tag_89:\n        /* \"#utility.yul\":10515:10518   */\n      0x00\n        /* \"#utility.yul\":10536:10537   */\n      0x00\n        /* \"#utility.yul\":10529:10537   */\n      swap1\n      pop\n        /* \"#utility.yul\":10470:10543   */\n      swap1\n      jump\t// out\n        /* \"#utility.yul\":10549:10738   */\n    tag_90:\n        /* \"#utility.yul\":10626:10658   */\n      tag_209\n      tag_89\n      jump\t// in\n    tag_209:\n        /* \"#utility.yul\":10667:10732   */\n      tag_210\n        /* \"#utility.yul\":10725:10731   */\n      dup2\n        /* \"#utility.yul\":10717:10723   */\n      dup5\n        /* \"#utility.yul\":10711:10715   */\n      dup5\n        /* \"#utility.yul\":10667:10732   */\n      tag_88\n      jump\t// in\n    tag_210:\n        /* \"#utility.yul\":10602:10738   */\n      pop\n        /* \"#utility.yul\":10549:10738   */\n      pop\n      pop\n      jump\t// out\n        /* \"#utility.yul\":10744:10930   */\n    tag_91:\n        /* \"#utility.yul\":10804:10924   */\n    tag_212:\n        /* \"#utility.yul\":10821:10824   */\n      dup2\n        /* \"#utility.yul\":10814:10819   */\n      dup2\n        /* \"#utility.yul\":10811:10825   */\n      lt\n        /* \"#utility.yul\":10804:10924   */\n      iszero\n      tag_214\n      jumpi\n        /* \"#utility.yul\":10875:10914   */\n      tag_215\n        /* \"#utility.yul\":10912:10913   */\n      0x00\n        /* \"#utility.yul\":10905:10910   */\n      dup3\n        /* \"#utility.yul\":10875:10914   */\n      tag_90\n      jump\t// in\n    tag_215:\n        /* \"#utility.yul\":10848:10849   */\n      0x01\n        /* \"#utility.yul\":10841:10846   */\n      dup2\n        /* \"#utility.yul\":10837:10850   */\n      add\n        /* \"#utility.yul\":10828:10850   */\n      swap1\n      pop\n        /* \"#utility.yul\":10804:10924   */\n      jump(tag_212)\n    tag_214:\n        /* \"#utility.yul\":10744:10930   */\n      pop\n      pop\n      jump\t// out\n        /* \"#utility.yul\":10936:11479   */\n    tag_92:\n        /* \"#utility.yul\":11037:11039   */\n      0x1f\n        /* \"#utility.yul\":11032:11035   */\n      dup3\n        /* \"#utility.yul\":11029:11040   */\n      gt\n        /* \"#utility.yul\":11026:11472   */\n      iszero\n      tag_217\n      jumpi\n        /* \"#utility.yul\":11071:11109   */\n      tag_218\n        /* \"#utility.yul\":11103:11108   */\n      dup2\n        /* \"#utility.yul\":11071:11109   */\n      tag_81\n      jump\t// in\n    tag_218:\n        /* \"#utility.yul\":11155:11184   */\n      tag_219\n        /* \"#utility.yul\":11173:11183   */\n      dup5\n        /* \"#utility.yul\":11155:11184   */\n      tag_82\n      jump\t// in\n    tag_219:\n        /* \"#utility.yul\":11145:11153   */\n      dup2\n        /* \"#utility.yul\":11141:11185   */\n      add\n        /* \"#utility.yul\":11338:11340   */\n      0x20\n        /* \"#utility.yul\":11326:11336   */\n      dup6\n        /* \"#utility.yul\":11323:11341   */\n      lt\n        /* \"#utility.yul\":11320:11369   */\n      iszero\n      tag_220\n      jumpi\n        /* \"#utility.yul\":11359:11367   */\n      dup2\n        /* \"#utility.yul\":11344:11367   */\n      swap1\n      pop\n        /* \"#utility.yul\":11320:11369   */\n    tag_220:\n        /* \"#utility.yul\":11382:11462   */\n      tag_221\n        /* \"#utility.yul\":11438:11460   */\n      tag_222\n        /* \"#utility.yul\":11456:11459   */\n      dup6\n        /* \"#utility.yul\":11438:11460   */\n      tag_82\n      jump\t// in\n    tag_222:\n        /* \"#utility.yul\":11428:11436   */\n      dup4\n        /* \"#utility.yul\":11424:11461   */\n      add\n        /* \"#utility.yul\":11411:11422   */\n      dup3\n        /* \"#utility.yul\":11382:11462   */\n      tag_91\n      jump\t// in\n    tag_221:\n        /* \"#utility.yul\":11041:11472   */\n      pop\n      pop\n        /* \"#utility.yul\":11026:11472   */\n    tag_217:\n        /* \"#utility.yul\":10936:11479   */\n      pop\n      pop\n      pop\n      jump\t// out\n        /* \"#utility.yul\":11485:11602   */\n    tag_93:\n        /* \"#utility.yul\":11539:11547   */\n      0x00\n        /* \"#utility.yul\":11589:11594   */\n      dup3\n        /* \"#utility.yul\":11583:11587   */\n      dup3\n        /* \"#utility.yul\":11579:11595   */\n      shr\n        /* \"#utility.yul\":11558:11595   */\n      swap1\n      pop\n        /* \"#utility.yul\":11485:11602   */\n      swap3\n      swap2\n      pop\n      pop\n      jump\t// out\n        /* \"#utility.yul\":11608:11777   */\n    tag_94:\n        /* \"#utility.yul\":11652:11658   */\n      0x00\n        /* \"#utility.yul\":11685:11736   */\n      tag_225\n        /* \"#utility.yul\":11733:11734   */\n      0x00\n        /* \"#utility.yul\":11729:11735   */\n      not\n        /* \"#utility.yul\":11721:11726   */\n      dup5\n        /* \"#utility.yul\":11718:11719   */\n      0x08\n        /* \"#utility.yul\":11714:11727   */\n      mul\n        /* \"#utility.yul\":11685:11736   */\n      tag_93\n      jump\t// in\n    tag_225:\n        /* \"#utility.yul\":11681:11737   */\n      not\n        /* \"#utility.yul\":11766:11770   */\n      dup1\n        /* \"#utility.yul\":11760:11764   */\n      dup4\n        /* \"#utility.yul\":11756:11771   */\n      and\n        /* \"#utility.yul\":11746:11771   */\n      swap2\n      pop\n        /* \"#utility.yul\":11659:11777   */\n      pop\n        /* \"#utility.yul\":11608:11777   */\n      swap3\n      swap2\n      pop\n      pop\n      jump\t// out\n        /* \"#utility.yul\":11782:12077   */\n    tag_95:\n        /* \"#utility.yul\":11858:11862   */\n      0x00\n        /* \"#utility.yul\":12004:12033   */\n      tag_227\n        /* \"#utility.yul\":12029:12032   */\n      dup4\n        /* \"#utility.yul\":12023:12027   */\n      dup4\n        /* \"#utility.yul\":12004:12033   */\n      tag_94\n      jump\t// in\n    tag_227:\n        /* \"#utility.yul\":11996:12033   */\n      swap2\n      pop\n        /* \"#utility.yul\":12066:12069   */\n      dup3\n        /* \"#utility.yul\":12063:12064   */\n      0x02\n        /* \"#utility.yul\":12059:12070   */\n      mul\n        /* \"#utility.yul\":12053:12057   */\n      dup3\n        /* \"#utility.yul\":12050:12071   */\n      or\n        /* \"#utility.yul\":12042:12071   */\n      swap1\n      pop\n        /* \"#utility.yul\":11782:12077   */\n      swap3\n      swap2\n      pop\n      pop\n      jump\t// out\n        /* \"#utility.yul\":12082:13477   */\n    tag_39:\n        /* \"#utility.yul\":12199:12236   */\n      tag_229\n        /* \"#utility.yul\":12232:12235   */\n      dup3\n        /* \"#utility.yul\":12199:12236   */\n      tag_71\n      jump\t// in\n    tag_229:\n        /* \"#utility.yul\":12301:12319   */\n      0xffffffffffffffff\n        /* \"#utility.yul\":12293:12299   */\n      dup2\n        /* \"#utility.yul\":12290:12320   */\n      gt\n        /* \"#utility.yul\":12287:12343   */\n      iszero\n      tag_230\n      jumpi\n        /* \"#utility.yul\":12323:12341   */\n      tag_231\n      tag_64\n      jump\t// in\n    tag_231:\n        /* \"#utility.yul\":12287:12343   */\n    tag_230:\n        /* \"#utility.yul\":12367:12405   */\n      tag_232\n        /* \"#utility.yul\":12399:12403   */\n      dup3\n        /* \"#utility.yul\":12393:12404   */\n      sload\n        /* \"#utility.yul\":12367:12405   */\n      tag_45\n      jump\t// in\n    tag_232:\n        /* \"#utility.yul\":12452:12519   */\n      tag_233\n        /* \"#utility.yul\":12512:12518   */\n      dup3\n        /* \"#utility.yul\":12504:12510   */\n      dup3\n        /* \"#utility.yul\":12498:12502   */\n      dup6\n        /* \"#utility.yul\":12452:12519   */\n      tag_92\n      jump\t// in\n    tag_233:\n        /* \"#utility.yul\":12546:12547   */\n      0x00\n        /* \"#utility.yul\":12570:12574   */\n      0x20\n        /* \"#utility.yul\":12557:12574   */\n      swap1\n      pop\n        /* \"#utility.yul\":12602:12604   */\n      0x1f\n        /* \"#utility.yul\":12594:12600   */\n      dup4\n        /* \"#utility.yul\":12591:12605   */\n      gt\n        /* \"#utility.yul\":12619:12620   */\n      0x01\n        /* \"#utility.yul\":12614:13232   */\n      dup2\n      eq\n      tag_235\n      jumpi\n        /* \"#utility.yul\":13276:13277   */\n      0x00\n        /* \"#utility.yul\":13293:13299   */\n      dup5\n        /* \"#utility.yul\":13290:13367   */\n      iszero\n      tag_236\n      jumpi\n        /* \"#utility.yul\":13342:13351   */\n      dup3\n        /* \"#utility.yul\":13337:13340   */\n      dup8\n        /* \"#utility.yul\":13333:13352   */\n      add\n        /* \"#utility.yul\":13327:13353   */\n      mload\n        /* \"#utility.yul\":13318:13353   */\n      swap1\n      pop\n        /* \"#utility.yul\":13290:13367   */\n    tag_236:\n        /* \"#utility.yul\":13393:13460   */\n      tag_237\n        /* \"#utility.yul\":13453:13459   */\n      dup6\n        /* \"#utility.yul\":13446:13451   */\n      dup3\n        /* \"#utility.yul\":13393:13460   */\n      tag_95\n      jump\t// in\n    tag_237:\n        /* \"#utility.yul\":13387:13391   */\n      dup7\n        /* \"#utility.yul\":13380:13461   */\n      sstore\n        /* \"#utility.yul\":13249:13471   */\n      pop\n        /* \"#utility.yul\":12584:13471   */\n      jump(tag_234)\n        /* \"#utility.yul\":12614:13232   */\n    tag_235:\n        /* \"#utility.yul\":12666:12670   */\n      0x1f\n        /* \"#utility.yul\":12662:12671   */\n      not\n        /* \"#utility.yul\":12654:12660   */\n      dup5\n        /* \"#utility.yul\":12650:12672   */\n      and\n        /* \"#utility.yul\":12700:12737   */\n      tag_238\n        /* \"#utility.yul\":12732:12736   */\n      dup7\n        /* \"#utility.yul\":12700:12737   */\n      tag_81\n      jump\t// in\n    tag_238:\n        /* \"#utility.yul\":12759:12760   */\n      0x00\n        /* \"#utility.yul\":12773:12981   */\n    tag_239:\n        /* \"#utility.yul\":12787:12794   */\n      dup3\n        /* \"#utility.yul\":12784:12785   */\n      dup2\n        /* \"#utility.yul\":12781:12795   */\n      lt\n        /* \"#utility.yul\":12773:12981   */\n      iszero\n      tag_241\n      jumpi\n        /* \"#utility.yul\":12866:12875   */\n      dup5\n        /* \"#utility.yul\":12861:12864   */\n      dup10\n        /* \"#utility.yul\":12857:12876   */\n      add\n        /* \"#utility.yul\":12851:12877   */\n      mload\n        /* \"#utility.yul\":12843:12849   */\n      dup3\n        /* \"#utility.yul\":12836:12878   */\n      sstore\n        /* \"#utility.yul\":12917:12918   */\n      0x01\n        /* \"#utility.yul\":12909:12915   */\n      dup3\n        /* \"#utility.yul\":12905:12919   */\n      add\n        /* \"#utility.yul\":12895:12919   */\n      swap2\n      pop\n        /* \"#utility.yul\":12964:12966   */\n      0x20\n        /* \"#utility.yul\":12953:12962   */\n      dup6\n        /* \"#utility.yul\":12949:12967   */\n      add\n        /* \"#utility.yul\":12936:12967   */\n      swap5\n      pop\n        /* \"#utility.yul\":12810:12814   */\n      0x20\n        /* \"#utility.yul\":12807:12808   */\n      dup2\n        /* \"#utility.yul\":12803:12815   */\n      add\n        /* \"#utility.yul\":12798:12815   */\n      swap1\n      pop\n        /* \"#utility.yul\":12773:12981   */\n      jump(tag_239)\n    tag_241:\n        /* \"#utility.yul\":13009:13015   */\n      dup7\n        /* \"#utility.yul\":13000:13007   */\n      dup4\n        /* \"#utility.yul\":12997:13016   */\n      lt\n        /* \"#utility.yul\":12994:13173   */\n      iszero\n      tag_242\n      jumpi\n        /* \"#utility.yul\":13067:13076   */\n      dup5\n        /* \"#utility.yul\":13062:13065   */\n      dup10\n        /* \"#utility.yul\":13058:13077   */\n      add\n        /* \"#utility.yul\":13052:13078   */\n      mload\n        /* \"#utility.yul\":13110:13158   */\n      tag_243\n        /* \"#utility.yul\":13152:13156   */\n      0x1f\n        /* \"#utility.yul\":13144:13150   */\n      dup10\n        /* \"#utility.yul\":13140:13157   */\n      and\n        /* \"#utility.yul\":13129:13138   */\n      dup3\n        /* \"#utility.yul\":13110:13158   */\n      tag_94\n      jump\t// in\n    tag_243:\n        /* \"#utility.yul\":13102:13108   */\n      dup4\n        /* \"#utility.yul\":13095:13159   */\n      sstore\n        /* \"#utility.yul\":13017:13173   */\n      pop\n        /* \"#utility.yul\":12994:13173   */\n    tag_242:\n        /* \"#utility.yul\":13219:13220   */\n      0x01\n        /* \"#utility.yul\":13215:13216   */\n      0x02\n        /* \"#utility.yul\":13207:13213   */\n      dup9\n        /* \"#utility.yul\":13203:13217   */\n      mul\n        /* \"#utility.yul\":13199:13221   */\n      add\n        /* \"#utility.yul\":13193:13197   */\n      dup9\n        /* \"#utility.yul\":13186:13222   */\n      sstore\n        /* \"#utility.yul\":12621:13232   */\n      pop\n      pop\n      pop\n        /* \"#utility.yul\":12584:13471   */\n    tag_234:\n      pop\n        /* \"#utility.yul\":12174:13477   */\n      pop\n      pop\n      pop\n        /* \"#utility.yul\":12082:13477   */\n      pop\n      pop\n      jump\t// out\n        /* \"#utility.yul\":13483:13796   */\n    tag_41:\n        /* \"#utility.yul\":13596:13600   */\n      0x00\n        /* \"#utility.yul\":13634:13636   */\n      0x20\n        /* \"#utility.yul\":13623:13632   */\n      dup3\n        /* \"#utility.yul\":13619:13637   */\n      add\n        /* \"#utility.yul\":13611:13637   */\n      swap1\n      pop\n        /* \"#utility.yul\":13683:13692   */\n      dup2\n        /* \"#utility.yul\":13677:13681   */\n      dup2\n        /* \"#utility.yul\":13673:13693   */\n      sub\n        /* \"#utility.yul\":13669:13670   */\n      0x00\n        /* \"#utility.yul\":13658:13667   */\n      dup4\n        /* \"#utility.yul\":13654:13671   */\n      add\n        /* \"#utility.yul\":13647:13694   */\n      mstore\n        /* \"#utility.yul\":13711:13789   */\n      tag_245\n        /* \"#utility.yul\":13784:13788   */\n      dup2\n        /* \"#utility.yul\":13775:13781   */\n      dup5\n        /* \"#utility.yul\":13711:13789   */\n      tag_74\n      jump\t// in\n    tag_245:\n        /* \"#utility.yul\":13703:13789   */\n      swap1\n      pop\n        /* \"#utility.yul\":13483:13796   */\n      swap3\n      swap2\n      pop\n      pop\n      jump\t// out\n        /* \"#utility.yul\":13802:13982   */\n    tag_96:\n        /* \"#utility.yul\":13850:13927   */\n      0x4e487b7100000000000000000000000000000000000000000000000000000000\n        /* \"#utility.yul\":13847:13848   */\n      0x00\n        /* \"#utility.yul\":13840:13928   */\n      mstore\n        /* \"#utility.yul\":13947:13951   */\n      0x11\n        /* \"#utility.yul\":13944:13945   */\n      0x04\n        /* \"#utility.yul\":13937:13952   */\n      mstore\n        /* \"#utility.yul\":13971:13975   */\n      0x24\n        /* \"#utility.yul\":13968:13969   */\n      0x00\n        /* \"#utility.yul\":13961:13976   */\n      revert\n        /* \"#utility.yul\":13988:14221   */\n    tag_43:\n        /* \"#utility.yul\":14027:14030   */\n      0x00\n        /* \"#utility.yul\":14050:14074   */\n      tag_248\n        /* \"#utility.yul\":14068:14073   */\n      dup3\n        /* \"#utility.yul\":14050:14074   */\n      tag_50\n      jump\t// in\n    tag_248:\n        /* \"#utility.yul\":14041:14074   */\n      swap2\n      pop\n        /* \"#utility.yul\":14096:14162   */\n      0xffffffffffffffffffffffffffffffffffffffffffffffffffffffffffffffff\n        /* \"#utility.yul\":14089:14094   */\n      dup3\n        /* \"#utility.yul\":14086:14163   */\n      sub\n        /* \"#utility.yul\":14083:14186   */\n      tag_249\n      jumpi\n        /* \"#utility.yul\":14166:14184   */\n      tag_250\n      tag_96\n      jump\t// in\n    tag_250:\n        /* \"#utility.yul\":14083:14186   */\n    tag_249:\n        /* \"#utility.yul\":14213:14214   */\n      0x01\n        /* \"#utility.yul\":14206:14211   */\n      dup3\n        /* \"#utility.yul\":14202:14215   */\n      add\n        /* \"#utility.yul\":14195:14215   */\n      swap1\n      pop\n        /* \"#utility.yul\":13988:14221   */\n      swap2\n      swap1\n      pop\n      jump\t// out\n\n    auxdata: 0xa26469706673582212206f976b535e8095b9536dc2ced496439d45e6ed85f51cf3291c82a2816eb2a77364736f6c634300081e0033\n}\n",
				"bytecode": {
					"linkReferences": {},
					"object": "60806040525f6001553480156012575f5ffd5b50610ddc806100205f395ff3fe608060405234801561000f575f5ffd5b5060043610610055575f3560e01c806306661abd1461005957806329507f7314610077578063576cc0f7146100935780637effb29f146100af578063bfb231d2146100cb575b5f5ffd5b6100616100fd565b60405161006e91906105e5565b60405180910390f35b610091600480360381019061008c9190610693565b610103565b005b6100ad60048036038101906100a891906106d1565b610258565b005b6100c960048036038101906100c49190610838565b6103de565b005b6100e560048036038101906100e091906106d1565b610503565b6040516100f4939291906108ee565b60405180910390f35b60015481565b5f5f5f8481526020019081526020015f206002015f9054906101000a900473ffffffffffffffffffffffffffffffffffffffff1690508073ffffffffffffffffffffffffffffffffffffffff163373ffffffffffffffffffffffffffffffffffffffff16146101a7576040517f08c379a000000000000000000000000000000000000000000000000000000000815260040161019e9061099a565b60405180910390fd5b815f5f8581526020019081526020015f206002015f6101000a81548173ffffffffffffffffffffffffffffffffffffffff021916908373ffffffffffffffffffffffffffffffffffffffff1602179055508173ffffffffffffffffffffffffffffffffffffffff168173ffffffffffffffffffffffffffffffffffffffff16847f16b85f49bf01212961345d3016c9a531894accf62eb7680f2045d79185cc0ec060405160405180910390a4505050565b5f5f8281526020019081526020015f206002015f9054906101000a900473ffffffffffffffffffffffffffffffffffffffff1673ffffffffffffffffffffffffffffffffffffffff163373ffffffffffffffffffffffffffffffffffffffff16146102f8576040517f08c379a00000000000000000000000000000000000000000000000000000000081526004016102ef90610a28565b60405180910390fd5b5f5f5f8381526020019081526020015f206002015f9054906101000a900473ffffffffffffffffffffffffffffffffffffffff1690505f5f5f8481526020019081526020015f206002015f6101000a81548173ffffffffffffffffffffffffffffffffffffffff021916908373ffffffffffffffffffffffffffffffffffffffff1602179055505f73ffffffffffffffffffffffffffffffffffffffff168173ffffffffffffffffffffffffffffffffffffffff16837f16b85f49bf01212961345d3016c9a531894accf62eb7680f2045d79185cc0ec060405160405180910390a45050565b5f604051806060016040528060015481526020018381526020013373ffffffffffffffffffffffffffffffffffffffff168152509050805f5f60015481526020019081526020015f205f820151815f015560208201518160010190816104449190610c43565b506040820151816002015f6101000a81548173ffffffffffffffffffffffffffffffffffffffff021916908373ffffffffffffffffffffffffffffffffffffffff160217905550905050806040015173ffffffffffffffffffffffffffffffffffffffff16815f01517f6e25be3619376e564cfe010b907906379faef975c78ba0112d80e039a612a04f83602001516040516104e09190610d12565b60405180910390a360015f8154809291906104fa90610d5f565b91905055505050565b5f602052805f5260405f205f91509050805f01549080600101805461052790610a73565b80601f016020809104026020016040519081016040528092919081815260200182805461055390610a73565b801561059e5780601f106105755761010080835404028352916020019161059e565b820191905f5260205f20905b81548152906001019060200180831161058157829003601f168201915b505050505090806002015f9054906101000a900473ffffffffffffffffffffffffffffffffffffffff16905083565b5f819050919050565b6105df816105cd565b82525050565b5f6020820190506105f85f8301846105d6565b92915050565b5f604051905090565b5f5ffd5b5f5ffd5b610618816105cd565b8114610622575f5ffd5b50565b5f813590506106338161060f565b92915050565b5f73ffffffffffffffffffffffffffffffffffffffff82169050919050565b5f61066282610639565b9050919050565b61067281610658565b811461067c575f5ffd5b50565b5f8135905061068d81610669565b92915050565b5f5f604083850312156106a9576106a8610607565b5b5f6106b685828601610625565b92505060206106c78582860161067f565b9150509250929050565b5f602082840312156106e6576106e5610607565b5b5f6106f384828501610625565b91505092915050565b5f5ffd5b5f5ffd5b5f601f19601f8301169050919050565b7f4e487b71000000000000000000000000000000000000000000000000000000005f52604160045260245ffd5b61074a82610704565b810181811067ffffffffffffffff8211171561076957610768610714565b5b80604052505050565b5f61077b6105fe565b90506107878282610741565b919050565b5f67ffffffffffffffff8211156107a6576107a5610714565b5b6107af82610704565b9050602081019050919050565b828183375f83830152505050565b5f6107dc6107d78461078c565b610772565b9050828152602081018484840111156107f8576107f7610700565b5b6108038482856107bc565b509392505050565b5f82601f83011261081f5761081e6106fc565b5b813561082f8482602086016107ca565b91505092915050565b5f6020828403121561084d5761084c610607565b5b5f82013567ffffffffffffffff81111561086a5761086961060b565b5b6108768482850161080b565b91505092915050565b5f81519050919050565b5f82825260208201905092915050565b8281835e5f83830152505050565b5f6108b18261087f565b6108bb8185610889565b93506108cb818560208601610899565b6108d481610704565b840191505092915050565b6108e881610658565b82525050565b5f6060820190506109015f8301866105d6565b818103602083015261091381856108a7565b905061092260408301846108df565b949350505050565b7f4f6e6c7920746865206f776e65722063616e2063616c6c20746869732066756e5f8201527f6374696f6e000000000000000000000000000000000000000000000000000000602082015250565b5f610984602583610889565b915061098f8261092a565b604082019050919050565b5f6020820190508181035f8301526109b181610978565b9050919050565b7f4f6e6c79207468652063757272656e74206f776e65722063616e206275726e205f8201527f74686973206974656d2e00000000000000000000000000000000000000000000602082015250565b5f610a12602a83610889565b9150610a1d826109b8565b604082019050919050565b5f6020820190508181035f830152610a3f81610a06565b9050919050565b7f4e487b71000000000000000000000000000000000000000000000000000000005f52602260045260245ffd5b5f6002820490506001821680610a8a57607f821691505b602082108103610a9d57610a9c610a46565b5b50919050565b5f819050815f5260205f209050919050565b5f6020601f8301049050919050565b5f82821b905092915050565b5f60088302610aff7fffffffffffffffffffffffffffffffffffffffffffffffffffffffffffffffff82610ac4565b610b098683610ac4565b95508019841693508086168417925050509392505050565b5f819050919050565b5f610b44610b3f610b3a846105cd565b610b21565b6105cd565b9050919050565b5f819050919050565b610b5d83610b2a565b610b71610b6982610b4b565b848454610ad0565b825550505050565b5f5f905090565b610b88610b79565b610b93818484610b54565b505050565b5b81811015610bb657610bab5f82610b80565b600181019050610b99565b5050565b601f821115610bfb57610bcc81610aa3565b610bd584610ab5565b81016020851015610be4578190505b610bf8610bf085610ab5565b830182610b98565b50505b505050565b5f82821c905092915050565b5f610c1b5f1984600802610c00565b1980831691505092915050565b5f610c338383610c0c565b9150826002028217905092915050565b610c4c8261087f565b67ffffffffffffffff811115610c6557610c64610714565b5b610c6f8254610a73565b610c7a828285610bba565b5f60209050601f831160018114610cab575f8415610c99578287015190505b610ca38582610c28565b865550610d0a565b601f198416610cb986610aa3565b5f5b82811015610ce057848901518255600182019150602085019450602081019050610cbb565b86831015610cfd5784890151610cf9601f891682610c0c565b8355505b6001600288020188555050505b505050505050565b5f6020820190508181035f830152610d2a81846108a7565b905092915050565b7f4e487b71000000000000000000000000000000000000000000000000000000005f52601160045260245ffd5b5f610d69826105cd565b91507fffffffffffffffffffffffffffffffffffffffffffffffffffffffffffffffff8203610d9b57610d9a610d32565b5b60018201905091905056fea26469706673582212206f976b535e8095b9536dc2ced496439d45e6ed85f51cf3291c82a2816eb2a77364736f6c634300081e0033",
					"opcodes": "PUSH1 0x80 PUSH1 0x40 MSTORE PUSH0 PUSH1 0x1 SSTORE CALLVALUE DUP1 ISZERO PUSH1 0x12 JUMPI PUSH0 PUSH0 REVERT JUMPDEST POP PUSH2 0xDDC DUP1 PUSH2 0x20 PUSH0 CODECOPY PUSH0 RETURN INVALID PUSH1 0x80 PUSH1 0x40 MSTORE CALLVALUE DUP1 ISZERO PUSH2 0xF JUMPI PUSH0 PUSH0 REVERT JUMPDEST POP PUSH1 0x4 CALLDATASIZE LT PUSH2 0x55 JUMPI PUSH0 CALLDATALOAD PUSH1 0xE0 SHR DUP1 PUSH4 0x6661ABD EQ PUSH2 0x59 JUMPI DUP1 PUSH4 0x29507F73 EQ PUSH2 0x77 JUMPI DUP1 PUSH4 0x576CC0F7 EQ PUSH2 0x93 JUMPI DUP1 PUSH4 0x7EFFB29F EQ PUSH2 0xAF JUMPI DUP1 PUSH4 0xBFB231D2 EQ PUSH2 0xCB JUMPI JUMPDEST PUSH0 PUSH0 REVERT JUMPDEST PUSH2 0x61 PUSH2 0xFD JUMP JUMPDEST PUSH1 0x40 MLOAD PUSH2 0x6E SWAP2 SWAP1 PUSH2 0x5E5 JUMP JUMPDEST PUSH1 0x40 MLOAD DUP1 SWAP2 SUB SWAP1 RETURN JUMPDEST PUSH2 0x91 PUSH1 0x4 DUP1 CALLDATASIZE SUB DUP2 ADD SWAP1 PUSH2 0x8C SWAP2 SWAP1 PUSH2 0x693 JUMP JUMPDEST PUSH2 0x103 JUMP JUMPDEST STOP JUMPDEST PUSH2 0xAD PUSH1 0x4 DUP1 CALLDATASIZE SUB DUP2 ADD SWAP1 PUSH2 0xA8 SWAP2 SWAP1 PUSH2 0x6D1 JUMP JUMPDEST PUSH2 0x258 JUMP JUMPDEST STOP JUMPDEST PUSH2 0xC9 PUSH1 0x4 DUP1 CALLDATASIZE SUB DUP2 ADD SWAP1 PUSH2 0xC4 SWAP2 SWAP1 PUSH2 0x838 JUMP JUMPDEST PUSH2 0x3DE JUMP JUMPDEST STOP JUMPDEST PUSH2 0xE5 PUSH1 0x4 DUP1 CALLDATASIZE SUB DUP2 ADD SWAP1 PUSH2 0xE0 SWAP2 SWAP1 PUSH2 0x6D1 JUMP JUMPDEST PUSH2 0x503 JUMP JUMPDEST PUSH1 0x40 MLOAD PUSH2 0xF4 SWAP4 SWAP3 SWAP2 SWAP1 PUSH2 0x8EE JUMP JUMPDEST PUSH1 0x40 MLOAD DUP1 SWAP2 SUB SWAP1 RETURN JUMPDEST PUSH1 0x1 SLOAD DUP2 JUMP JUMPDEST PUSH0 PUSH0 PUSH0 DUP5 DUP2 MSTORE PUSH1 0x20 ADD SWAP1 DUP2 MSTORE PUSH1 0x20 ADD PUSH0 KECCAK256 PUSH1 0x2 ADD PUSH0 SWAP1 SLOAD SWAP1 PUSH2 0x100 EXP SWAP1 DIV PUSH20 0xFFFFFFFFFFFFFFFFFFFFFFFFFFFFFFFFFFFFFFFF AND SWAP1 POP DUP1 PUSH20 0xFFFFFFFFFFFFFFFFFFFFFFFFFFFFFFFFFFFFFFFF AND CALLER PUSH20 0xFFFFFFFFFFFFFFFFFFFFFFFFFFFFFFFFFFFFFFFF AND EQ PUSH2 0x1A7 JUMPI PUSH1 0x40 MLOAD PUSH32 0x8C379A000000000000000000000000000000000000000000000000000000000 DUP2 MSTORE PUSH1 0x4 ADD PUSH2 0x19E SWAP1 PUSH2 0x99A JUMP JUMPDEST PUSH1 0x40 MLOAD DUP1 SWAP2 SUB SWAP1 REVERT JUMPDEST DUP2 PUSH0 PUSH0 DUP6 DUP2 MSTORE PUSH1 0x20 ADD SWAP1 DUP2 MSTORE PUSH1 0x20 ADD PUSH0 KECCAK256 PUSH1 0x2 ADD PUSH0 PUSH2 0x100 EXP DUP2 SLOAD DUP2 PUSH20 0xFFFFFFFFFFFFFFFFFFFFFFFFFFFFFFFFFFFFFFFF MUL NOT AND SWAP1 DUP4 PUSH20 0xFFFFFFFFFFFFFFFFFFFFFFFFFFFFFFFFFFFFFFFF AND MUL OR SWAP1 SSTORE POP DUP2 PUSH20 0xFFFFFFFFFFFFFFFFFFFFFFFFFFFFFFFFFFFFFFFF AND DUP2 PUSH20 0xFFFFFFFFFFFFFFFFFFFFFFFFFFFFFFFFFFFFFFFF AND DUP5 PUSH32 0x16B85F49BF01212961345D3016C9A531894ACCF62EB7680F2045D79185CC0EC0 PUSH1 0x40 MLOAD PUSH1 0x40 MLOAD DUP1 SWAP2 SUB SWAP1 LOG4 POP POP POP JUMP JUMPDEST PUSH0 PUSH0 DUP3 DUP2 MSTORE PUSH1 0x20 ADD SWAP1 DUP2 MSTORE PUSH1 0x20 ADD PUSH0 KECCAK256 PUSH1 0x2 ADD PUSH0 SWAP1 SLOAD SWAP1 PUSH2 0x100 EXP SWAP1 DIV PUSH20 0xFFFFFFFFFFFFFFFFFFFFFFFFFFFFFFFFFFFFFFFF AND PUSH20 0xFFFFFFFFFFFFFFFFFFFFFFFFFFFFFFFFFFFFFFFF AND CALLER PUSH20 0xFFFFFFFFFFFFFFFFFFFFFFFFFFFFFFFFFFFFFFFF AND EQ PUSH2 0x2F8 JUMPI PUSH1 0x40 MLOAD PUSH32 0x8C379A000000000000000000000000000000000000000000000000000000000 DUP2 MSTORE PUSH1 0x4 ADD PUSH2 0x2EF SWAP1 PUSH2 0xA28 JUMP JUMPDEST PUSH1 0x40 MLOAD DUP1 SWAP2 SUB SWAP1 REVERT JUMPDEST PUSH0 PUSH0 PUSH0 DUP4 DUP2 MSTORE PUSH1 0x20 ADD SWAP1 DUP2 MSTORE PUSH1 0x20 ADD PUSH0 KECCAK256 PUSH1 0x2 ADD PUSH0 SWAP1 SLOAD SWAP1 PUSH2 0x100 EXP SWAP1 DIV PUSH20 0xFFFFFFFFFFFFFFFFFFFFFFFFFFFFFFFFFFFFFFFF AND SWAP1 POP PUSH0 PUSH0 PUSH0 DUP5 DUP2 MSTORE PUSH1 0x20 ADD SWAP1 DUP2 MSTORE PUSH1 0x20 ADD PUSH0 KECCAK256 PUSH1 0x2 ADD PUSH0 PUSH2 0x100 EXP DUP2 SLOAD DUP2 PUSH20 0xFFFFFFFFFFFFFFFFFFFFFFFFFFFFFFFFFFFFFFFF MUL NOT AND SWAP1 DUP4 PUSH20 0xFFFFFFFFFFFFFFFFFFFFFFFFFFFFFFFFFFFFFFFF AND MUL OR SWAP1 SSTORE POP PUSH0 PUSH20 0xFFFFFFFFFFFFFFFFFFFFFFFFFFFFFFFFFFFFFFFF AND DUP2 PUSH20 0xFFFFFFFFFFFFFFFFFFFFFFFFFFFFFFFFFFFFFFFF AND DUP4 PUSH32 0x16B85F49BF01212961345D3016C9A531894ACCF62EB7680F2045D79185CC0EC0 PUSH1 0x40 MLOAD PUSH1 0x40 MLOAD DUP1 SWAP2 SUB SWAP1 LOG4 POP POP JUMP JUMPDEST PUSH0 PUSH1 0x40 MLOAD DUP1 PUSH1 0x60 ADD PUSH1 0x40 MSTORE DUP1 PUSH1 0x1 SLOAD DUP2 MSTORE PUSH1 0x20 ADD DUP4 DUP2 MSTORE PUSH1 0x20 ADD CALLER PUSH20 0xFFFFFFFFFFFFFFFFFFFFFFFFFFFFFFFFFFFFFFFF AND DUP2 MSTORE POP SWAP1 POP DUP1 PUSH0 PUSH0 PUSH1 0x1 SLOAD DUP2 MSTORE PUSH1 0x20 ADD SWAP1 DUP2 MSTORE PUSH1 0x20 ADD PUSH0 KECCAK256 PUSH0 DUP3 ADD MLOAD DUP2 PUSH0 ADD SSTORE PUSH1 0x20 DUP3 ADD MLOAD DUP2 PUSH1 0x1 ADD SWAP1 DUP2 PUSH2 0x444 SWAP2 SWAP1 PUSH2 0xC43 JUMP JUMPDEST POP PUSH1 0x40 DUP3 ADD MLOAD DUP2 PUSH1 0x2 ADD PUSH0 PUSH2 0x100 EXP DUP2 SLOAD DUP2 PUSH20 0xFFFFFFFFFFFFFFFFFFFFFFFFFFFFFFFFFFFFFFFF MUL NOT AND SWAP1 DUP4 PUSH20 0xFFFFFFFFFFFFFFFFFFFFFFFFFFFFFFFFFFFFFFFF AND MUL OR SWAP1 SSTORE POP SWAP1 POP POP DUP1 PUSH1 0x40 ADD MLOAD PUSH20 0xFFFFFFFFFFFFFFFFFFFFFFFFFFFFFFFFFFFFFFFF AND DUP2 PUSH0 ADD MLOAD PUSH32 0x6E25BE3619376E564CFE010B907906379FAEF975C78BA0112D80E039A612A04F DUP4 PUSH1 0x20 ADD MLOAD PUSH1 0x40 MLOAD PUSH2 0x4E0 SWAP2 SWAP1 PUSH2 0xD12 JUMP JUMPDEST PUSH1 0x40 MLOAD DUP1 SWAP2 SUB SWAP1 LOG3 PUSH1 0x1 PUSH0 DUP2 SLOAD DUP1 SWAP3 SWAP2 SWAP1 PUSH2 0x4FA SWAP1 PUSH2 0xD5F JUMP JUMPDEST SWAP2 SWAP1 POP SSTORE POP POP POP JUMP JUMPDEST PUSH0 PUSH1 0x20 MSTORE DUP1 PUSH0 MSTORE PUSH1 0x40 PUSH0 KECCAK256 PUSH0 SWAP2 POP SWAP1 POP DUP1 PUSH0 ADD SLOAD SWAP1 DUP1 PUSH1 0x1 ADD DUP1 SLOAD PUSH2 0x527 SWAP1 PUSH2 0xA73 JUMP JUMPDEST DUP1 PUSH1 0x1F ADD PUSH1 0x20 DUP1 SWAP2 DIV MUL PUSH1 0x20 ADD PUSH1 0x40 MLOAD SWAP1 DUP2 ADD PUSH1 0x40 MSTORE DUP1 SWAP3 SWAP2 SWAP1 DUP2 DUP2 MSTORE PUSH1 0x20 ADD DUP3 DUP1 SLOAD PUSH2 0x553 SWAP1 PUSH2 0xA73 JUMP JUMPDEST DUP1 ISZERO PUSH2 0x59E JUMPI DUP1 PUSH1 0x1F LT PUSH2 0x575 JUMPI PUSH2 0x100 DUP1 DUP4 SLOAD DIV MUL DUP4 MSTORE SWAP2 PUSH1 0x20 ADD SWAP2 PUSH2 0x59E JUMP JUMPDEST DUP3 ADD SWAP2 SWAP1 PUSH0 MSTORE PUSH1 0x20 PUSH0 KECCAK256 SWAP1 JUMPDEST DUP2 SLOAD DUP2 MSTORE SWAP1 PUSH1 0x1 ADD SWAP1 PUSH1 0x20 ADD DUP1 DUP4 GT PUSH2 0x581 JUMPI DUP3 SWAP1 SUB PUSH1 0x1F AND DUP3 ADD SWAP2 JUMPDEST POP POP POP POP POP SWAP1 DUP1 PUSH1 0x2 ADD PUSH0 SWAP1 SLOAD SWAP1 PUSH2 0x100 EXP SWAP1 DIV PUSH20 0xFFFFFFFFFFFFFFFFFFFFFFFFFFFFFFFFFFFFFFFF AND SWAP1 POP DUP4 JUMP JUMPDEST PUSH0 DUP2 SWAP1 POP SWAP2 SWAP1 POP JUMP JUMPDEST PUSH2 0x5DF DUP2 PUSH2 0x5CD JUMP JUMPDEST DUP3 MSTORE POP POP JUMP JUMPDEST PUSH0 PUSH1 0x20 DUP3 ADD SWAP1 POP PUSH2 0x5F8 PUSH0 DUP4 ADD DUP5 PUSH2 0x5D6 JUMP JUMPDEST SWAP3 SWAP2 POP POP JUMP JUMPDEST PUSH0 PUSH1 0x40 MLOAD SWAP1 POP SWAP1 JUMP JUMPDEST PUSH0 PUSH0 REVERT JUMPDEST PUSH0 PUSH0 REVERT JUMPDEST PUSH2 0x618 DUP2 PUSH2 0x5CD JUMP JUMPDEST DUP2 EQ PUSH2 0x622 JUMPI PUSH0 PUSH0 REVERT JUMPDEST POP JUMP JUMPDEST PUSH0 DUP2 CALLDATALOAD SWAP1 POP PUSH2 0x633 DUP2 PUSH2 0x60F JUMP JUMPDEST SWAP3 SWAP2 POP POP JUMP JUMPDEST PUSH0 PUSH20 0xFFFFFFFFFFFFFFFFFFFFFFFFFFFFFFFFFFFFFFFF DUP3 AND SWAP1 POP SWAP2 SWAP1 POP JUMP JUMPDEST PUSH0 PUSH2 0x662 DUP3 PUSH2 0x639 JUMP JUMPDEST SWAP1 POP SWAP2 SWAP1 POP JUMP JUMPDEST PUSH2 0x672 DUP2 PUSH2 0x658 JUMP JUMPDEST DUP2 EQ PUSH2 0x67C JUMPI PUSH0 PUSH0 REVERT JUMPDEST POP JUMP JUMPDEST PUSH0 DUP2 CALLDATALOAD SWAP1 POP PUSH2 0x68D DUP2 PUSH2 0x669 JUMP JUMPDEST SWAP3 SWAP2 POP POP JUMP JUMPDEST PUSH0 PUSH0 PUSH1 0x40 DUP4 DUP6 SUB SLT ISZERO PUSH2 0x6A9 JUMPI PUSH2 0x6A8 PUSH2 0x607 JUMP JUMPDEST JUMPDEST PUSH0 PUSH2 0x6B6 DUP6 DUP3 DUP7 ADD PUSH2 0x625 JUMP JUMPDEST SWAP3 POP POP PUSH1 0x20 PUSH2 0x6C7 DUP6 DUP3 DUP7 ADD PUSH2 0x67F JUMP JUMPDEST SWAP2 POP POP SWAP3 POP SWAP3 SWAP1 POP JUMP JUMPDEST PUSH0 PUSH1 0x20 DUP3 DUP5 SUB SLT ISZERO PUSH2 0x6E6 JUMPI PUSH2 0x6E5 PUSH2 0x607 JUMP JUMPDEST JUMPDEST PUSH0 PUSH2 0x6F3 DUP5 DUP3 DUP6 ADD PUSH2 0x625 JUMP JUMPDEST SWAP2 POP POP SWAP3 SWAP2 POP POP JUMP JUMPDEST PUSH0 PUSH0 REVERT JUMPDEST PUSH0 PUSH0 REVERT JUMPDEST PUSH0 PUSH1 0x1F NOT PUSH1 0x1F DUP4 ADD AND SWAP1 POP SWAP2 SWAP1 POP JUMP JUMPDEST PUSH32 0x4E487B7100000000000000000000000000000000000000000000000000000000 PUSH0 MSTORE PUSH1 0x41 PUSH1 0x4 MSTORE PUSH1 0x24 PUSH0 REVERT JUMPDEST PUSH2 0x74A DUP3 PUSH2 0x704 JUMP JUMPDEST DUP2 ADD DUP2 DUP2 LT PUSH8 0xFFFFFFFFFFFFFFFF DUP3 GT OR ISZERO PUSH2 0x769 JUMPI PUSH2 0x768 PUSH2 0x714 JUMP JUMPDEST JUMPDEST DUP1 PUSH1 0x40 MSTORE POP POP POP JUMP JUMPDEST PUSH0 PUSH2 0x77B PUSH2 0x5FE JUMP JUMPDEST SWAP1 POP PUSH2 0x787 DUP3 DUP3 PUSH2 0x741 JUMP JUMPDEST SWAP2 SWAP1 POP JUMP JUMPDEST PUSH0 PUSH8 0xFFFFFFFFFFFFFFFF DUP3 GT ISZERO PUSH2 0x7A6 JUMPI PUSH2 0x7A5 PUSH2 0x714 JUMP JUMPDEST JUMPDEST PUSH2 0x7AF DUP3 PUSH2 0x704 JUMP JUMPDEST SWAP1 POP PUSH1 0x20 DUP2 ADD SWAP1 POP SWAP2 SWAP1 POP JUMP JUMPDEST DUP3 DUP2 DUP4 CALLDATACOPY PUSH0 DUP4 DUP4 ADD MSTORE POP POP POP JUMP JUMPDEST PUSH0 PUSH2 0x7DC PUSH2 0x7D7 DUP5 PUSH2 0x78C JUMP JUMPDEST PUSH2 0x772 JUMP JUMPDEST SWAP1 POP DUP3 DUP2 MSTORE PUSH1 0x20 DUP2 ADD DUP5 DUP5 DUP5 ADD GT ISZERO PUSH2 0x7F8 JUMPI PUSH2 0x7F7 PUSH2 0x700 JUMP JUMPDEST JUMPDEST PUSH2 0x803 DUP5 DUP3 DUP6 PUSH2 0x7BC JUMP JUMPDEST POP SWAP4 SWAP3 POP POP POP JUMP JUMPDEST PUSH0 DUP3 PUSH1 0x1F DUP4 ADD SLT PUSH2 0x81F JUMPI PUSH2 0x81E PUSH2 0x6FC JUMP JUMPDEST JUMPDEST DUP2 CALLDATALOAD PUSH2 0x82F DUP5 DUP3 PUSH1 0x20 DUP7 ADD PUSH2 0x7CA JUMP JUMPDEST SWAP2 POP POP SWAP3 SWAP2 POP POP JUMP JUMPDEST PUSH0 PUSH1 0x20 DUP3 DUP5 SUB SLT ISZERO PUSH2 0x84D JUMPI PUSH2 0x84C PUSH2 0x607 JUMP JUMPDEST JUMPDEST PUSH0 DUP3 ADD CALLDATALOAD PUSH8 0xFFFFFFFFFFFFFFFF DUP2 GT ISZERO PUSH2 0x86A JUMPI PUSH2 0x869 PUSH2 0x60B JUMP JUMPDEST JUMPDEST PUSH2 0x876 DUP5 DUP3 DUP6 ADD PUSH2 0x80B JUMP JUMPDEST SWAP2 POP POP SWAP3 SWAP2 POP POP JUMP JUMPDEST PUSH0 DUP2 MLOAD SWAP1 POP SWAP2 SWAP1 POP JUMP JUMPDEST PUSH0 DUP3 DUP3 MSTORE PUSH1 0x20 DUP3 ADD SWAP1 POP SWAP3 SWAP2 POP POP JUMP JUMPDEST DUP3 DUP2 DUP4 MCOPY PUSH0 DUP4 DUP4 ADD MSTORE POP POP POP JUMP JUMPDEST PUSH0 PUSH2 0x8B1 DUP3 PUSH2 0x87F JUMP JUMPDEST PUSH2 0x8BB DUP2 DUP6 PUSH2 0x889 JUMP JUMPDEST SWAP4 POP PUSH2 0x8CB DUP2 DUP6 PUSH1 0x20 DUP7 ADD PUSH2 0x899 JUMP JUMPDEST PUSH2 0x8D4 DUP2 PUSH2 0x704 JUMP JUMPDEST DUP5 ADD SWAP2 POP POP SWAP3 SWAP2 POP POP JUMP JUMPDEST PUSH2 0x8E8 DUP2 PUSH2 0x658 JUMP JUMPDEST DUP3 MSTORE POP POP JUMP JUMPDEST PUSH0 PUSH1 0x60 DUP3 ADD SWAP1 POP PUSH2 0x901 PUSH0 DUP4 ADD DUP7 PUSH2 0x5D6 JUMP JUMPDEST DUP2 DUP2 SUB PUSH1 0x20 DUP4 ADD MSTORE PUSH2 0x913 DUP2 DUP6 PUSH2 0x8A7 JUMP JUMPDEST SWAP1 POP PUSH2 0x922 PUSH1 0x40 DUP4 ADD DUP5 PUSH2 0x8DF JUMP JUMPDEST SWAP5 SWAP4 POP POP POP POP JUMP JUMPDEST PUSH32 0x4F6E6C7920746865206F776E65722063616E2063616C6C20746869732066756E PUSH0 DUP3 ADD MSTORE PUSH32 0x6374696F6E000000000000000000000000000000000000000000000000000000 PUSH1 0x20 DUP3 ADD MSTORE POP JUMP JUMPDEST PUSH0 PUSH2 0x984 PUSH1 0x25 DUP4 PUSH2 0x889 JUMP JUMPDEST SWAP2 POP PUSH2 0x98F DUP3 PUSH2 0x92A JUMP JUMPDEST PUSH1 0x40 DUP3 ADD SWAP1 POP SWAP2 SWAP1 POP JUMP JUMPDEST PUSH0 PUSH1 0x20 DUP3 ADD SWAP1 POP DUP2 DUP2 SUB PUSH0 DUP4 ADD MSTORE PUSH2 0x9B1 DUP2 PUSH2 0x978 JUMP JUMPDEST SWAP1 POP SWAP2 SWAP1 POP JUMP JUMPDEST PUSH32 0x4F6E6C79207468652063757272656E74206F776E65722063616E206275726E20 PUSH0 DUP3 ADD MSTORE PUSH32 0x74686973206974656D2E00000000000000000000000000000000000000000000 PUSH1 0x20 DUP3 ADD MSTORE POP JUMP JUMPDEST PUSH0 PUSH2 0xA12 PUSH1 0x2A DUP4 PUSH2 0x889 JUMP JUMPDEST SWAP2 POP PUSH2 0xA1D DUP3 PUSH2 0x9B8 JUMP JUMPDEST PUSH1 0x40 DUP3 ADD SWAP1 POP SWAP2 SWAP1 POP JUMP JUMPDEST PUSH0 PUSH1 0x20 DUP3 ADD SWAP1 POP DUP2 DUP2 SUB PUSH0 DUP4 ADD MSTORE PUSH2 0xA3F DUP2 PUSH2 0xA06 JUMP JUMPDEST SWAP1 POP SWAP2 SWAP1 POP JUMP JUMPDEST PUSH32 0x4E487B7100000000000000000000000000000000000000000000000000000000 PUSH0 MSTORE PUSH1 0x22 PUSH1 0x4 MSTORE PUSH1 0x24 PUSH0 REVERT JUMPDEST PUSH0 PUSH1 0x2 DUP3 DIV SWAP1 POP PUSH1 0x1 DUP3 AND DUP1 PUSH2 0xA8A JUMPI PUSH1 0x7F DUP3 AND SWAP2 POP JUMPDEST PUSH1 0x20 DUP3 LT DUP2 SUB PUSH2 0xA9D JUMPI PUSH2 0xA9C PUSH2 0xA46 JUMP JUMPDEST JUMPDEST POP SWAP2 SWAP1 POP JUMP JUMPDEST PUSH0 DUP2 SWAP1 POP DUP2 PUSH0 MSTORE PUSH1 0x20 PUSH0 KECCAK256 SWAP1 POP SWAP2 SWAP1 POP JUMP JUMPDEST PUSH0 PUSH1 0x20 PUSH1 0x1F DUP4 ADD DIV SWAP1 POP SWAP2 SWAP1 POP JUMP JUMPDEST PUSH0 DUP3 DUP3 SHL SWAP1 POP SWAP3 SWAP2 POP POP JUMP JUMPDEST PUSH0 PUSH1 0x8 DUP4 MUL PUSH2 0xAFF PUSH32 0xFFFFFFFFFFFFFFFFFFFFFFFFFFFFFFFFFFFFFFFFFFFFFFFFFFFFFFFFFFFFFFFF DUP3 PUSH2 0xAC4 JUMP JUMPDEST PUSH2 0xB09 DUP7 DUP4 PUSH2 0xAC4 JUMP JUMPDEST SWAP6 POP DUP1 NOT DUP5 AND SWAP4 POP DUP1 DUP7 AND DUP5 OR SWAP3 POP POP POP SWAP4 SWAP3 POP POP POP JUMP JUMPDEST PUSH0 DUP2 SWAP1 POP SWAP2 SWAP1 POP JUMP JUMPDEST PUSH0 PUSH2 0xB44 PUSH2 0xB3F PUSH2 0xB3A DUP5 PUSH2 0x5CD JUMP JUMPDEST PUSH2 0xB21 JUMP JUMPDEST PUSH2 0x5CD JUMP JUMPDEST SWAP1 POP SWAP2 SWAP1 POP JUMP JUMPDEST PUSH0 DUP2 SWAP1 POP SWAP2 SWAP1 POP JUMP JUMPDEST PUSH2 0xB5D DUP4 PUSH2 0xB2A JUMP JUMPDEST PUSH2 0xB71 PUSH2 0xB69 DUP3 PUSH2 0xB4B JUMP JUMPDEST DUP5 DUP5 SLOAD PUSH2 0xAD0 JUMP JUMPDEST DUP3 SSTORE POP POP POP POP JUMP JUMPDEST PUSH0 PUSH0 SWAP1 POP SWAP1 JUMP JUMPDEST PUSH2 0xB88 PUSH2 0xB79 JUMP JUMPDEST PUSH2 0xB93 DUP2 DUP5 DUP5 PUSH2 0xB54 JUMP JUMPDEST POP POP POP JUMP JUMPDEST JUMPDEST DUP2 DUP2 LT ISZERO PUSH2 0xBB6 JUMPI PUSH2 0xBAB PUSH0 DUP3 PUSH2 0xB80 JUMP JUMPDEST PUSH1 0x1 DUP2 ADD SWAP1 POP PUSH2 0xB99 JUMP JUMPDEST POP POP JUMP JUMPDEST PUSH1 0x1F DUP3 GT ISZERO PUSH2 0xBFB JUMPI PUSH2 0xBCC DUP2 PUSH2 0xAA3 JUMP JUMPDEST PUSH2 0xBD5 DUP5 PUSH2 0xAB5 JUMP JUMPDEST DUP2 ADD PUSH1 0x20 DUP6 LT ISZERO PUSH2 0xBE4 JUMPI DUP2 SWAP1 POP JUMPDEST PUSH2 0xBF8 PUSH2 0xBF0 DUP6 PUSH2 0xAB5 JUMP JUMPDEST DUP4 ADD DUP3 PUSH2 0xB98 JUMP JUMPDEST POP POP JUMPDEST POP POP POP JUMP JUMPDEST PUSH0 DUP3 DUP3 SHR SWAP1 POP SWAP3 SWAP2 POP POP JUMP JUMPDEST PUSH0 PUSH2 0xC1B PUSH0 NOT DUP5 PUSH1 0x8 MUL PUSH2 0xC00 JUMP JUMPDEST NOT DUP1 DUP4 AND SWAP2 POP POP SWAP3 SWAP2 POP POP JUMP JUMPDEST PUSH0 PUSH2 0xC33 DUP4 DUP4 PUSH2 0xC0C JUMP JUMPDEST SWAP2 POP DUP3 PUSH1 0x2 MUL DUP3 OR SWAP1 POP SWAP3 SWAP2 POP POP JUMP JUMPDEST PUSH2 0xC4C DUP3 PUSH2 0x87F JUMP JUMPDEST PUSH8 0xFFFFFFFFFFFFFFFF DUP2 GT ISZERO PUSH2 0xC65 JUMPI PUSH2 0xC64 PUSH2 0x714 JUMP JUMPDEST JUMPDEST PUSH2 0xC6F DUP3 SLOAD PUSH2 0xA73 JUMP JUMPDEST PUSH2 0xC7A DUP3 DUP3 DUP6 PUSH2 0xBBA JUMP JUMPDEST PUSH0 PUSH1 0x20 SWAP1 POP PUSH1 0x1F DUP4 GT PUSH1 0x1 DUP2 EQ PUSH2 0xCAB JUMPI PUSH0 DUP5 ISZERO PUSH2 0xC99 JUMPI DUP3 DUP8 ADD MLOAD SWAP1 POP JUMPDEST PUSH2 0xCA3 DUP6 DUP3 PUSH2 0xC28 JUMP JUMPDEST DUP7 SSTORE POP PUSH2 0xD0A JUMP JUMPDEST PUSH1 0x1F NOT DUP5 AND PUSH2 0xCB9 DUP7 PUSH2 0xAA3 JUMP JUMPDEST PUSH0 JUMPDEST DUP3 DUP2 LT ISZERO PUSH2 0xCE0 JUMPI DUP5 DUP10 ADD MLOAD DUP3 SSTORE PUSH1 0x1 DUP3 ADD SWAP2 POP PUSH1 0x20 DUP6 ADD SWAP5 POP PUSH1 0x20 DUP2 ADD SWAP1 POP PUSH2 0xCBB JUMP JUMPDEST DUP7 DUP4 LT ISZERO PUSH2 0xCFD JUMPI DUP5 DUP10 ADD MLOAD PUSH2 0xCF9 PUSH1 0x1F DUP10 AND DUP3 PUSH2 0xC0C JUMP JUMPDEST DUP4 SSTORE POP JUMPDEST PUSH1 0x1 PUSH1 0x2 DUP9 MUL ADD DUP9 SSTORE POP POP POP JUMPDEST POP POP POP POP POP POP JUMP JUMPDEST PUSH0 PUSH1 0x20 DUP3 ADD SWAP1 POP DUP2 DUP2 SUB PUSH0 DUP4 ADD MSTORE PUSH2 0xD2A DUP2 DUP5 PUSH2 0x8A7 JUMP JUMPDEST SWAP1 POP SWAP3 SWAP2 POP POP JUMP JUMPDEST PUSH32 0x4E487B7100000000000000000000000000000000000000000000000000000000 PUSH0 MSTORE PUSH1 0x11 PUSH1 0x4 MSTORE PUSH1 0x24 PUSH0 REVERT JUMPDEST PUSH0 PUSH2 0xD69 DUP3 PUSH2 0x5CD JUMP JUMPDEST SWAP2 POP PUSH32 0xFFFFFFFFFFFFFFFFFFFFFFFFFFFFFFFFFFFFFFFFFFFFFFFFFFFFFFFFFFFFFFFF DUP3 SUB PUSH2 0xD9B JUMPI PUSH2 0xD9A PUSH2 0xD32 JUMP JUMPDEST JUMPDEST PUSH1 0x1 DUP3 ADD SWAP1 POP SWAP2 SWAP1 POP JUMP INVALID LOG2 PUSH5 0x6970667358 0x22 SLT KECCAK256 PUSH16 0x976B535E8095B9536DC2CED496439D45 DUPN 0xED DUP6 CREATE2 SHR RETURN 0x29 SHR DUP3 LOG2 DUP2 PUSH15 0xB2A77364736F6C634300081E003300 "
				},
				"gasEstimates": {
					"creation": {
						"codeDepositCost": "709600",
						"executionCost": "5744",
						"totalCost": "715344"
					},
					"external": {
						"burnItem(uint256)": "31169",
						"count()": "2403",
						"items(uint256)": "infinite",
						"registerItems(string)": "infinite",
						"transferOwnership(uint256,address)": "29151"
					}
				},
				"methodIdentifiers": {
					"burnItem(uint256)": "576cc0f7",
					"count()": "06661abd",
					"items(uint256)": "bfb231d2",
					"registerItems(string)": "7effb29f",
					"transferOwnership(uint256,address)": "29507f73"
				}
			},
			"storageLayout": {
				"storage": [
					{
						"astId": 13,
						"contract": "Dapp/tracker.sol:SimpleStorage",
						"label": "items",
						"offset": 0,
						"slot": "0",
						"type": "t_mapping(t_uint256,t_struct(Item)8_storage)"
					},
					{
						"astId": 16,
						"contract": "Dapp/tracker.sol:SimpleStorage",
						"label": "count",
						"offset": 0,
						"slot": "1",
						"type": "t_uint256"
					}
				],
				"types": {
					"t_address": {
						"encoding": "inplace",
						"label": "address",
						"numberOfBytes": "20"
					},
					"t_mapping(t_uint256,t_struct(Item)8_storage)": {
						"encoding": "mapping",
						"key": "t_uint256",
						"label": "mapping(uint256 => struct SimpleStorage.Item)",
						"numberOfBytes": "32",
						"value": "t_struct(Item)8_storage"
					},
					"t_string_storage": {
						"encoding": "bytes",
						"label": "string",
						"numberOfBytes": "32"
					},
					"t_struct(Item)8_storage": {
						"encoding": "inplace",
						"label": "struct SimpleStorage.Item",
						"members": [
							{
								"astId": 3,
								"contract": "Dapp/tracker.sol:SimpleStorage",
								"label": "id",
								"offset": 0,
								"slot": "0",
								"type": "t_uint256"
							},
							{
								"astId": 5,
								"contract": "Dapp/tracker.sol:SimpleStorage",
								"label": "name",
								"offset": 0,
								"slot": "1",
								"type": "t_string_storage"
							},
							{
								"astId": 7,
								"contract": "Dapp/tracker.sol:SimpleStorage",
								"label": "owner",
								"offset": 0,
								"slot": "2",
								"type": "t_address"
							}
						],
						"numberOfBytes": "96"
					},
					"t_uint256": {
						"encoding": "inplace",
						"label": "uint256",
						"numberOfBytes": "32"
					}
				}
			},
			"userdoc": {
				"kind": "user",
				"methods": {},
				"version": 1
			}
		}
	}
}