{
	"assignment_4/tracker.sol": {
		"SimpleStorage": {
			"abi": [
				{
					"anonymous": false,
					"inputs": [
						{
							"indexed": true,
							"internalType": "uint256",
							"name": "id",
							"type": "uint256"
						},
						{
							"indexed": true,
							"internalType": "address",
							"name": "owner",
							"type": "address"
						},
						{
							"indexed": false,
							"internalType": "string",
							"name": "name",
							"type": "string"
						}
					],
					"name": "ItemRegistered",
					"type": "event"
				},
				{
					"anonymous": false,
					"inputs": [
						{
							"indexed": true,
							"internalType": "uint256",
							"name": "id",
							"type": "uint256"
						},
						{
							"indexed": true,
							"internalType": "address",
							"name": "from",
							"type": "address"
						},
						{
							"indexed": true,
							"internalType": "address",
							"name": "to",
							"type": "address"
						}
					],
					"name": "OwnershipTransferred",
					"type": "event"
				},
				{
					"inputs": [],
					"name": "count",
					"outputs": [
						{
							"internalType": "uint256",
							"name": "",
							"type": "uint256"
						}
					],
					"stateMutability": "view",
					"type": "function"
				},
				{
					"inputs": [
						{
							"internalType": "uint256",
							"name": "",
							"type": "uint256"
						}
					],
					"name": "items",
					"outputs": [
						{
							"internalType": "uint256",
							"name": "id",
							"type": "uint256"
						},
						{
							"internalType": "string",
							"name": "name",
							"type": "string"
						},
						{
							"internalType": "address",
							"name": "owner",
							"type": "address"
						}
					],
					"stateMutability": "view",
					"type": "function"
				},
				{
					"inputs": [
						{
							"internalType": "string",
							"name": "_name",
							"type": "string"
						}
					],
					"name": "registerItems",
					"outputs": [],
					"stateMutability": "nonpayable",
					"type": "function"
				},
				{
					"inputs": [
						{
							"internalType": "uint256",
							"name": "id",
							"type": "uint256"
						},
						{
							"internalType": "address",
							"name": "newOwner",
							"type": "address"
						}
					],
					"name": "transferOwnership",
					"outputs": [],
					"stateMutability": "nonpayable",
					"type": "function"
				}
			],
			"devdoc": {
				"kind": "dev",
				"methods": {},
				"version": 1
			},
			"evm": {
				"assembly": "    /* \"assignment_4/tracker.sol\":34:945  contract SimpleStorage {... */\n  mstore(0x40, 0x80)\n    /* \"assignment_4/tracker.sol\":215:216  0 */\n  0x00\n    /* \"assignment_4/tracker.sol\":195:216  uint public count = 0 */\n  0x01\n  sstore\n    /* \"assignment_4/tracker.sol\":34:945  contract SimpleStorage {... */\n  callvalue\n  dup1\n  iszero\n  tag_1\n  jumpi\n  revert(0x00, 0x00)\ntag_1:\n  pop\n  dataSize(sub_0)\n  dup1\n  dataOffset(sub_0)\n  0x00\n  codecopy\n  0x00\n  return\nstop\n\nsub_0: assembly {\n        /* \"assignment_4/tracker.sol\":34:945  contract SimpleStorage {... */\n      mstore(0x40, 0x80)\n      callvalue\n      dup1\n      iszero\n      tag_1\n      jumpi\n      revert(0x00, 0x00)\n    tag_1:\n      pop\n      jumpi(tag_2, lt(calldatasize, 0x04))\n      shr(0xe0, calldataload(0x00))\n      dup1\n      0x06661abd\n      eq\n      tag_3\n      jumpi\n      dup1\n      0x29507f73\n      eq\n      tag_4\n      jumpi\n      dup1\n      0x7effb29f\n      eq\n      tag_5\n      jumpi\n      dup1\n      0xbfb231d2\n      eq\n      tag_6\n      jumpi\n    tag_2:\n      revert(0x00, 0x00)\n        /* \"assignment_4/tracker.sol\":195:216  uint public count = 0 */\n    tag_3:\n      tag_7\n      tag_8\n      jump\t// in\n    tag_7:\n      mload(0x40)\n      tag_9\n      swap2\n      swap1\n      tag_10\n      jump\t// in\n    tag_9:\n      mload(0x40)\n      dup1\n      swap2\n      sub\n      swap1\n      return\n        /* \"assignment_4/tracker.sol\":645:943  function transferOwnership(uint256 id, address newOwner) public {... */\n    tag_4:\n      tag_11\n      0x04\n      dup1\n      calldatasize\n      sub\n      dup2\n      add\n      swap1\n      tag_12\n      swap2\n      swap1\n      tag_13\n      jump\t// in\n    tag_12:\n      tag_14\n      jump\t// in\n    tag_11:\n      stop\n        /* \"assignment_4/tracker.sol\":400:640  function registerItems(string memory _name) public {... */\n    tag_5:\n      tag_15\n      0x04\n      dup1\n      calldatasize\n      sub\n      dup2\n      add\n      swap1\n      tag_16\n      swap2\n      swap1\n      tag_17\n      jump\t// in\n    tag_16:\n      tag_18\n      jump\t// in\n    tag_15:\n      stop\n        /* \"assignment_4/tracker.sol\":151:189  mapping (uint256 => Item) public items */\n    tag_6:\n      tag_19\n      0x04\n      dup1\n      calldatasize\n      sub\n      dup2\n      add\n      swap1\n      tag_20\n      swap2\n      swap1\n      tag_21\n      jump\t// in\n    tag_20:\n      tag_22\n      jump\t// in\n    tag_19:\n      mload(0x40)\n      tag_23\n      swap4\n      swap3\n      swap2\n      swap1\n      tag_24\n      jump\t// in\n    tag_23:\n      mload(0x40)\n      dup1\n      swap2\n      sub\n      swap1\n      return\n        /* \"assignment_4/tracker.sol\":195:216  uint public count = 0 */\n    tag_8:\n      sload(0x01)\n      dup2\n      jump\t// out\n        /* \"assignment_4/tracker.sol\":645:943  function transferOwnership(uint256 id, address newOwner) public {... */\n    tag_14:\n        /* \"assignment_4/tracker.sol\":719:737  address orig_owner */\n      0x00\n        /* \"assignment_4/tracker.sol\":740:745  items */\n      0x00\n        /* \"assignment_4/tracker.sol\":740:749  items[id] */\n      0x00\n        /* \"assignment_4/tracker.sol\":746:748  id */\n      dup5\n        /* \"assignment_4/tracker.sol\":740:749  items[id] */\n      dup2\n      mstore\n      0x20\n      add\n      swap1\n      dup2\n      mstore\n      0x20\n      add\n      0x00\n      keccak256\n        /* \"assignment_4/tracker.sol\":740:755  items[id].owner */\n      0x02\n      add\n      0x00\n      swap1\n      sload\n      swap1\n      0x0100\n      exp\n      swap1\n      div\n      0xffffffffffffffffffffffffffffffffffffffff\n      and\n        /* \"assignment_4/tracker.sol\":719:755  address orig_owner = items[id].owner */\n      swap1\n      pop\n        /* \"assignment_4/tracker.sol\":787:797  orig_owner */\n      dup1\n        /* \"assignment_4/tracker.sol\":773:797  msg.sender == orig_owner */\n      0xffffffffffffffffffffffffffffffffffffffff\n      and\n        /* \"assignment_4/tracker.sol\":773:783  msg.sender */\n      caller\n        /* \"assignment_4/tracker.sol\":773:797  msg.sender == orig_owner */\n      0xffffffffffffffffffffffffffffffffffffffff\n      and\n      eq\n        /* \"assignment_4/tracker.sol\":765:839  require(msg.sender == orig_owner, \"Only the owner can call this function\") */\n      tag_26\n      jumpi\n      mload(0x40)\n      0x08c379a000000000000000000000000000000000000000000000000000000000\n      dup2\n      mstore\n      0x04\n      add\n      tag_27\n      swap1\n      tag_28\n      jump\t// in\n    tag_27:\n      mload(0x40)\n      dup1\n      swap2\n      sub\n      swap1\n      revert\n    tag_26:\n        /* \"assignment_4/tracker.sol\":867:875  newOwner */\n      dup2\n        /* \"assignment_4/tracker.sol\":849:854  items */\n      0x00\n        /* \"assignment_4/tracker.sol\":849:858  items[id] */\n      0x00\n        /* \"assignment_4/tracker.sol\":855:857  id */\n      dup6\n        /* \"assignment_4/tracker.sol\":849:858  items[id] */\n      dup2\n      mstore\n      0x20\n      add\n      swap1\n      dup2\n      mstore\n      0x20\n      add\n      0x00\n      keccak256\n        /* \"assignment_4/tracker.sol\":849:864  items[id].owner */\n      0x02\n      add\n      0x00\n        /* \"assignment_4/tracker.sol\":849:875  items[id].owner = newOwner */\n      0x0100\n      exp\n      dup2\n      sload\n      dup2\n      0xffffffffffffffffffffffffffffffffffffffff\n      mul\n      not\n      and\n      swap1\n      dup4\n      0xffffffffffffffffffffffffffffffffffffffff\n      and\n      mul\n      or\n      swap1\n      sstore\n      pop\n        /* \"assignment_4/tracker.sol\":927:935  newOwner */\n      dup2\n        /* \"assignment_4/tracker.sol\":890:936  OwnershipTransferred(id, orig_owner, newOwner) */\n      0xffffffffffffffffffffffffffffffffffffffff\n      and\n        /* \"assignment_4/tracker.sol\":915:925  orig_owner */\n      dup2\n        /* \"assignment_4/tracker.sol\":890:936  OwnershipTransferred(id, orig_owner, newOwner) */\n      0xffffffffffffffffffffffffffffffffffffffff\n      and\n        /* \"assignment_4/tracker.sol\":911:913  id */\n      dup5\n        /* \"assignment_4/tracker.sol\":890:936  OwnershipTransferred(id, orig_owner, newOwner) */\n      0x16b85f49bf01212961345d3016c9a531894accf62eb7680f2045d79185cc0ec0\n      mload(0x40)\n      mload(0x40)\n      dup1\n      swap2\n      sub\n      swap1\n      log4\n        /* \"assignment_4/tracker.sol\":709:943  {... */\n      pop\n        /* \"assignment_4/tracker.sol\":645:943  function transferOwnership(uint256 id, address newOwner) public {... */\n      pop\n      pop\n      jump\t// out\n        /* \"assignment_4/tracker.sol\":400:640  function registerItems(string memory _name) public {... */\n    tag_18:\n        /* \"assignment_4/tracker.sol\":461:480  Item memory newItem */\n      0x00\n        /* \"assignment_4/tracker.sol\":483:513  Item(count, _name, msg.sender) */\n      mload(0x40)\n      dup1\n      0x60\n      add\n      0x40\n      mstore\n      dup1\n        /* \"assignment_4/tracker.sol\":488:493  count */\n      sload(0x01)\n        /* \"assignment_4/tracker.sol\":483:513  Item(count, _name, msg.sender) */\n      dup2\n      mstore\n      0x20\n      add\n        /* \"assignment_4/tracker.sol\":495:500  _name */\n      dup4\n        /* \"assignment_4/tracker.sol\":483:513  Item(count, _name, msg.sender) */\n      dup2\n      mstore\n      0x20\n      add\n        /* \"assignment_4/tracker.sol\":502:512  msg.sender */\n      caller\n        /* \"assignment_4/tracker.sol\":483:513  Item(count, _name, msg.sender) */\n      0xffffffffffffffffffffffffffffffffffffffff\n      and\n      dup2\n      mstore\n      pop\n        /* \"assignment_4/tracker.sol\":461:513  Item memory newItem = Item(count, _name, msg.sender) */\n      swap1\n      pop\n        /* \"assignment_4/tracker.sol\":538:545  newItem */\n      dup1\n        /* \"assignment_4/tracker.sol\":523:528  items */\n      0x00\n        /* \"assignment_4/tracker.sol\":523:535  items[count] */\n      0x00\n        /* \"assignment_4/tracker.sol\":529:534  count */\n      sload(0x01)\n        /* \"assignment_4/tracker.sol\":523:535  items[count] */\n      dup2\n      mstore\n      0x20\n      add\n      swap1\n      dup2\n      mstore\n      0x20\n      add\n      0x00\n      keccak256\n        /* \"assignment_4/tracker.sol\":523:545  items[count] = newItem */\n      0x00\n      dup3\n      add\n      mload\n      dup2\n      0x00\n      add\n      sstore\n      0x20\n      dup3\n      add\n      mload\n      dup2\n      0x01\n      add\n      swap1\n      dup2\n      tag_30\n      swap2\n      swap1\n      tag_31\n      jump\t// in\n    tag_30:\n      pop\n      0x40\n      dup3\n      add\n      mload\n      dup2\n      0x02\n      add\n      exp(0x0100, 0x00)\n      dup2\n      sload\n      dup2\n      0xffffffffffffffffffffffffffffffffffffffff\n      mul\n      not\n      and\n      swap1\n      dup4\n      0xffffffffffffffffffffffffffffffffffffffff\n      and\n      mul\n      or\n      swap1\n      sstore\n      pop\n      swap1\n      pop\n      pop\n        /* \"assignment_4/tracker.sol\":587:594  newItem */\n      dup1\n        /* \"assignment_4/tracker.sol\":587:600  newItem.owner */\n      0x40\n      add\n      mload\n        /* \"assignment_4/tracker.sol\":560:615  ItemRegistered(newItem.id, newItem.owner, newItem.name) */\n      0xffffffffffffffffffffffffffffffffffffffff\n      and\n        /* \"assignment_4/tracker.sol\":575:582  newItem */\n      dup2\n        /* \"assignment_4/tracker.sol\":575:585  newItem.id */\n      0x00\n      add\n      mload\n        /* \"assignment_4/tracker.sol\":560:615  ItemRegistered(newItem.id, newItem.owner, newItem.name) */\n      0x6e25be3619376e564cfe010b907906379faef975c78ba0112d80e039a612a04f\n        /* \"assignment_4/tracker.sol\":602:609  newItem */\n      dup4\n        /* \"assignment_4/tracker.sol\":602:614  newItem.name */\n      0x20\n      add\n      mload\n        /* \"assignment_4/tracker.sol\":560:615  ItemRegistered(newItem.id, newItem.owner, newItem.name) */\n      mload(0x40)\n      tag_32\n      swap2\n      swap1\n      tag_33\n      jump\t// in\n    tag_32:\n      mload(0x40)\n      dup1\n      swap2\n      sub\n      swap1\n      log3\n        /* \"assignment_4/tracker.sol\":625:630  count */\n      0x01\n      0x00\n        /* \"assignment_4/tracker.sol\":625:633  count ++ */\n      dup2\n      sload\n      dup1\n      swap3\n      swap2\n      swap1\n      tag_34\n      swap1\n      tag_35\n      jump\t// in\n    tag_34:\n      swap2\n      swap1\n      pop\n      sstore\n      pop\n        /* \"assignment_4/tracker.sol\":451:640  {... */\n      pop\n        /* \"assignment_4/tracker.sol\":400:640  function registerItems(string memory _name) public {... */\n      pop\n      jump\t// out\n        /* \"assignment_4/tracker.sol\":151:189  mapping (uint256 => Item) public items */\n    tag_22:\n      mstore(0x20, 0x00)\n      dup1\n      0x00\n      mstore\n      keccak256(0x00, 0x40)\n      0x00\n      swap2\n      pop\n      swap1\n      pop\n      dup1\n      0x00\n      add\n      sload\n      swap1\n      dup1\n      0x01\n      add\n      dup1\n      sload\n      tag_36\n      swap1\n      tag_37\n      jump\t// in\n    tag_36:\n      dup1\n      0x1f\n      add\n      0x20\n      dup1\n      swap2\n      div\n      mul\n      0x20\n      add\n      mload(0x40)\n      swap1\n      dup2\n      add\n      0x40\n      mstore\n      dup1\n      swap3\n      swap2\n      swap1\n      dup2\n      dup2\n      mstore\n      0x20\n      add\n      dup3\n      dup1\n      sload\n      tag_38\n      swap1\n      tag_37\n      jump\t// in\n    tag_38:\n      dup1\n      iszero\n      tag_39\n      jumpi\n      dup1\n      0x1f\n      lt\n      tag_40\n      jumpi\n      0x0100\n      dup1\n      dup4\n      sload\n      div\n      mul\n      dup4\n      mstore\n      swap2\n      0x20\n      add\n      swap2\n      jump(tag_39)\n    tag_40:\n      dup3\n      add\n      swap2\n      swap1\n      0x00\n      mstore\n      keccak256(0x00, 0x20)\n      swap1\n    tag_41:\n      dup2\n      sload\n      dup2\n      mstore\n      swap1\n      0x01\n      add\n      swap1\n      0x20\n      add\n      dup1\n      dup4\n      gt\n      tag_41\n      jumpi\n      dup3\n      swap1\n      sub\n      0x1f\n      and\n      dup3\n      add\n      swap2\n    tag_39:\n      pop\n      pop\n      pop\n      pop\n      pop\n      swap1\n      dup1\n      0x02\n      add\n      0x00\n      swap1\n      sload\n      swap1\n      0x0100\n      exp\n      swap1\n      div\n      0xffffffffffffffffffffffffffffffffffffffff\n      and\n      swap1\n      pop\n      dup4\n      jump\t// out\n        /* \"#utility.yul\":7:84   */\n    tag_42:\n        /* \"#utility.yul\":44:51   */\n      0x00\n        /* \"#utility.yul\":73:78   */\n      dup2\n        /* \"#utility.yul\":62:78   */\n      swap1\n      pop\n        /* \"#utility.yul\":7:84   */\n      swap2\n      swap1\n      pop\n      jump\t// out\n        /* \"#utility.yul\":90:208   */\n    tag_43:\n        /* \"#utility.yul\":177:201   */\n      tag_90\n        /* \"#utility.yul\":195:200   */\n      dup2\n        /* \"#utility.yul\":177:201   */\n      tag_42\n      jump\t// in\n    tag_90:\n        /* \"#utility.yul\":172:175   */\n      dup3\n        /* \"#utility.yul\":165:202   */\n      mstore\n        /* \"#utility.yul\":90:208   */\n      pop\n      pop\n      jump\t// out\n        /* \"#utility.yul\":214:436   */\n    tag_10:\n        /* \"#utility.yul\":307:311   */\n      0x00\n        /* \"#utility.yul\":345:347   */\n      0x20\n        /* \"#utility.yul\":334:343   */\n      dup3\n        /* \"#utility.yul\":330:348   */\n      add\n        /* \"#utility.yul\":322:348   */\n      swap1\n      pop\n        /* \"#utility.yul\":358:429   */\n      tag_92\n        /* \"#utility.yul\":426:427   */\n      0x00\n        /* \"#utility.yul\":415:424   */\n      dup4\n        /* \"#utility.yul\":411:428   */\n      add\n        /* \"#utility.yul\":402:408   */\n      dup5\n        /* \"#utility.yul\":358:429   */\n      tag_43\n      jump\t// in\n    tag_92:\n        /* \"#utility.yul\":214:436   */\n      swap3\n      swap2\n      pop\n      pop\n      jump\t// out\n        /* \"#utility.yul\":442:517   */\n    tag_44:\n        /* \"#utility.yul\":475:481   */\n      0x00\n        /* \"#utility.yul\":508:510   */\n      0x40\n        /* \"#utility.yul\":502:511   */\n      mload\n        /* \"#utility.yul\":492:511   */\n      swap1\n      pop\n        /* \"#utility.yul\":442:517   */\n      swap1\n      jump\t// out\n        /* \"#utility.yul\":523:640   */\n    tag_45:\n        /* \"#utility.yul\":632:633   */\n      0x00\n        /* \"#utility.yul\":629:630   */\n      0x00\n        /* \"#utility.yul\":622:634   */\n      revert\n        /* \"#utility.yul\":646:763   */\n    tag_46:\n        /* \"#utility.yul\":755:756   */\n      0x00\n        /* \"#utility.yul\":752:753   */\n      0x00\n        /* \"#utility.yul\":745:757   */\n      revert\n        /* \"#utility.yul\":769:891   */\n    tag_47:\n        /* \"#utility.yul\":842:866   */\n      tag_97\n        /* \"#utility.yul\":860:865   */\n      dup2\n        /* \"#utility.yul\":842:866   */\n      tag_42\n      jump\t// in\n    tag_97:\n        /* \"#utility.yul\":835:840   */\n      dup2\n        /* \"#utility.yul\":832:867   */\n      eq\n        /* \"#utility.yul\":822:885   */\n      tag_98\n      jumpi\n        /* \"#utility.yul\":881:882   */\n      0x00\n        /* \"#utility.yul\":878:879   */\n      0x00\n        /* \"#utility.yul\":871:883   */\n      revert\n        /* \"#utility.yul\":822:885   */\n    tag_98:\n        /* \"#utility.yul\":769:891   */\n      pop\n      jump\t// out\n        /* \"#utility.yul\":897:1036   */\n    tag_48:\n        /* \"#utility.yul\":943:948   */\n      0x00\n        /* \"#utility.yul\":981:987   */\n      dup2\n        /* \"#utility.yul\":968:988   */\n      calldataload\n        /* \"#utility.yul\":959:988   */\n      swap1\n      pop\n        /* \"#utility.yul\":997:1030   */\n      tag_100\n        /* \"#utility.yul\":1024:1029   */\n      dup2\n        /* \"#utility.yul\":997:1030   */\n      tag_47\n      jump\t// in\n    tag_100:\n        /* \"#utility.yul\":897:1036   */\n      swap3\n      swap2\n      pop\n      pop\n      jump\t// out\n        /* \"#utility.yul\":1042:1168   */\n    tag_49:\n        /* \"#utility.yul\":1079:1086   */\n      0x00\n        /* \"#utility.yul\":1119:1161   */\n      0xffffffffffffffffffffffffffffffffffffffff\n        /* \"#utility.yul\":1112:1117   */\n      dup3\n        /* \"#utility.yul\":1108:1162   */\n      and\n        /* \"#utility.yul\":1097:1162   */\n      swap1\n      pop\n        /* \"#utility.yul\":1042:1168   */\n      swap2\n      swap1\n      pop\n      jump\t// out\n        /* \"#utility.yul\":1174:1270   */\n    tag_50:\n        /* \"#utility.yul\":1211:1218   */\n      0x00\n        /* \"#utility.yul\":1240:1264   */\n      tag_103\n        /* \"#utility.yul\":1258:1263   */\n      dup3\n        /* \"#utility.yul\":1240:1264   */\n      tag_49\n      jump\t// in\n    tag_103:\n        /* \"#utility.yul\":1229:1264   */\n      swap1\n      pop\n        /* \"#utility.yul\":1174:1270   */\n      swap2\n      swap1\n      pop\n      jump\t// out\n        /* \"#utility.yul\":1276:1398   */\n    tag_51:\n        /* \"#utility.yul\":1349:1373   */\n      tag_105\n        /* \"#utility.yul\":1367:1372   */\n      dup2\n        /* \"#utility.yul\":1349:1373   */\n      tag_50\n      jump\t// in\n    tag_105:\n        /* \"#utility.yul\":1342:1347   */\n      dup2\n        /* \"#utility.yul\":1339:1374   */\n      eq\n        /* \"#utility.yul\":1329:1392   */\n      tag_106\n      jumpi\n        /* \"#utility.yul\":1388:1389   */\n      0x00\n        /* \"#utility.yul\":1385:1386   */\n      0x00\n        /* \"#utility.yul\":1378:1390   */\n      revert\n        /* \"#utility.yul\":1329:1392   */\n    tag_106:\n        /* \"#utility.yul\":1276:1398   */\n      pop\n      jump\t// out\n        /* \"#utility.yul\":1404:1543   */\n    tag_52:\n        /* \"#utility.yul\":1450:1455   */\n      0x00\n        /* \"#utility.yul\":1488:1494   */\n      dup2\n        /* \"#utility.yul\":1475:1495   */\n      calldataload\n        /* \"#utility.yul\":1466:1495   */\n      swap1\n      pop\n        /* \"#utility.yul\":1504:1537   */\n      tag_108\n        /* \"#utility.yul\":1531:1536   */\n      dup2\n        /* \"#utility.yul\":1504:1537   */\n      tag_51\n      jump\t// in\n    tag_108:\n        /* \"#utility.yul\":1404:1543   */\n      swap3\n      swap2\n      pop\n      pop\n      jump\t// out\n        /* \"#utility.yul\":1549:2023   */\n    tag_13:\n        /* \"#utility.yul\":1617:1623   */\n      0x00\n        /* \"#utility.yul\":1625:1631   */\n      0x00\n        /* \"#utility.yul\":1674:1676   */\n      0x40\n        /* \"#utility.yul\":1662:1671   */\n      dup4\n        /* \"#utility.yul\":1653:1660   */\n      dup6\n        /* \"#utility.yul\":1649:1672   */\n      sub\n        /* \"#utility.yul\":1645:1677   */\n      slt\n        /* \"#utility.yul\":1642:1761   */\n      iszero\n      tag_110\n      jumpi\n        /* \"#utility.yul\":1680:1759   */\n      tag_111\n      tag_45\n      jump\t// in\n    tag_111:\n        /* \"#utility.yul\":1642:1761   */\n    tag_110:\n        /* \"#utility.yul\":1800:1801   */\n      0x00\n        /* \"#utility.yul\":1825:1878   */\n      tag_112\n        /* \"#utility.yul\":1870:1877   */\n      dup6\n        /* \"#utility.yul\":1861:1867   */\n      dup3\n        /* \"#utility.yul\":1850:1859   */\n      dup7\n        /* \"#utility.yul\":1846:1868   */\n      add\n        /* \"#utility.yul\":1825:1878   */\n      tag_48\n      jump\t// in\n    tag_112:\n        /* \"#utility.yul\":1815:1878   */\n      swap3\n      pop\n        /* \"#utility.yul\":1771:1888   */\n      pop\n        /* \"#utility.yul\":1927:1929   */\n      0x20\n        /* \"#utility.yul\":1953:2006   */\n      tag_113\n        /* \"#utility.yul\":1998:2005   */\n      dup6\n        /* \"#utility.yul\":1989:1995   */\n      dup3\n        /* \"#utility.yul\":1978:1987   */\n      dup7\n        /* \"#utility.yul\":1974:1996   */\n      add\n        /* \"#utility.yul\":1953:2006   */\n      tag_52\n      jump\t// in\n    tag_113:\n        /* \"#utility.yul\":1943:2006   */\n      swap2\n      pop\n        /* \"#utility.yul\":1898:2016   */\n      pop\n        /* \"#utility.yul\":1549:2023   */\n      swap3\n      pop\n      swap3\n      swap1\n      pop\n      jump\t// out\n        /* \"#utility.yul\":2029:2146   */\n    tag_53:\n        /* \"#utility.yul\":2138:2139   */\n      0x00\n        /* \"#utility.yul\":2135:2136   */\n      0x00\n        /* \"#utility.yul\":2128:2140   */\n      revert\n        /* \"#utility.yul\":2152:2269   */\n    tag_54:\n        /* \"#utility.yul\":2261:2262   */\n      0x00\n        /* \"#utility.yul\":2258:2259   */\n      0x00\n        /* \"#utility.yul\":2251:2263   */\n      revert\n        /* \"#utility.yul\":2275:2377   */\n    tag_55:\n        /* \"#utility.yul\":2316:2322   */\n      0x00\n        /* \"#utility.yul\":2367:2369   */\n      0x1f\n        /* \"#utility.yul\":2363:2370   */\n      not\n        /* \"#utility.yul\":2358:2360   */\n      0x1f\n        /* \"#utility.yul\":2351:2356   */\n      dup4\n        /* \"#utility.yul\":2347:2361   */\n      add\n        /* \"#utility.yul\":2343:2371   */\n      and\n        /* \"#utility.yul\":2333:2371   */\n      swap1\n      pop\n        /* \"#utility.yul\":2275:2377   */\n      swap2\n      swap1\n      pop\n      jump\t// out\n        /* \"#utility.yul\":2383:2563   */\n    tag_56:\n        /* \"#utility.yul\":2431:2508   */\n      0x4e487b7100000000000000000000000000000000000000000000000000000000\n        /* \"#utility.yul\":2428:2429   */\n      0x00\n        /* \"#utility.yul\":2421:2509   */\n      mstore\n        /* \"#utility.yul\":2528:2532   */\n      0x41\n        /* \"#utility.yul\":2525:2526   */\n      0x04\n        /* \"#utility.yul\":2518:2533   */\n      mstore\n        /* \"#utility.yul\":2552:2556   */\n      0x24\n        /* \"#utility.yul\":2549:2550   */\n      0x00\n        /* \"#utility.yul\":2542:2557   */\n      revert\n        /* \"#utility.yul\":2569:2850   */\n    tag_57:\n        /* \"#utility.yul\":2652:2679   */\n      tag_119\n        /* \"#utility.yul\":2674:2678   */\n      dup3\n        /* \"#utility.yul\":2652:2679   */\n      tag_55\n      jump\t// in\n    tag_119:\n        /* \"#utility.yul\":2644:2650   */\n      dup2\n        /* \"#utility.yul\":2640:2680   */\n      add\n        /* \"#utility.yul\":2782:2788   */\n      dup2\n        /* \"#utility.yul\":2770:2780   */\n      dup2\n        /* \"#utility.yul\":2767:2789   */\n      lt\n        /* \"#utility.yul\":2746:2764   */\n      0xffffffffffffffff\n        /* \"#utility.yul\":2734:2744   */\n      dup3\n        /* \"#utility.yul\":2731:2765   */\n      gt\n        /* \"#utility.yul\":2728:2790   */\n      or\n        /* \"#utility.yul\":2725:2813   */\n      iszero\n      tag_120\n      jumpi\n        /* \"#utility.yul\":2793:2811   */\n      tag_121\n      tag_56\n      jump\t// in\n    tag_121:\n        /* \"#utility.yul\":2725:2813   */\n    tag_120:\n        /* \"#utility.yul\":2833:2843   */\n      dup1\n        /* \"#utility.yul\":2829:2831   */\n      0x40\n        /* \"#utility.yul\":2822:2844   */\n      mstore\n        /* \"#utility.yul\":2612:2850   */\n      pop\n        /* \"#utility.yul\":2569:2850   */\n      pop\n      pop\n      jump\t// out\n        /* \"#utility.yul\":2856:2985   */\n    tag_58:\n        /* \"#utility.yul\":2890:2896   */\n      0x00\n        /* \"#utility.yul\":2917:2937   */\n      tag_123\n      tag_44\n      jump\t// in\n    tag_123:\n        /* \"#utility.yul\":2907:2937   */\n      swap1\n      pop\n        /* \"#utility.yul\":2946:2979   */\n      tag_124\n        /* \"#utility.yul\":2974:2978   */\n      dup3\n        /* \"#utility.yul\":2966:2972   */\n      dup3\n        /* \"#utility.yul\":2946:2979   */\n      tag_57\n      jump\t// in\n    tag_124:\n        /* \"#utility.yul\":2856:2985   */\n      swap2\n      swap1\n      pop\n      jump\t// out\n        /* \"#utility.yul\":2991:3299   */\n    tag_59:\n        /* \"#utility.yul\":3053:3057   */\n      0x00\n        /* \"#utility.yul\":3143:3161   */\n      0xffffffffffffffff\n        /* \"#utility.yul\":3135:3141   */\n      dup3\n        /* \"#utility.yul\":3132:3162   */\n      gt\n        /* \"#utility.yul\":3129:3185   */\n      iszero\n      tag_126\n      jumpi\n        /* \"#utility.yul\":3165:3183   */\n      tag_127\n      tag_56\n      jump\t// in\n    tag_127:\n        /* \"#utility.yul\":3129:3185   */\n    tag_126:\n        /* \"#utility.yul\":3203:3232   */\n      tag_128\n        /* \"#utility.yul\":3225:3231   */\n      dup3\n        /* \"#utility.yul\":3203:3232   */\n      tag_55\n      jump\t// in\n    tag_128:\n        /* \"#utility.yul\":3195:3232   */\n      swap1\n      pop\n        /* \"#utility.yul\":3287:3291   */\n      0x20\n        /* \"#utility.yul\":3281:3285   */\n      dup2\n        /* \"#utility.yul\":3277:3292   */\n      add\n        /* \"#utility.yul\":3269:3292   */\n      swap1\n      pop\n        /* \"#utility.yul\":2991:3299   */\n      swap2\n      swap1\n      pop\n      jump\t// out\n        /* \"#utility.yul\":3305:3453   */\n    tag_60:\n        /* \"#utility.yul\":3403:3409   */\n      dup3\n        /* \"#utility.yul\":3398:3401   */\n      dup2\n        /* \"#utility.yul\":3393:3396   */\n      dup4\n        /* \"#utility.yul\":3380:3410   */\n      calldatacopy\n        /* \"#utility.yul\":3444:3445   */\n      0x00\n        /* \"#utility.yul\":3435:3441   */\n      dup4\n        /* \"#utility.yul\":3430:3433   */\n      dup4\n        /* \"#utility.yul\":3426:3442   */\n      add\n        /* \"#utility.yul\":3419:3446   */\n      mstore\n        /* \"#utility.yul\":3305:3453   */\n      pop\n      pop\n      pop\n      jump\t// out\n        /* \"#utility.yul\":3459:3884   */\n    tag_61:\n        /* \"#utility.yul\":3537:3542   */\n      0x00\n        /* \"#utility.yul\":3562:3628   */\n      tag_131\n        /* \"#utility.yul\":3578:3627   */\n      tag_132\n        /* \"#utility.yul\":3620:3626   */\n      dup5\n        /* \"#utility.yul\":3578:3627   */\n      tag_59\n      jump\t// in\n    tag_132:\n        /* \"#utility.yul\":3562:3628   */\n      tag_58\n      jump\t// in\n    tag_131:\n        /* \"#utility.yul\":3553:3628   */\n      swap1\n      pop\n        /* \"#utility.yul\":3651:3657   */\n      dup3\n        /* \"#utility.yul\":3644:3649   */\n      dup2\n        /* \"#utility.yul\":3637:3658   */\n      mstore\n        /* \"#utility.yul\":3689:3693   */\n      0x20\n        /* \"#utility.yul\":3682:3687   */\n      dup2\n        /* \"#utility.yul\":3678:3694   */\n      add\n        /* \"#utility.yul\":3727:3730   */\n      dup5\n        /* \"#utility.yul\":3718:3724   */\n      dup5\n        /* \"#utility.yul\":3713:3716   */\n      dup5\n        /* \"#utility.yul\":3709:3725   */\n      add\n        /* \"#utility.yul\":3706:3731   */\n      gt\n        /* \"#utility.yul\":3703:3815   */\n      iszero\n      tag_133\n      jumpi\n        /* \"#utility.yul\":3734:3813   */\n      tag_134\n      tag_54\n      jump\t// in\n    tag_134:\n        /* \"#utility.yul\":3703:3815   */\n    tag_133:\n        /* \"#utility.yul\":3824:3878   */\n      tag_135\n        /* \"#utility.yul\":3871:3877   */\n      dup5\n        /* \"#utility.yul\":3866:3869   */\n      dup3\n        /* \"#utility.yul\":3861:3864   */\n      dup6\n        /* \"#utility.yul\":3824:3878   */\n      tag_60\n      jump\t// in\n    tag_135:\n        /* \"#utility.yul\":3543:3884   */\n      pop\n        /* \"#utility.yul\":3459:3884   */\n      swap4\n      swap3\n      pop\n      pop\n      pop\n      jump\t// out\n        /* \"#utility.yul\":3904:4244   */\n    tag_62:\n        /* \"#utility.yul\":3960:3965   */\n      0x00\n        /* \"#utility.yul\":4009:4012   */\n      dup3\n        /* \"#utility.yul\":4002:4006   */\n      0x1f\n        /* \"#utility.yul\":3994:4000   */\n      dup4\n        /* \"#utility.yul\":3990:4007   */\n      add\n        /* \"#utility.yul\":3986:4013   */\n      slt\n        /* \"#utility.yul\":3976:4098   */\n      tag_137\n      jumpi\n        /* \"#utility.yul\":4017:4096   */\n      tag_138\n      tag_53\n      jump\t// in\n    tag_138:\n        /* \"#utility.yul\":3976:4098   */\n    tag_137:\n        /* \"#utility.yul\":4134:4140   */\n      dup2\n        /* \"#utility.yul\":4121:4141   */\n      calldataload\n        /* \"#utility.yul\":4159:4238   */\n      tag_139\n        /* \"#utility.yul\":4234:4237   */\n      dup5\n        /* \"#utility.yul\":4226:4232   */\n      dup3\n        /* \"#utility.yul\":4219:4223   */\n      0x20\n        /* \"#utility.yul\":4211:4217   */\n      dup7\n        /* \"#utility.yul\":4207:4224   */\n      add\n        /* \"#utility.yul\":4159:4238   */\n      tag_61\n      jump\t// in\n    tag_139:\n        /* \"#utility.yul\":4150:4238   */\n      swap2\n      pop\n        /* \"#utility.yul\":3966:4244   */\n      pop\n        /* \"#utility.yul\":3904:4244   */\n      swap3\n      swap2\n      pop\n      pop\n      jump\t// out\n        /* \"#utility.yul\":4250:4759   */\n    tag_17:\n        /* \"#utility.yul\":4319:4325   */\n      0x00\n        /* \"#utility.yul\":4368:4370   */\n      0x20\n        /* \"#utility.yul\":4356:4365   */\n      dup3\n        /* \"#utility.yul\":4347:4354   */\n      dup5\n        /* \"#utility.yul\":4343:4366   */\n      sub\n        /* \"#utility.yul\":4339:4371   */\n      slt\n        /* \"#utility.yul\":4336:4455   */\n      iszero\n      tag_141\n      jumpi\n        /* \"#utility.yul\":4374:4453   */\n      tag_142\n      tag_45\n      jump\t// in\n    tag_142:\n        /* \"#utility.yul\":4336:4455   */\n    tag_141:\n        /* \"#utility.yul\":4522:4523   */\n      0x00\n        /* \"#utility.yul\":4511:4520   */\n      dup3\n        /* \"#utility.yul\":4507:4524   */\n      add\n        /* \"#utility.yul\":4494:4525   */\n      calldataload\n        /* \"#utility.yul\":4552:4570   */\n      0xffffffffffffffff\n        /* \"#utility.yul\":4544:4550   */\n      dup2\n        /* \"#utility.yul\":4541:4571   */\n      gt\n        /* \"#utility.yul\":4538:4655   */\n      iszero\n      tag_143\n      jumpi\n        /* \"#utility.yul\":4574:4653   */\n      tag_144\n      tag_46\n      jump\t// in\n    tag_144:\n        /* \"#utility.yul\":4538:4655   */\n    tag_143:\n        /* \"#utility.yul\":4679:4742   */\n      tag_145\n        /* \"#utility.yul\":4734:4741   */\n      dup5\n        /* \"#utility.yul\":4725:4731   */\n      dup3\n        /* \"#utility.yul\":4714:4723   */\n      dup6\n        /* \"#utility.yul\":4710:4732   */\n      add\n        /* \"#utility.yul\":4679:4742   */\n      tag_62\n      jump\t// in\n    tag_145:\n        /* \"#utility.yul\":4669:4742   */\n      swap2\n      pop\n        /* \"#utility.yul\":4465:4752   */\n      pop\n        /* \"#utility.yul\":4250:4759   */\n      swap3\n      swap2\n      pop\n      pop\n      jump\t// out\n        /* \"#utility.yul\":4765:5094   */\n    tag_21:\n        /* \"#utility.yul\":4824:4830   */\n      0x00\n        /* \"#utility.yul\":4873:4875   */\n      0x20\n        /* \"#utility.yul\":4861:4870   */\n      dup3\n        /* \"#utility.yul\":4852:4859   */\n      dup5\n        /* \"#utility.yul\":4848:4871   */\n      sub\n        /* \"#utility.yul\":4844:4876   */\n      slt\n        /* \"#utility.yul\":4841:4960   */\n      iszero\n      tag_147\n      jumpi\n        /* \"#utility.yul\":4879:4958   */\n      tag_148\n      tag_45\n      jump\t// in\n    tag_148:\n        /* \"#utility.yul\":4841:4960   */\n    tag_147:\n        /* \"#utility.yul\":4999:5000   */\n      0x00\n        /* \"#utility.yul\":5024:5077   */\n      tag_149\n        /* \"#utility.yul\":5069:5076   */\n      dup5\n        /* \"#utility.yul\":5060:5066   */\n      dup3\n        /* \"#utility.yul\":5049:5058   */\n      dup6\n        /* \"#utility.yul\":5045:5067   */\n      add\n        /* \"#utility.yul\":5024:5077   */\n      tag_48\n      jump\t// in\n    tag_149:\n        /* \"#utility.yul\":5014:5077   */\n      swap2\n      pop\n        /* \"#utility.yul\":4970:5087   */\n      pop\n        /* \"#utility.yul\":4765:5094   */\n      swap3\n      swap2\n      pop\n      pop\n      jump\t// out\n        /* \"#utility.yul\":5100:5199   */\n    tag_63:\n        /* \"#utility.yul\":5152:5158   */\n      0x00\n        /* \"#utility.yul\":5186:5191   */\n      dup2\n        /* \"#utility.yul\":5180:5192   */\n      mload\n        /* \"#utility.yul\":5170:5192   */\n      swap1\n      pop\n        /* \"#utility.yul\":5100:5199   */\n      swap2\n      swap1\n      pop\n      jump\t// out\n        /* \"#utility.yul\":5205:5374   */\n    tag_64:\n        /* \"#utility.yul\":5289:5300   */\n      0x00\n        /* \"#utility.yul\":5323:5329   */\n      dup3\n        /* \"#utility.yul\":5318:5321   */\n      dup3\n        /* \"#utility.yul\":5311:5330   */\n      mstore\n        /* \"#utility.yul\":5363:5367   */\n      0x20\n        /* \"#utility.yul\":5358:5361   */\n      dup3\n        /* \"#utility.yul\":5354:5368   */\n      add\n        /* \"#utility.yul\":5339:5368   */\n      swap1\n      pop\n        /* \"#utility.yul\":5205:5374   */\n      swap3\n      swap2\n      pop\n      pop\n      jump\t// out\n        /* \"#utility.yul\":5380:5519   */\n    tag_65:\n        /* \"#utility.yul\":5469:5475   */\n      dup3\n        /* \"#utility.yul\":5464:5467   */\n      dup2\n        /* \"#utility.yul\":5459:5462   */\n      dup4\n        /* \"#utility.yul\":5453:5476   */\n      mcopy\n        /* \"#utility.yul\":5510:5511   */\n      0x00\n        /* \"#utility.yul\":5501:5507   */\n      dup4\n        /* \"#utility.yul\":5496:5499   */\n      dup4\n        /* \"#utility.yul\":5492:5508   */\n      add\n        /* \"#utility.yul\":5485:5512   */\n      mstore\n        /* \"#utility.yul\":5380:5519   */\n      pop\n      pop\n      pop\n      jump\t// out\n        /* \"#utility.yul\":5525:5902   */\n    tag_66:\n        /* \"#utility.yul\":5613:5616   */\n      0x00\n        /* \"#utility.yul\":5641:5680   */\n      tag_154\n        /* \"#utility.yul\":5674:5679   */\n      dup3\n        /* \"#utility.yul\":5641:5680   */\n      tag_63\n      jump\t// in\n    tag_154:\n        /* \"#utility.yul\":5696:5767   */\n      tag_155\n        /* \"#utility.yul\":5760:5766   */\n      dup2\n        /* \"#utility.yul\":5755:5758   */\n      dup6\n        /* \"#utility.yul\":5696:5767   */\n      tag_64\n      jump\t// in\n    tag_155:\n        /* \"#utility.yul\":5689:5767   */\n      swap4\n      pop\n        /* \"#utility.yul\":5776:5841   */\n      tag_156\n        /* \"#utility.yul\":5834:5840   */\n      dup2\n        /* \"#utility.yul\":5829:5832   */\n      dup6\n        /* \"#utility.yul\":5822:5826   */\n      0x20\n        /* \"#utility.yul\":5815:5820   */\n      dup7\n        /* \"#utility.yul\":5811:5827   */\n      add\n        /* \"#utility.yul\":5776:5841   */\n      tag_65\n      jump\t// in\n    tag_156:\n        /* \"#utility.yul\":5866:5895   */\n      tag_157\n        /* \"#utility.yul\":5888:5894   */\n      dup2\n        /* \"#utility.yul\":5866:5895   */\n      tag_55\n      jump\t// in\n    tag_157:\n        /* \"#utility.yul\":5861:5864   */\n      dup5\n        /* \"#utility.yul\":5857:5896   */\n      add\n        /* \"#utility.yul\":5850:5896   */\n      swap2\n      pop\n        /* \"#utility.yul\":5617:5902   */\n      pop\n        /* \"#utility.yul\":5525:5902   */\n      swap3\n      swap2\n      pop\n      pop\n      jump\t// out\n        /* \"#utility.yul\":5908:6026   */\n    tag_67:\n        /* \"#utility.yul\":5995:6019   */\n      tag_159\n        /* \"#utility.yul\":6013:6018   */\n      dup2\n        /* \"#utility.yul\":5995:6019   */\n      tag_50\n      jump\t// in\n    tag_159:\n        /* \"#utility.yul\":5990:5993   */\n      dup3\n        /* \"#utility.yul\":5983:6020   */\n      mstore\n        /* \"#utility.yul\":5908:6026   */\n      pop\n      pop\n      jump\t// out\n        /* \"#utility.yul\":6032:6565   */\n    tag_24:\n        /* \"#utility.yul\":6201:6205   */\n      0x00\n        /* \"#utility.yul\":6239:6241   */\n      0x60\n        /* \"#utility.yul\":6228:6237   */\n      dup3\n        /* \"#utility.yul\":6224:6242   */\n      add\n        /* \"#utility.yul\":6216:6242   */\n      swap1\n      pop\n        /* \"#utility.yul\":6252:6323   */\n      tag_161\n        /* \"#utility.yul\":6320:6321   */\n      0x00\n        /* \"#utility.yul\":6309:6318   */\n      dup4\n        /* \"#utility.yul\":6305:6322   */\n      add\n        /* \"#utility.yul\":6296:6302   */\n      dup7\n        /* \"#utility.yul\":6252:6323   */\n      tag_43\n      jump\t// in\n    tag_161:\n        /* \"#utility.yul\":6370:6379   */\n      dup2\n        /* \"#utility.yul\":6364:6368   */\n      dup2\n        /* \"#utility.yul\":6360:6380   */\n      sub\n        /* \"#utility.yul\":6355:6357   */\n      0x20\n        /* \"#utility.yul\":6344:6353   */\n      dup4\n        /* \"#utility.yul\":6340:6358   */\n      add\n        /* \"#utility.yul\":6333:6381   */\n      mstore\n        /* \"#utility.yul\":6398:6476   */\n      tag_162\n        /* \"#utility.yul\":6471:6475   */\n      dup2\n        /* \"#utility.yul\":6462:6468   */\n      dup6\n        /* \"#utility.yul\":6398:6476   */\n      tag_66\n      jump\t// in\n    tag_162:\n        /* \"#utility.yul\":6390:6476   */\n      swap1\n      pop\n        /* \"#utility.yul\":6486:6558   */\n      tag_163\n        /* \"#utility.yul\":6554:6556   */\n      0x40\n        /* \"#utility.yul\":6543:6552   */\n      dup4\n        /* \"#utility.yul\":6539:6557   */\n      add\n        /* \"#utility.yul\":6530:6536   */\n      dup5\n        /* \"#utility.yul\":6486:6558   */\n      tag_67\n      jump\t// in\n    tag_163:\n        /* \"#utility.yul\":6032:6565   */\n      swap5\n      swap4\n      pop\n      pop\n      pop\n      pop\n      jump\t// out\n        /* \"#utility.yul\":6571:6795   */\n    tag_68:\n        /* \"#utility.yul\":6711:6745   */\n      0x4f6e6c7920746865206f776e65722063616e2063616c6c20746869732066756e\n        /* \"#utility.yul\":6707:6708   */\n      0x00\n        /* \"#utility.yul\":6699:6705   */\n      dup3\n        /* \"#utility.yul\":6695:6709   */\n      add\n        /* \"#utility.yul\":6688:6746   */\n      mstore\n        /* \"#utility.yul\":6780:6787   */\n      0x6374696f6e000000000000000000000000000000000000000000000000000000\n        /* \"#utility.yul\":6775:6777   */\n      0x20\n        /* \"#utility.yul\":6767:6773   */\n      dup3\n        /* \"#utility.yul\":6763:6778   */\n      add\n        /* \"#utility.yul\":6756:6788   */\n      mstore\n        /* \"#utility.yul\":6571:6795   */\n      pop\n      jump\t// out\n        /* \"#utility.yul\":6801:7167   */\n    tag_69:\n        /* \"#utility.yul\":6943:6946   */\n      0x00\n        /* \"#utility.yul\":6964:7031   */\n      tag_166\n        /* \"#utility.yul\":7028:7030   */\n      0x25\n        /* \"#utility.yul\":7023:7026   */\n      dup4\n        /* \"#utility.yul\":6964:7031   */\n      tag_64\n      jump\t// in\n    tag_166:\n        /* \"#utility.yul\":6957:7031   */\n      swap2\n      pop\n        /* \"#utility.yul\":7040:7133   */\n      tag_167\n        /* \"#utility.yul\":7129:7132   */\n      dup3\n        /* \"#utility.yul\":7040:7133   */\n      tag_68\n      jump\t// in\n    tag_167:\n        /* \"#utility.yul\":7158:7160   */\n      0x40\n        /* \"#utility.yul\":7153:7156   */\n      dup3\n        /* \"#utility.yul\":7149:7161   */\n      add\n        /* \"#utility.yul\":7142:7161   */\n      swap1\n      pop\n        /* \"#utility.yul\":6801:7167   */\n      swap2\n      swap1\n      pop\n      jump\t// out\n        /* \"#utility.yul\":7173:7592   */\n    tag_28:\n        /* \"#utility.yul\":7339:7343   */\n      0x00\n        /* \"#utility.yul\":7377:7379   */\n      0x20\n        /* \"#utility.yul\":7366:7375   */\n      dup3\n        /* \"#utility.yul\":7362:7380   */\n      add\n        /* \"#utility.yul\":7354:7380   */\n      swap1\n      pop\n        /* \"#utility.yul\":7426:7435   */\n      dup2\n        /* \"#utility.yul\":7420:7424   */\n      dup2\n        /* \"#utility.yul\":7416:7436   */\n      sub\n        /* \"#utility.yul\":7412:7413   */\n      0x00\n        /* \"#utility.yul\":7401:7410   */\n      dup4\n        /* \"#utility.yul\":7397:7414   */\n      add\n        /* \"#utility.yul\":7390:7437   */\n      mstore\n        /* \"#utility.yul\":7454:7585   */\n      tag_169\n        /* \"#utility.yul\":7580:7584   */\n      dup2\n        /* \"#utility.yul\":7454:7585   */\n      tag_69\n      jump\t// in\n    tag_169:\n        /* \"#utility.yul\":7446:7585   */\n      swap1\n      pop\n        /* \"#utility.yul\":7173:7592   */\n      swap2\n      swap1\n      pop\n      jump\t// out\n        /* \"#utility.yul\":7598:7778   */\n    tag_70:\n        /* \"#utility.yul\":7646:7723   */\n      0x4e487b7100000000000000000000000000000000000000000000000000000000\n        /* \"#utility.yul\":7643:7644   */\n      0x00\n        /* \"#utility.yul\":7636:7724   */\n      mstore\n        /* \"#utility.yul\":7743:7747   */\n      0x22\n        /* \"#utility.yul\":7740:7741   */\n      0x04\n        /* \"#utility.yul\":7733:7748   */\n      mstore\n        /* \"#utility.yul\":7767:7771   */\n      0x24\n        /* \"#utility.yul\":7764:7765   */\n      0x00\n        /* \"#utility.yul\":7757:7772   */\n      revert\n        /* \"#utility.yul\":7784:8104   */\n    tag_37:\n        /* \"#utility.yul\":7828:7834   */\n      0x00\n        /* \"#utility.yul\":7865:7866   */\n      0x02\n        /* \"#utility.yul\":7859:7863   */\n      dup3\n        /* \"#utility.yul\":7855:7867   */\n      div\n        /* \"#utility.yul\":7845:7867   */\n      swap1\n      pop\n        /* \"#utility.yul\":7912:7913   */\n      0x01\n        /* \"#utility.yul\":7906:7910   */\n      dup3\n        /* \"#utility.yul\":7902:7914   */\n      and\n        /* \"#utility.yul\":7933:7951   */\n      dup1\n        /* \"#utility.yul\":7923:8004   */\n      tag_172\n      jumpi\n        /* \"#utility.yul\":7989:7993   */\n      0x7f\n        /* \"#utility.yul\":7981:7987   */\n      dup3\n        /* \"#utility.yul\":7977:7994   */\n      and\n        /* \"#utility.yul\":7967:7994   */\n      swap2\n      pop\n        /* \"#utility.yul\":7923:8004   */\n    tag_172:\n        /* \"#utility.yul\":8051:8053   */\n      0x20\n        /* \"#utility.yul\":8043:8049   */\n      dup3\n        /* \"#utility.yul\":8040:8054   */\n      lt\n        /* \"#utility.yul\":8020:8038   */\n      dup2\n        /* \"#utility.yul\":8017:8055   */\n      sub\n        /* \"#utility.yul\":8014:8098   */\n      tag_173\n      jumpi\n        /* \"#utility.yul\":8070:8088   */\n      tag_174\n      tag_70\n      jump\t// in\n    tag_174:\n        /* \"#utility.yul\":8014:8098   */\n    tag_173:\n        /* \"#utility.yul\":7835:8104   */\n      pop\n        /* \"#utility.yul\":7784:8104   */\n      swap2\n      swap1\n      pop\n      jump\t// out\n        /* \"#utility.yul\":8110:8251   */\n    tag_71:\n        /* \"#utility.yul\":8159:8163   */\n      0x00\n        /* \"#utility.yul\":8182:8185   */\n      dup2\n        /* \"#utility.yul\":8174:8185   */\n      swap1\n      pop\n        /* \"#utility.yul\":8205:8208   */\n      dup2\n        /* \"#utility.yul\":8202:8203   */\n      0x00\n        /* \"#utility.yul\":8195:8209   */\n      mstore\n        /* \"#utility.yul\":8239:8243   */\n      0x20\n        /* \"#utility.yul\":8236:8237   */\n      0x00\n        /* \"#utility.yul\":8226:8244   */\n      keccak256\n        /* \"#utility.yul\":8218:8244   */\n      swap1\n      pop\n        /* \"#utility.yul\":8110:8251   */\n      swap2\n      swap1\n      pop\n      jump\t// out\n        /* \"#utility.yul\":8257:8350   */\n    tag_72:\n        /* \"#utility.yul\":8294:8300   */\n      0x00\n        /* \"#utility.yul\":8341:8343   */\n      0x20\n        /* \"#utility.yul\":8336:8338   */\n      0x1f\n        /* \"#utility.yul\":8329:8334   */\n      dup4\n        /* \"#utility.yul\":8325:8339   */\n      add\n        /* \"#utility.yul\":8321:8344   */\n      div\n        /* \"#utility.yul\":8311:8344   */\n      swap1\n      pop\n        /* \"#utility.yul\":8257:8350   */\n      swap2\n      swap1\n      pop\n      jump\t// out\n        /* \"#utility.yul\":8356:8463   */\n    tag_73:\n        /* \"#utility.yul\":8400:8408   */\n      0x00\n        /* \"#utility.yul\":8450:8455   */\n      dup3\n        /* \"#utility.yul\":8444:8448   */\n      dup3\n        /* \"#utility.yul\":8440:8456   */\n      shl\n        /* \"#utility.yul\":8419:8456   */\n      swap1\n      pop\n        /* \"#utility.yul\":8356:8463   */\n      swap3\n      swap2\n      pop\n      pop\n      jump\t// out\n        /* \"#utility.yul\":8469:8862   */\n    tag_74:\n        /* \"#utility.yul\":8538:8544   */\n      0x00\n        /* \"#utility.yul\":8588:8589   */\n      0x08\n        /* \"#utility.yul\":8576:8586   */\n      dup4\n        /* \"#utility.yul\":8572:8590   */\n      mul\n        /* \"#utility.yul\":8611:8708   */\n      tag_179\n        /* \"#utility.yul\":8641:8707   */\n      0xffffffffffffffffffffffffffffffffffffffffffffffffffffffffffffffff\n        /* \"#utility.yul\":8630:8639   */\n      dup3\n        /* \"#utility.yul\":8611:8708   */\n      tag_73\n      jump\t// in\n    tag_179:\n        /* \"#utility.yul\":8729:8768   */\n      tag_180\n        /* \"#utility.yul\":8759:8767   */\n      dup7\n        /* \"#utility.yul\":8748:8757   */\n      dup4\n        /* \"#utility.yul\":8729:8768   */\n      tag_73\n      jump\t// in\n    tag_180:\n        /* \"#utility.yul\":8717:8768   */\n      swap6\n      pop\n        /* \"#utility.yul\":8801:8805   */\n      dup1\n        /* \"#utility.yul\":8797:8806   */\n      not\n        /* \"#utility.yul\":8790:8795   */\n      dup5\n        /* \"#utility.yul\":8786:8807   */\n      and\n        /* \"#utility.yul\":8777:8807   */\n      swap4\n      pop\n        /* \"#utility.yul\":8850:8854   */\n      dup1\n        /* \"#utility.yul\":8840:8848   */\n      dup7\n        /* \"#utility.yul\":8836:8855   */\n      and\n        /* \"#utility.yul\":8829:8834   */\n      dup5\n        /* \"#utility.yul\":8826:8856   */\n      or\n        /* \"#utility.yul\":8816:8856   */\n      swap3\n      pop\n        /* \"#utility.yul\":8545:8862   */\n      pop\n      pop\n        /* \"#utility.yul\":8469:8862   */\n      swap4\n      swap3\n      pop\n      pop\n      pop\n      jump\t// out\n        /* \"#utility.yul\":8868:8928   */\n    tag_75:\n        /* \"#utility.yul\":8896:8899   */\n      0x00\n        /* \"#utility.yul\":8917:8922   */\n      dup2\n        /* \"#utility.yul\":8910:8922   */\n      swap1\n      pop\n        /* \"#utility.yul\":8868:8928   */\n      swap2\n      swap1\n      pop\n      jump\t// out\n        /* \"#utility.yul\":8934:9076   */\n    tag_76:\n        /* \"#utility.yul\":8984:8993   */\n      0x00\n        /* \"#utility.yul\":9017:9070   */\n      tag_183\n        /* \"#utility.yul\":9035:9069   */\n      tag_184\n        /* \"#utility.yul\":9044:9068   */\n      tag_185\n        /* \"#utility.yul\":9062:9067   */\n      dup5\n        /* \"#utility.yul\":9044:9068   */\n      tag_42\n      jump\t// in\n    tag_185:\n        /* \"#utility.yul\":9035:9069   */\n      tag_75\n      jump\t// in\n    tag_184:\n        /* \"#utility.yul\":9017:9070   */\n      tag_42\n      jump\t// in\n    tag_183:\n        /* \"#utility.yul\":9004:9070   */\n      swap1\n      pop\n        /* \"#utility.yul\":8934:9076   */\n      swap2\n      swap1\n      pop\n      jump\t// out\n        /* \"#utility.yul\":9082:9157   */\n    tag_77:\n        /* \"#utility.yul\":9125:9128   */\n      0x00\n        /* \"#utility.yul\":9146:9151   */\n      dup2\n        /* \"#utility.yul\":9139:9151   */\n      swap1\n      pop\n        /* \"#utility.yul\":9082:9157   */\n      swap2\n      swap1\n      pop\n      jump\t// out\n        /* \"#utility.yul\":9163:9432   */\n    tag_78:\n        /* \"#utility.yul\":9273:9312   */\n      tag_188\n        /* \"#utility.yul\":9304:9311   */\n      dup4\n        /* \"#utility.yul\":9273:9312   */\n      tag_76\n      jump\t// in\n    tag_188:\n        /* \"#utility.yul\":9334:9425   */\n      tag_189\n        /* \"#utility.yul\":9383:9424   */\n      tag_190\n        /* \"#utility.yul\":9407:9423   */\n      dup3\n        /* \"#utility.yul\":9383:9424   */\n      tag_77\n      jump\t// in\n    tag_190:\n        /* \"#utility.yul\":9375:9381   */\n      dup5\n        /* \"#utility.yul\":9368:9372   */\n      dup5\n        /* \"#utility.yul\":9362:9373   */\n      sload\n        /* \"#utility.yul\":9334:9425   */\n      tag_74\n      jump\t// in\n    tag_189:\n        /* \"#utility.yul\":9328:9332   */\n      dup3\n        /* \"#utility.yul\":9321:9426   */\n      sstore\n        /* \"#utility.yul\":9239:9432   */\n      pop\n        /* \"#utility.yul\":9163:9432   */\n      pop\n      pop\n      pop\n      jump\t// out\n        /* \"#utility.yul\":9438:9511   */\n    tag_79:\n        /* \"#utility.yul\":9483:9486   */\n      0x00\n        /* \"#utility.yul\":9504:9505   */\n      0x00\n        /* \"#utility.yul\":9497:9505   */\n      swap1\n      pop\n        /* \"#utility.yul\":9438:9511   */\n      swap1\n      jump\t// out\n        /* \"#utility.yul\":9517:9706   */\n    tag_80:\n        /* \"#utility.yul\":9594:9626   */\n      tag_193\n      tag_79\n      jump\t// in\n    tag_193:\n        /* \"#utility.yul\":9635:9700   */\n      tag_194\n        /* \"#utility.yul\":9693:9699   */\n      dup2\n        /* \"#utility.yul\":9685:9691   */\n      dup5\n        /* \"#utility.yul\":9679:9683   */\n      dup5\n        /* \"#utility.yul\":9635:9700   */\n      tag_78\n      jump\t// in\n    tag_194:\n        /* \"#utility.yul\":9570:9706   */\n      pop\n        /* \"#utility.yul\":9517:9706   */\n      pop\n      pop\n      jump\t// out\n        /* \"#utility.yul\":9712:9898   */\n    tag_81:\n        /* \"#utility.yul\":9772:9892   */\n    tag_196:\n        /* \"#utility.yul\":9789:9792   */\n      dup2\n        /* \"#utility.yul\":9782:9787   */\n      dup2\n        /* \"#utility.yul\":9779:9793   */\n      lt\n        /* \"#utility.yul\":9772:9892   */\n      iszero\n      tag_198\n      jumpi\n        /* \"#utility.yul\":9843:9882   */\n      tag_199\n        /* \"#utility.yul\":9880:9881   */\n      0x00\n        /* \"#utility.yul\":9873:9878   */\n      dup3\n        /* \"#utility.yul\":9843:9882   */\n      tag_80\n      jump\t// in\n    tag_199:\n        /* \"#utility.yul\":9816:9817   */\n      0x01\n        /* \"#utility.yul\":9809:9814   */\n      dup2\n        /* \"#utility.yul\":9805:9818   */\n      add\n        /* \"#utility.yul\":9796:9818   */\n      swap1\n      pop\n        /* \"#utility.yul\":9772:9892   */\n      jump(tag_196)\n    tag_198:\n        /* \"#utility.yul\":9712:9898   */\n      pop\n      pop\n      jump\t// out\n        /* \"#utility.yul\":9904:10447   */\n    tag_82:\n        /* \"#utility.yul\":10005:10007   */\n      0x1f\n        /* \"#utility.yul\":10000:10003   */\n      dup3\n        /* \"#utility.yul\":9997:10008   */\n      gt\n        /* \"#utility.yul\":9994:10440   */\n      iszero\n      tag_201\n      jumpi\n        /* \"#utility.yul\":10039:10077   */\n      tag_202\n        /* \"#utility.yul\":10071:10076   */\n      dup2\n        /* \"#utility.yul\":10039:10077   */\n      tag_71\n      jump\t// in\n    tag_202:\n        /* \"#utility.yul\":10123:10152   */\n      tag_203\n        /* \"#utility.yul\":10141:10151   */\n      dup5\n        /* \"#utility.yul\":10123:10152   */\n      tag_72\n      jump\t// in\n    tag_203:\n        /* \"#utility.yul\":10113:10121   */\n      dup2\n        /* \"#utility.yul\":10109:10153   */\n      add\n        /* \"#utility.yul\":10306:10308   */\n      0x20\n        /* \"#utility.yul\":10294:10304   */\n      dup6\n        /* \"#utility.yul\":10291:10309   */\n      lt\n        /* \"#utility.yul\":10288:10337   */\n      iszero\n      tag_204\n      jumpi\n        /* \"#utility.yul\":10327:10335   */\n      dup2\n        /* \"#utility.yul\":10312:10335   */\n      swap1\n      pop\n        /* \"#utility.yul\":10288:10337   */\n    tag_204:\n        /* \"#utility.yul\":10350:10430   */\n      tag_205\n        /* \"#utility.yul\":10406:10428   */\n      tag_206\n        /* \"#utility.yul\":10424:10427   */\n      dup6\n        /* \"#utility.yul\":10406:10428   */\n      tag_72\n      jump\t// in\n    tag_206:\n        /* \"#utility.yul\":10396:10404   */\n      dup4\n        /* \"#utility.yul\":10392:10429   */\n      add\n        /* \"#utility.yul\":10379:10390   */\n      dup3\n        /* \"#utility.yul\":10350:10430   */\n      tag_81\n      jump\t// in\n    tag_205:\n        /* \"#utility.yul\":10009:10440   */\n      pop\n      pop\n        /* \"#utility.yul\":9994:10440   */\n    tag_201:\n        /* \"#utility.yul\":9904:10447   */\n      pop\n      pop\n      pop\n      jump\t// out\n        /* \"#utility.yul\":10453:10570   */\n    tag_83:\n        /* \"#utility.yul\":10507:10515   */\n      0x00\n        /* \"#utility.yul\":10557:10562   */\n      dup3\n        /* \"#utility.yul\":10551:10555   */\n      dup3\n        /* \"#utility.yul\":10547:10563   */\n      shr\n        /* \"#utility.yul\":10526:10563   */\n      swap1\n      pop\n        /* \"#utility.yul\":10453:10570   */\n      swap3\n      swap2\n      pop\n      pop\n      jump\t// out\n        /* \"#utility.yul\":10576:10745   */\n    tag_84:\n        /* \"#utility.yul\":10620:10626   */\n      0x00\n        /* \"#utility.yul\":10653:10704   */\n      tag_209\n        /* \"#utility.yul\":10701:10702   */\n      0x00\n        /* \"#utility.yul\":10697:10703   */\n      not\n        /* \"#utility.yul\":10689:10694   */\n      dup5\n        /* \"#utility.yul\":10686:10687   */\n      0x08\n        /* \"#utility.yul\":10682:10695   */\n      mul\n        /* \"#utility.yul\":10653:10704   */\n      tag_83\n      jump\t// in\n    tag_209:\n        /* \"#utility.yul\":10649:10705   */\n      not\n        /* \"#utility.yul\":10734:10738   */\n      dup1\n        /* \"#utility.yul\":10728:10732   */\n      dup4\n        /* \"#utility.yul\":10724:10739   */\n      and\n        /* \"#utility.yul\":10714:10739   */\n      swap2\n      pop\n        /* \"#utility.yul\":10627:10745   */\n      pop\n        /* \"#utility.yul\":10576:10745   */\n      swap3\n      swap2\n      pop\n      pop\n      jump\t// out\n        /* \"#utility.yul\":10750:11045   */\n    tag_85:\n        /* \"#utility.yul\":10826:10830   */\n      0x00\n        /* \"#utility.yul\":10972:11001   */\n      tag_211\n        /* \"#utility.yul\":10997:11000   */\n      dup4\n        /* \"#utility.yul\":10991:10995   */\n      dup4\n        /* \"#utility.yul\":10972:11001   */\n      tag_84\n      jump\t// in\n    tag_211:\n        /* \"#utility.yul\":10964:11001   */\n      swap2\n      pop\n        /* \"#utility.yul\":11034:11037   */\n      dup3\n        /* \"#utility.yul\":11031:11032   */\n      0x02\n        /* \"#utility.yul\":11027:11038   */\n      mul\n        /* \"#utility.yul\":11021:11025   */\n      dup3\n        /* \"#utility.yul\":11018:11039   */\n      or\n        /* \"#utility.yul\":11010:11039   */\n      swap1\n      pop\n        /* \"#utility.yul\":10750:11045   */\n      swap3\n      swap2\n      pop\n      pop\n      jump\t// out\n        /* \"#utility.yul\":11050:12445   */\n    tag_31:\n        /* \"#utility.yul\":11167:11204   */\n      tag_213\n        /* \"#utility.yul\":11200:11203   */\n      dup3\n        /* \"#utility.yul\":11167:11204   */\n      tag_63\n      jump\t// in\n    tag_213:\n        /* \"#utility.yul\":11269:11287   */\n      0xffffffffffffffff\n        /* \"#utility.yul\":11261:11267   */\n      dup2\n        /* \"#utility.yul\":11258:11288   */\n      gt\n        /* \"#utility.yul\":11255:11311   */\n      iszero\n      tag_214\n      jumpi\n        /* \"#utility.yul\":11291:11309   */\n      tag_215\n      tag_56\n      jump\t// in\n    tag_215:\n        /* \"#utility.yul\":11255:11311   */\n    tag_214:\n        /* \"#utility.yul\":11335:11373   */\n      tag_216\n        /* \"#utility.yul\":11367:11371   */\n      dup3\n        /* \"#utility.yul\":11361:11372   */\n      sload\n        /* \"#utility.yul\":11335:11373   */\n      tag_37\n      jump\t// in\n    tag_216:\n        /* \"#utility.yul\":11420:11487   */\n      tag_217\n        /* \"#utility.yul\":11480:11486   */\n      dup3\n        /* \"#utility.yul\":11472:11478   */\n      dup3\n        /* \"#utility.yul\":11466:11470   */\n      dup6\n        /* \"#utility.yul\":11420:11487   */\n      tag_82\n      jump\t// in\n    tag_217:\n        /* \"#utility.yul\":11514:11515   */\n      0x00\n        /* \"#utility.yul\":11538:11542   */\n      0x20\n        /* \"#utility.yul\":11525:11542   */\n      swap1\n      pop\n        /* \"#utility.yul\":11570:11572   */\n      0x1f\n        /* \"#utility.yul\":11562:11568   */\n      dup4\n        /* \"#utility.yul\":11559:11573   */\n      gt\n        /* \"#utility.yul\":11587:11588   */\n      0x01\n        /* \"#utility.yul\":11582:12200   */\n      dup2\n      eq\n      tag_219\n      jumpi\n        /* \"#utility.yul\":12244:12245   */\n      0x00\n        /* \"#utility.yul\":12261:12267   */\n      dup5\n        /* \"#utility.yul\":12258:12335   */\n      iszero\n      tag_220\n      jumpi\n        /* \"#utility.yul\":12310:12319   */\n      dup3\n        /* \"#utility.yul\":12305:12308   */\n      dup8\n        /* \"#utility.yul\":12301:12320   */\n      add\n        /* \"#utility.yul\":12295:12321   */\n      mload\n        /* \"#utility.yul\":12286:12321   */\n      swap1\n      pop\n        /* \"#utility.yul\":12258:12335   */\n    tag_220:\n        /* \"#utility.yul\":12361:12428   */\n      tag_221\n        /* \"#utility.yul\":12421:12427   */\n      dup6\n        /* \"#utility.yul\":12414:12419   */\n      dup3\n        /* \"#utility.yul\":12361:12428   */\n      tag_85\n      jump\t// in\n    tag_221:\n        /* \"#utility.yul\":12355:12359   */\n      dup7\n        /* \"#utility.yul\":12348:12429   */\n      sstore\n        /* \"#utility.yul\":12217:12439   */\n      pop\n        /* \"#utility.yul\":11552:12439   */\n      jump(tag_218)\n        /* \"#utility.yul\":11582:12200   */\n    tag_219:\n        /* \"#utility.yul\":11634:11638   */\n      0x1f\n        /* \"#utility.yul\":11630:11639   */\n      not\n        /* \"#utility.yul\":11622:11628   */\n      dup5\n        /* \"#utility.yul\":11618:11640   */\n      and\n        /* \"#utility.yul\":11668:11705   */\n      tag_222\n        /* \"#utility.yul\":11700:11704   */\n      dup7\n        /* \"#utility.yul\":11668:11705   */\n      tag_71\n      jump\t// in\n    tag_222:\n        /* \"#utility.yul\":11727:11728   */\n      0x00\n        /* \"#utility.yul\":11741:11949   */\n    tag_223:\n        /* \"#utility.yul\":11755:11762   */\n      dup3\n        /* \"#utility.yul\":11752:11753   */\n      dup2\n        /* \"#utility.yul\":11749:11763   */\n      lt\n        /* \"#utility.yul\":11741:11949   */\n      iszero\n      tag_225\n      jumpi\n        /* \"#utility.yul\":11834:11843   */\n      dup5\n        /* \"#utility.yul\":11829:11832   */\n      dup10\n        /* \"#utility.yul\":11825:11844   */\n      add\n        /* \"#utility.yul\":11819:11845   */\n      mload\n        /* \"#utility.yul\":11811:11817   */\n      dup3\n        /* \"#utility.yul\":11804:11846   */\n      sstore\n        /* \"#utility.yul\":11885:11886   */\n      0x01\n        /* \"#utility.yul\":11877:11883   */\n      dup3\n        /* \"#utility.yul\":11873:11887   */\n      add\n        /* \"#utility.yul\":11863:11887   */\n      swap2\n      pop\n        /* \"#utility.yul\":11932:11934   */\n      0x20\n        /* \"#utility.yul\":11921:11930   */\n      dup6\n        /* \"#utility.yul\":11917:11935   */\n      add\n        /* \"#utility.yul\":11904:11935   */\n      swap5\n      pop\n        /* \"#utility.yul\":11778:11782   */\n      0x20\n        /* \"#utility.yul\":11775:11776   */\n      dup2\n        /* \"#utility.yul\":11771:11783   */\n      add\n        /* \"#utility.yul\":11766:11783   */\n      swap1\n      pop\n        /* \"#utility.yul\":11741:11949   */\n      jump(tag_223)\n    tag_225:\n        /* \"#utility.yul\":11977:11983   */\n      dup7\n        /* \"#utility.yul\":11968:11975   */\n      dup4\n        /* \"#utility.yul\":11965:11984   */\n      lt\n        /* \"#utility.yul\":11962:12141   */\n      iszero\n      tag_226\n      jumpi\n        /* \"#utility.yul\":12035:12044   */\n      dup5\n        /* \"#utility.yul\":12030:12033   */\n      dup10\n        /* \"#utility.yul\":12026:12045   */\n      add\n        /* \"#utility.yul\":12020:12046   */\n      mload\n        /* \"#utility.yul\":12078:12126   */\n      tag_227\n        /* \"#utility.yul\":12120:12124   */\n      0x1f\n        /* \"#utility.yul\":12112:12118   */\n      dup10\n        /* \"#utility.yul\":12108:12125   */\n      and\n        /* \"#utility.yul\":12097:12106   */\n      dup3\n        /* \"#utility.yul\":12078:12126   */\n      tag_84\n      jump\t// in\n    tag_227:\n        /* \"#utility.yul\":12070:12076   */\n      dup4\n        /* \"#utility.yul\":12063:12127   */\n      sstore\n        /* \"#utility.yul\":11985:12141   */\n      pop\n        /* \"#utility.yul\":11962:12141   */\n    tag_226:\n        /* \"#utility.yul\":12187:12188   */\n      0x01\n        /* \"#utility.yul\":12183:12184   */\n      0x02\n        /* \"#utility.yul\":12175:12181   */\n      dup9\n        /* \"#utility.yul\":12171:12185   */\n      mul\n        /* \"#utility.yul\":12167:12189   */\n      add\n        /* \"#utility.yul\":12161:12165   */\n      dup9\n        /* \"#utility.yul\":12154:12190   */\n      sstore\n        /* \"#utility.yul\":11589:12200   */\n      pop\n      pop\n      pop\n        /* \"#utility.yul\":11552:12439   */\n    tag_218:\n      pop\n        /* \"#utility.yul\":11142:12445   */\n      pop\n      pop\n      pop\n        /* \"#utility.yul\":11050:12445   */\n      pop\n      pop\n      jump\t// out\n        /* \"#utility.yul\":12451:12764   */\n    tag_33:\n        /* \"#utility.yul\":12564:12568   */\n      0x00\n        /* \"#utility.yul\":12602:12604   */\n      0x20\n        /* \"#utility.yul\":12591:12600   */\n      dup3\n        /* \"#utility.yul\":12587:12605   */\n      add\n        /* \"#utility.yul\":12579:12605   */\n      swap1\n      pop\n        /* \"#utility.yul\":12651:12660   */\n      dup2\n        /* \"#utility.yul\":12645:12649   */\n      dup2\n        /* \"#utility.yul\":12641:12661   */\n      sub\n        /* \"#utility.yul\":12637:12638   */\n      0x00\n        /* \"#utility.yul\":12626:12635   */\n      dup4\n        /* \"#utility.yul\":12622:12639   */\n      add\n        /* \"#utility.yul\":12615:12662   */\n      mstore\n        /* \"#utility.yul\":12679:12757   */\n      tag_229\n        /* \"#utility.yul\":12752:12756   */\n      dup2\n        /* \"#utility.yul\":12743:12749   */\n      dup5\n        /* \"#utility.yul\":12679:12757   */\n      tag_66\n      jump\t// in\n    tag_229:\n        /* \"#utility.yul\":12671:12757   */\n      swap1\n      pop\n        /* \"#utility.yul\":12451:12764   */\n      swap3\n      swap2\n      pop\n      pop\n      jump\t// out\n        /* \"#utility.yul\":12770:12950   */\n    tag_86:\n        /* \"#utility.yul\":12818:12895   */\n      0x4e487b7100000000000000000000000000000000000000000000000000000000\n        /* \"#utility.yul\":12815:12816   */\n      0x00\n        /* \"#utility.yul\":12808:12896   */\n      mstore\n        /* \"#utility.yul\":12915:12919   */\n      0x11\n        /* \"#utility.yul\":12912:12913   */\n      0x04\n        /* \"#utility.yul\":12905:12920   */\n      mstore\n        /* \"#utility.yul\":12939:12943   */\n      0x24\n        /* \"#utility.yul\":12936:12937   */\n      0x00\n        /* \"#utility.yul\":12929:12944   */\n      revert\n        /* \"#utility.yul\":12956:13189   */\n    tag_35:\n        /* \"#utility.yul\":12995:12998   */\n      0x00\n        /* \"#utility.yul\":13018:13042   */\n      tag_232\n        /* \"#utility.yul\":13036:13041   */\n      dup3\n        /* \"#utility.yul\":13018:13042   */\n      tag_42\n      jump\t// in\n    tag_232:\n        /* \"#utility.yul\":13009:13042   */\n      swap2\n      pop\n        /* \"#utility.yul\":13064:13130   */\n      0xffffffffffffffffffffffffffffffffffffffffffffffffffffffffffffffff\n        /* \"#utility.yul\":13057:13062   */\n      dup3\n        /* \"#utility.yul\":13054:13131   */\n      sub\n        /* \"#utility.yul\":13051:13154   */\n      tag_233\n      jumpi\n        /* \"#utility.yul\":13134:13152   */\n      tag_234\n      tag_86\n      jump\t// in\n    tag_234:\n        /* \"#utility.yul\":13051:13154   */\n    tag_233:\n        /* \"#utility.yul\":13181:13182   */\n      0x01\n        /* \"#utility.yul\":13174:13179   */\n      dup3\n        /* \"#utility.yul\":13170:13183   */\n      add\n        /* \"#utility.yul\":13163:13183   */\n      swap1\n      pop\n        /* \"#utility.yul\":12956:13189   */\n      swap2\n      swap1\n      pop\n      jump\t// out\n\n    auxdata: 0xa2646970667358221220cd0e24979bfcef90edbdf2dece654a5ab6847a37fbc674dd41d9c9e9129aa1f964736f6c634300081e0033\n}\n",
				"bytecode": {
					"linkReferences": {},
					"object": "60806040525f6001553480156012575f5ffd5b50610ba1806100205f395ff3fe608060405234801561000f575f5ffd5b506004361061004a575f3560e01c806306661abd1461004e57806329507f731461006c5780637effb29f14610088578063bfb231d2146100a4575b5f5ffd5b6100566100d6565b6040516100639190610438565b60405180910390f35b610086600480360381019061008191906104e6565b6100dc565b005b6100a2600480360381019061009d9190610660565b610231565b005b6100be60048036038101906100b991906106a7565b610356565b6040516100cd93929190610741565b60405180910390f35b60015481565b5f5f5f8481526020019081526020015f206002015f9054906101000a900473ffffffffffffffffffffffffffffffffffffffff1690508073ffffffffffffffffffffffffffffffffffffffff163373ffffffffffffffffffffffffffffffffffffffff1614610180576040517f08c379a0000000000000000000000000000000000000000000000000000000008152600401610177906107ed565b60405180910390fd5b815f5f8581526020019081526020015f206002015f6101000a81548173ffffffffffffffffffffffffffffffffffffffff021916908373ffffffffffffffffffffffffffffffffffffffff1602179055508173ffffffffffffffffffffffffffffffffffffffff168173ffffffffffffffffffffffffffffffffffffffff16847f16b85f49bf01212961345d3016c9a531894accf62eb7680f2045d79185cc0ec060405160405180910390a4505050565b5f604051806060016040528060015481526020018381526020013373ffffffffffffffffffffffffffffffffffffffff168152509050805f5f60015481526020019081526020015f205f820151815f015560208201518160010190816102979190610a08565b506040820151816002015f6101000a81548173ffffffffffffffffffffffffffffffffffffffff021916908373ffffffffffffffffffffffffffffffffffffffff160217905550905050806040015173ffffffffffffffffffffffffffffffffffffffff16815f01517f6e25be3619376e564cfe010b907906379faef975c78ba0112d80e039a612a04f83602001516040516103339190610ad7565b60405180910390a360015f81548092919061034d90610b24565b91905055505050565b5f602052805f5260405f205f91509050805f01549080600101805461037a90610838565b80601f01602080910402602001604051908101604052809291908181526020018280546103a690610838565b80156103f15780601f106103c8576101008083540402835291602001916103f1565b820191905f5260205f20905b8154815290600101906020018083116103d457829003601f168201915b505050505090806002015f9054906101000a900473ffffffffffffffffffffffffffffffffffffffff16905083565b5f819050919050565b61043281610420565b82525050565b5f60208201905061044b5f830184610429565b92915050565b5f604051905090565b5f5ffd5b5f5ffd5b61046b81610420565b8114610475575f5ffd5b50565b5f8135905061048681610462565b92915050565b5f73ffffffffffffffffffffffffffffffffffffffff82169050919050565b5f6104b58261048c565b9050919050565b6104c5816104ab565b81146104cf575f5ffd5b50565b5f813590506104e0816104bc565b92915050565b5f5f604083850312156104fc576104fb61045a565b5b5f61050985828601610478565b925050602061051a858286016104d2565b9150509250929050565b5f5ffd5b5f5ffd5b5f601f19601f8301169050919050565b7f4e487b71000000000000000000000000000000000000000000000000000000005f52604160045260245ffd5b6105728261052c565b810181811067ffffffffffffffff821117156105915761059061053c565b5b80604052505050565b5f6105a3610451565b90506105af8282610569565b919050565b5f67ffffffffffffffff8211156105ce576105cd61053c565b5b6105d78261052c565b9050602081019050919050565b828183375f83830152505050565b5f6106046105ff846105b4565b61059a565b9050828152602081018484840111156106205761061f610528565b5b61062b8482856105e4565b509392505050565b5f82601f83011261064757610646610524565b5b81356106578482602086016105f2565b91505092915050565b5f602082840312156106755761067461045a565b5b5f82013567ffffffffffffffff8111156106925761069161045e565b5b61069e84828501610633565b91505092915050565b5f602082840312156106bc576106bb61045a565b5b5f6106c984828501610478565b91505092915050565b5f81519050919050565b5f82825260208201905092915050565b8281835e5f83830152505050565b5f610704826106d2565b61070e81856106dc565b935061071e8185602086016106ec565b6107278161052c565b840191505092915050565b61073b816104ab565b82525050565b5f6060820190506107545f830186610429565b818103602083015261076681856106fa565b90506107756040830184610732565b949350505050565b7f4f6e6c7920746865206f776e65722063616e2063616c6c20746869732066756e5f8201527f6374696f6e000000000000000000000000000000000000000000000000000000602082015250565b5f6107d76025836106dc565b91506107e28261077d565b604082019050919050565b5f6020820190508181035f830152610804816107cb565b9050919050565b7f4e487b71000000000000000000000000000000000000000000000000000000005f52602260045260245ffd5b5f600282049050600182168061084f57607f821691505b6020821081036108625761086161080b565b5b50919050565b5f819050815f5260205f209050919050565b5f6020601f8301049050919050565b5f82821b905092915050565b5f600883026108c47fffffffffffffffffffffffffffffffffffffffffffffffffffffffffffffffff82610889565b6108ce8683610889565b95508019841693508086168417925050509392505050565b5f819050919050565b5f6109096109046108ff84610420565b6108e6565b610420565b9050919050565b5f819050919050565b610922836108ef565b61093661092e82610910565b848454610895565b825550505050565b5f5f905090565b61094d61093e565b610958818484610919565b505050565b5b8181101561097b576109705f82610945565b60018101905061095e565b5050565b601f8211156109c05761099181610868565b61099a8461087a565b810160208510156109a9578190505b6109bd6109b58561087a565b83018261095d565b50505b505050565b5f82821c905092915050565b5f6109e05f19846008026109c5565b1980831691505092915050565b5f6109f883836109d1565b9150826002028217905092915050565b610a11826106d2565b67ffffffffffffffff811115610a2a57610a2961053c565b5b610a348254610838565b610a3f82828561097f565b5f60209050601f831160018114610a70575f8415610a5e578287015190505b610a6885826109ed565b865550610acf565b601f198416610a7e86610868565b5f5b82811015610aa557848901518255600182019150602085019450602081019050610a80565b86831015610ac25784890151610abe601f8916826109d1565b8355505b6001600288020188555050505b505050505050565b5f6020820190508181035f830152610aef81846106fa565b905092915050565b7f4e487b71000000000000000000000000000000000000000000000000000000005f52601160045260245ffd5b5f610b2e82610420565b91507fffffffffffffffffffffffffffffffffffffffffffffffffffffffffffffffff8203610b6057610b5f610af7565b5b60018201905091905056fea2646970667358221220cd0e24979bfcef90edbdf2dece654a5ab6847a37fbc674dd41d9c9e9129aa1f964736f6c634300081e0033",
					"opcodes": "PUSH1 0x80 PUSH1 0x40 MSTORE PUSH0 PUSH1 0x1 SSTORE CALLVALUE DUP1 ISZERO PUSH1 0x12 JUMPI PUSH0 PUSH0 REVERT JUMPDEST POP PUSH2 0xBA1 DUP1 PUSH2 0x20 PUSH0 CODECOPY PUSH0 RETURN INVALID PUSH1 0x80 PUSH1 0x40 MSTORE CALLVALUE DUP1 ISZERO PUSH2 0xF JUMPI PUSH0 PUSH0 REVERT JUMPDEST POP PUSH1 0x4 CALLDATASIZE LT PUSH2 0x4A JUMPI PUSH0 CALLDATALOAD PUSH1 0xE0 SHR DUP1 PUSH4 0x6661ABD EQ PUSH2 0x4E JUMPI DUP1 PUSH4 0x29507F73 EQ PUSH2 0x6C JUMPI DUP1 PUSH4 0x7EFFB29F EQ PUSH2 0x88 JUMPI DUP1 PUSH4 0xBFB231D2 EQ PUSH2 0xA4 JUMPI JUMPDEST PUSH0 PUSH0 REVERT JUMPDEST PUSH2 0x56 PUSH2 0xD6 JUMP JUMPDEST PUSH1 0x40 MLOAD PUSH2 0x63 SWAP2 SWAP1 PUSH2 0x438 JUMP JUMPDEST PUSH1 0x40 MLOAD DUP1 SWAP2 SUB SWAP1 RETURN JUMPDEST PUSH2 0x86 PUSH1 0x4 DUP1 CALLDATASIZE SUB DUP2 ADD SWAP1 PUSH2 0x81 SWAP2 SWAP1 PUSH2 0x4E6 JUMP JUMPDEST PUSH2 0xDC JUMP JUMPDEST STOP JUMPDEST PUSH2 0xA2 PUSH1 0x4 DUP1 CALLDATASIZE SUB DUP2 ADD SWAP1 PUSH2 0x9D SWAP2 SWAP1 PUSH2 0x660 JUMP JUMPDEST PUSH2 0x231 JUMP JUMPDEST STOP JUMPDEST PUSH2 0xBE PUSH1 0x4 DUP1 CALLDATASIZE SUB DUP2 ADD SWAP1 PUSH2 0xB9 SWAP2 SWAP1 PUSH2 0x6A7 JUMP JUMPDEST PUSH2 0x356 JUMP JUMPDEST PUSH1 0x40 MLOAD PUSH2 0xCD SWAP4 SWAP3 SWAP2 SWAP1 PUSH2 0x741 JUMP JUMPDEST PUSH1 0x40 MLOAD DUP1 SWAP2 SUB SWAP1 RETURN JUMPDEST PUSH1 0x1 SLOAD DUP2 JUMP JUMPDEST PUSH0 PUSH0 PUSH0 DUP5 DUP2 MSTORE PUSH1 0x20 ADD SWAP1 DUP2 MSTORE PUSH1 0x20 ADD PUSH0 KECCAK256 PUSH1 0x2 ADD PUSH0 SWAP1 SLOAD SWAP1 PUSH2 0x100 EXP SWAP1 DIV PUSH20 0xFFFFFFFFFFFFFFFFFFFFFFFFFFFFFFFFFFFFFFFF AND SWAP1 POP DUP1 PUSH20 0xFFFFFFFFFFFFFFFFFFFFFFFFFFFFFFFFFFFFFFFF AND CALLER PUSH20 0xFFFFFFFFFFFFFFFFFFFFFFFFFFFFFFFFFFFFFFFF AND EQ PUSH2 0x180 JUMPI PUSH1 0x40 MLOAD PUSH32 0x8C379A000000000000000000000000000000000000000000000000000000000 DUP2 MSTORE PUSH1 0x4 ADD PUSH2 0x177 SWAP1 PUSH2 0x7ED JUMP JUMPDEST PUSH1 0x40 MLOAD DUP1 SWAP2 SUB SWAP1 REVERT JUMPDEST DUP2 PUSH0 PUSH0 DUP6 DUP2 MSTORE PUSH1 0x20 ADD SWAP1 DUP2 MSTORE PUSH1 0x20 ADD PUSH0 KECCAK256 PUSH1 0x2 ADD PUSH0 PUSH2 0x100 EXP DUP2 SLOAD DUP2 PUSH20 0xFFFFFFFFFFFFFFFFFFFFFFFFFFFFFFFFFFFFFFFF MUL NOT AND SWAP1 DUP4 PUSH20 0xFFFFFFFFFFFFFFFFFFFFFFFFFFFFFFFFFFFFFFFF AND MUL OR SWAP1 SSTORE POP DUP2 PUSH20 0xFFFFFFFFFFFFFFFFFFFFFFFFFFFFFFFFFFFFFFFF AND DUP2 PUSH20 0xFFFFFFFFFFFFFFFFFFFFFFFFFFFFFFFFFFFFFFFF AND DUP5 PUSH32 0x16B85F49BF01212961345D3016C9A531894ACCF62EB7680F2045D79185CC0EC0 PUSH1 0x40 MLOAD PUSH1 0x40 MLOAD DUP1 SWAP2 SUB SWAP1 LOG4 POP POP POP JUMP JUMPDEST PUSH0 PUSH1 0x40 MLOAD DUP1 PUSH1 0x60 ADD PUSH1 0x40 MSTORE DUP1 PUSH1 0x1 SLOAD DUP2 MSTORE PUSH1 0x20 ADD DUP4 DUP2 MSTORE PUSH1 0x20 ADD CALLER PUSH20 0xFFFFFFFFFFFFFFFFFFFFFFFFFFFFFFFFFFFFFFFF AND DUP2 MSTORE POP SWAP1 POP DUP1 PUSH0 PUSH0 PUSH1 0x1 SLOAD DUP2 MSTORE PUSH1 0x20 ADD SWAP1 DUP2 MSTORE PUSH1 0x20 ADD PUSH0 KECCAK256 PUSH0 DUP3 ADD MLOAD DUP2 PUSH0 ADD SSTORE PUSH1 0x20 DUP3 ADD MLOAD DUP2 PUSH1 0x1 ADD SWAP1 DUP2 PUSH2 0x297 SWAP2 SWAP1 PUSH2 0xA08 JUMP JUMPDEST POP PUSH1 0x40 DUP3 ADD MLOAD DUP2 PUSH1 0x2 ADD PUSH0 PUSH2 0x100 EXP DUP2 SLOAD DUP2 PUSH20 0xFFFFFFFFFFFFFFFFFFFFFFFFFFFFFFFFFFFFFFFF MUL NOT AND SWAP1 DUP4 PUSH20 0xFFFFFFFFFFFFFFFFFFFFFFFFFFFFFFFFFFFFFFFF AND MUL OR SWAP1 SSTORE POP SWAP1 POP POP DUP1 PUSH1 0x40 ADD MLOAD PUSH20 0xFFFFFFFFFFFFFFFFFFFFFFFFFFFFFFFFFFFFFFFF AND DUP2 PUSH0 ADD MLOAD PUSH32 0x6E25BE3619376E564CFE010B907906379FAEF975C78BA0112D80E039A612A04F DUP4 PUSH1 0x20 ADD MLOAD PUSH1 0x40 MLOAD PUSH2 0x333 SWAP2 SWAP1 PUSH2 0xAD7 JUMP JUMPDEST PUSH1 0x40 MLOAD DUP1 SWAP2 SUB SWAP1 LOG3 PUSH1 0x1 PUSH0 DUP2 SLOAD DUP1 SWAP3 SWAP2 SWAP1 PUSH2 0x34D SWAP1 PUSH2 0xB24 JUMP JUMPDEST SWAP2 SWAP1 POP SSTORE POP POP POP JUMP JUMPDEST PUSH0 PUSH1 0x20 MSTORE DUP1 PUSH0 MSTORE PUSH1 0x40 PUSH0 KECCAK256 PUSH0 SWAP2 POP SWAP1 POP DUP1 PUSH0 ADD SLOAD SWAP1 DUP1 PUSH1 0x1 ADD DUP1 SLOAD PUSH2 0x37A SWAP1 PUSH2 0x838 JUMP JUMPDEST DUP1 PUSH1 0x1F ADD PUSH1 0x20 DUP1 SWAP2 DIV MUL PUSH1 0x20 ADD PUSH1 0x40 MLOAD SWAP1 DUP2 ADD PUSH1 0x40 MSTORE DUP1 SWAP3 SWAP2 SWAP1 DUP2 DUP2 MSTORE PUSH1 0x20 ADD DUP3 DUP1 SLOAD PUSH2 0x3A6 SWAP1 PUSH2 0x838 JUMP JUMPDEST DUP1 ISZERO PUSH2 0x3F1 JUMPI DUP1 PUSH1 0x1F LT PUSH2 0x3C8 JUMPI PUSH2 0x100 DUP1 DUP4 SLOAD DIV MUL DUP4 MSTORE SWAP2 PUSH1 0x20 ADD SWAP2 PUSH2 0x3F1 JUMP JUMPDEST DUP3 ADD SWAP2 SWAP1 PUSH0 MSTORE PUSH1 0x20 PUSH0 KECCAK256 SWAP1 JUMPDEST DUP2 SLOAD DUP2 MSTORE SWAP1 PUSH1 0x1 ADD SWAP1 PUSH1 0x20 ADD DUP1 DUP4 GT PUSH2 0x3D4 JUMPI DUP3 SWAP1 SUB PUSH1 0x1F AND DUP3 ADD SWAP2 JUMPDEST POP POP POP POP POP SWAP1 DUP1 PUSH1 0x2 ADD PUSH0 SWAP1 SLOAD SWAP1 PUSH2 0x100 EXP SWAP1 DIV PUSH20 0xFFFFFFFFFFFFFFFFFFFFFFFFFFFFFFFFFFFFFFFF AND SWAP1 POP DUP4 JUMP JUMPDEST PUSH0 DUP2 SWAP1 POP SWAP2 SWAP1 POP JUMP JUMPDEST PUSH2 0x432 DUP2 PUSH2 0x420 JUMP JUMPDEST DUP3 MSTORE POP POP JUMP JUMPDEST PUSH0 PUSH1 0x20 DUP3 ADD SWAP1 POP PUSH2 0x44B PUSH0 DUP4 ADD DUP5 PUSH2 0x429 JUMP JUMPDEST SWAP3 SWAP2 POP POP JUMP JUMPDEST PUSH0 PUSH1 0x40 MLOAD SWAP1 POP SWAP1 JUMP JUMPDEST PUSH0 PUSH0 REVERT JUMPDEST PUSH0 PUSH0 REVERT JUMPDEST PUSH2 0x46B DUP2 PUSH2 0x420 JUMP JUMPDEST DUP2 EQ PUSH2 0x475 JUMPI PUSH0 PUSH0 REVERT JUMPDEST POP JUMP JUMPDEST PUSH0 DUP2 CALLDATALOAD SWAP1 POP PUSH2 0x486 DUP2 PUSH2 0x462 JUMP JUMPDEST SWAP3 SWAP2 POP POP JUMP JUMPDEST PUSH0 PUSH20 0xFFFFFFFFFFFFFFFFFFFFFFFFFFFFFFFFFFFFFFFF DUP3 AND SWAP1 POP SWAP2 SWAP1 POP JUMP JUMPDEST PUSH0 PUSH2 0x4B5 DUP3 PUSH2 0x48C JUMP JUMPDEST SWAP1 POP SWAP2 SWAP1 POP JUMP JUMPDEST PUSH2 0x4C5 DUP2 PUSH2 0x4AB JUMP JUMPDEST DUP2 EQ PUSH2 0x4CF JUMPI PUSH0 PUSH0 REVERT JUMPDEST POP JUMP JUMPDEST PUSH0 DUP2 CALLDATALOAD SWAP1 POP PUSH2 0x4E0 DUP2 PUSH2 0x4BC JUMP JUMPDEST SWAP3 SWAP2 POP POP JUMP JUMPDEST PUSH0 PUSH0 PUSH1 0x40 DUP4 DUP6 SUB SLT ISZERO PUSH2 0x4FC JUMPI PUSH2 0x4FB PUSH2 0x45A JUMP JUMPDEST JUMPDEST PUSH0 PUSH2 0x509 DUP6 DUP3 DUP7 ADD PUSH2 0x478 JUMP JUMPDEST SWAP3 POP POP PUSH1 0x20 PUSH2 0x51A DUP6 DUP3 DUP7 ADD PUSH2 0x4D2 JUMP JUMPDEST SWAP2 POP POP SWAP3 POP SWAP3 SWAP1 POP JUMP JUMPDEST PUSH0 PUSH0 REVERT JUMPDEST PUSH0 PUSH0 REVERT JUMPDEST PUSH0 PUSH1 0x1F NOT PUSH1 0x1F DUP4 ADD AND SWAP1 POP SWAP2 SWAP1 POP JUMP JUMPDEST PUSH32 0x4E487B7100000000000000000000000000000000000000000000000000000000 PUSH0 MSTORE PUSH1 0x41 PUSH1 0x4 MSTORE PUSH1 0x24 PUSH0 REVERT JUMPDEST PUSH2 0x572 DUP3 PUSH2 0x52C JUMP JUMPDEST DUP2 ADD DUP2 DUP2 LT PUSH8 0xFFFFFFFFFFFFFFFF DUP3 GT OR ISZERO PUSH2 0x591 JUMPI PUSH2 0x590 PUSH2 0x53C JUMP JUMPDEST JUMPDEST DUP1 PUSH1 0x40 MSTORE POP POP POP JUMP JUMPDEST PUSH0 PUSH2 0x5A3 PUSH2 0x451 JUMP JUMPDEST SWAP1 POP PUSH2 0x5AF DUP3 DUP3 PUSH2 0x569 JUMP JUMPDEST SWAP2 SWAP1 POP JUMP JUMPDEST PUSH0 PUSH8 0xFFFFFFFFFFFFFFFF DUP3 GT ISZERO PUSH2 0x5CE JUMPI PUSH2 0x5CD PUSH2 0x53C JUMP JUMPDEST JUMPDEST PUSH2 0x5D7 DUP3 PUSH2 0x52C JUMP JUMPDEST SWAP1 POP PUSH1 0x20 DUP2 ADD SWAP1 POP SWAP2 SWAP1 POP JUMP JUMPDEST DUP3 DUP2 DUP4 CALLDATACOPY PUSH0 DUP4 DUP4 ADD MSTORE POP POP POP JUMP JUMPDEST PUSH0 PUSH2 0x604 PUSH2 0x5FF DUP5 PUSH2 0x5B4 JUMP JUMPDEST PUSH2 0x59A JUMP JUMPDEST SWAP1 POP DUP3 DUP2 MSTORE PUSH1 0x20 DUP2 ADD DUP5 DUP5 DUP5 ADD GT ISZERO PUSH2 0x620 JUMPI PUSH2 0x61F PUSH2 0x528 JUMP JUMPDEST JUMPDEST PUSH2 0x62B DUP5 DUP3 DUP6 PUSH2 0x5E4 JUMP JUMPDEST POP SWAP4 SWAP3 POP POP POP JUMP JUMPDEST PUSH0 DUP3 PUSH1 0x1F DUP4 ADD SLT PUSH2 0x647 JUMPI PUSH2 0x646 PUSH2 0x524 JUMP JUMPDEST JUMPDEST DUP2 CALLDATALOAD PUSH2 0x657 DUP5 DUP3 PUSH1 0x20 DUP7 ADD PUSH2 0x5F2 JUMP JUMPDEST SWAP2 POP POP SWAP3 SWAP2 POP POP JUMP JUMPDEST PUSH0 PUSH1 0x20 DUP3 DUP5 SUB SLT ISZERO PUSH2 0x675 JUMPI PUSH2 0x674 PUSH2 0x45A JUMP JUMPDEST JUMPDEST PUSH0 DUP3 ADD CALLDATALOAD PUSH8 0xFFFFFFFFFFFFFFFF DUP2 GT ISZERO PUSH2 0x692 JUMPI PUSH2 0x691 PUSH2 0x45E JUMP JUMPDEST JUMPDEST PUSH2 0x69E DUP5 DUP3 DUP6 ADD PUSH2 0x633 JUMP JUMPDEST SWAP2 POP POP SWAP3 SWAP2 POP POP JUMP JUMPDEST PUSH0 PUSH1 0x20 DUP3 DUP5 SUB SLT ISZERO PUSH2 0x6BC JUMPI PUSH2 0x6BB PUSH2 0x45A JUMP JUMPDEST JUMPDEST PUSH0 PUSH2 0x6C9 DUP5 DUP3 DUP6 ADD PUSH2 0x478 JUMP JUMPDEST SWAP2 POP POP SWAP3 SWAP2 POP POP JUMP JUMPDEST PUSH0 DUP2 MLOAD SWAP1 POP SWAP2 SWAP1 POP JUMP JUMPDEST PUSH0 DUP3 DUP3 MSTORE PUSH1 0x20 DUP3 ADD SWAP1 POP SWAP3 SWAP2 POP POP JUMP JUMPDEST DUP3 DUP2 DUP4 MCOPY PUSH0 DUP4 DUP4 ADD MSTORE POP POP POP JUMP JUMPDEST PUSH0 PUSH2 0x704 DUP3 PUSH2 0x6D2 JUMP JUMPDEST PUSH2 0x70E DUP2 DUP6 PUSH2 0x6DC JUMP JUMPDEST SWAP4 POP PUSH2 0x71E DUP2 DUP6 PUSH1 0x20 DUP7 ADD PUSH2 0x6EC JUMP JUMPDEST PUSH2 0x727 DUP2 PUSH2 0x52C JUMP JUMPDEST DUP5 ADD SWAP2 POP POP SWAP3 SWAP2 POP POP JUMP JUMPDEST PUSH2 0x73B DUP2 PUSH2 0x4AB JUMP JUMPDEST DUP3 MSTORE POP POP JUMP JUMPDEST PUSH0 PUSH1 0x60 DUP3 ADD SWAP1 POP PUSH2 0x754 PUSH0 DUP4 ADD DUP7 PUSH2 0x429 JUMP JUMPDEST DUP2 DUP2 SUB PUSH1 0x20 DUP4 ADD MSTORE PUSH2 0x766 DUP2 DUP6 PUSH2 0x6FA JUMP JUMPDEST SWAP1 POP PUSH2 0x775 PUSH1 0x40 DUP4 ADD DUP5 PUSH2 0x732 JUMP JUMPDEST SWAP5 SWAP4 POP POP POP POP JUMP JUMPDEST PUSH32 0x4F6E6C7920746865206F776E65722063616E2063616C6C20746869732066756E PUSH0 DUP3 ADD MSTORE PUSH32 0x6374696F6E000000000000000000000000000000000000000000000000000000 PUSH1 0x20 DUP3 ADD MSTORE POP JUMP JUMPDEST PUSH0 PUSH2 0x7D7 PUSH1 0x25 DUP4 PUSH2 0x6DC JUMP JUMPDEST SWAP2 POP PUSH2 0x7E2 DUP3 PUSH2 0x77D JUMP JUMPDEST PUSH1 0x40 DUP3 ADD SWAP1 POP SWAP2 SWAP1 POP JUMP JUMPDEST PUSH0 PUSH1 0x20 DUP3 ADD SWAP1 POP DUP2 DUP2 SUB PUSH0 DUP4 ADD MSTORE PUSH2 0x804 DUP2 PUSH2 0x7CB JUMP JUMPDEST SWAP1 POP SWAP2 SWAP1 POP JUMP JUMPDEST PUSH32 0x4E487B7100000000000000000000000000000000000000000000000000000000 PUSH0 MSTORE PUSH1 0x22 PUSH1 0x4 MSTORE PUSH1 0x24 PUSH0 REVERT JUMPDEST PUSH0 PUSH1 0x2 DUP3 DIV SWAP1 POP PUSH1 0x1 DUP3 AND DUP1 PUSH2 0x84F JUMPI PUSH1 0x7F DUP3 AND SWAP2 POP JUMPDEST PUSH1 0x20 DUP3 LT DUP2 SUB PUSH2 0x862 JUMPI PUSH2 0x861 PUSH2 0x80B JUMP JUMPDEST JUMPDEST POP SWAP2 SWAP1 POP JUMP JUMPDEST PUSH0 DUP2 SWAP1 POP DUP2 PUSH0 MSTORE PUSH1 0x20 PUSH0 KECCAK256 SWAP1 POP SWAP2 SWAP1 POP JUMP JUMPDEST PUSH0 PUSH1 0x20 PUSH1 0x1F DUP4 ADD DIV SWAP1 POP SWAP2 SWAP1 POP JUMP JUMPDEST PUSH0 DUP3 DUP3 SHL SWAP1 POP SWAP3 SWAP2 POP POP JUMP JUMPDEST PUSH0 PUSH1 0x8 DUP4 MUL PUSH2 0x8C4 PUSH32 0xFFFFFFFFFFFFFFFFFFFFFFFFFFFFFFFFFFFFFFFFFFFFFFFFFFFFFFFFFFFFFFFF DUP3 PUSH2 0x889 JUMP JUMPDEST PUSH2 0x8CE DUP7 DUP4 PUSH2 0x889 JUMP JUMPDEST SWAP6 POP DUP1 NOT DUP5 AND SWAP4 POP DUP1 DUP7 AND DUP5 OR SWAP3 POP POP POP SWAP4 SWAP3 POP POP POP JUMP JUMPDEST PUSH0 DUP2 SWAP1 POP SWAP2 SWAP1 POP JUMP JUMPDEST PUSH0 PUSH2 0x909 PUSH2 0x904 PUSH2 0x8FF DUP5 PUSH2 0x420 JUMP JUMPDEST PUSH2 0x8E6 JUMP JUMPDEST PUSH2 0x420 JUMP JUMPDEST SWAP1 POP SWAP2 SWAP1 POP JUMP JUMPDEST PUSH0 DUP2 SWAP1 POP SWAP2 SWAP1 POP JUMP JUMPDEST PUSH2 0x922 DUP4 PUSH2 0x8EF JUMP JUMPDEST PUSH2 0x936 PUSH2 0x92E DUP3 PUSH2 0x910 JUMP JUMPDEST DUP5 DUP5 SLOAD PUSH2 0x895 JUMP JUMPDEST DUP3 SSTORE POP POP POP POP JUMP JUMPDEST PUSH0 PUSH0 SWAP1 POP SWAP1 JUMP JUMPDEST PUSH2 0x94D PUSH2 0x93E JUMP JUMPDEST PUSH2 0x958 DUP2 DUP5 DUP5 PUSH2 0x919 JUMP JUMPDEST POP POP POP JUMP JUMPDEST JUMPDEST DUP2 DUP2 LT ISZERO PUSH2 0x97B JUMPI PUSH2 0x970 PUSH0 DUP3 PUSH2 0x945 JUMP JUMPDEST PUSH1 0x1 DUP2 ADD SWAP1 POP PUSH2 0x95E JUMP JUMPDEST POP POP JUMP JUMPDEST PUSH1 0x1F DUP3 GT ISZERO PUSH2 0x9C0 JUMPI PUSH2 0x991 DUP2 PUSH2 0x868 JUMP JUMPDEST PUSH2 0x99A DUP5 PUSH2 0x87A JUMP JUMPDEST DUP2 ADD PUSH1 0x20 DUP6 LT ISZERO PUSH2 0x9A9 JUMPI DUP2 SWAP1 POP JUMPDEST PUSH2 0x9BD PUSH2 0x9B5 DUP6 PUSH2 0x87A JUMP JUMPDEST DUP4 ADD DUP3 PUSH2 0x95D JUMP JUMPDEST POP POP JUMPDEST POP POP POP JUMP JUMPDEST PUSH0 DUP3 DUP3 SHR SWAP1 POP SWAP3 SWAP2 POP POP JUMP JUMPDEST PUSH0 PUSH2 0x9E0 PUSH0 NOT DUP5 PUSH1 0x8 MUL PUSH2 0x9C5 JUMP JUMPDEST NOT DUP1 DUP4 AND SWAP2 POP POP SWAP3 SWAP2 POP POP JUMP JUMPDEST PUSH0 PUSH2 0x9F8 DUP4 DUP4 PUSH2 0x9D1 JUMP JUMPDEST SWAP2 POP DUP3 PUSH1 0x2 MUL DUP3 OR SWAP1 POP SWAP3 SWAP2 POP POP JUMP JUMPDEST PUSH2 0xA11 DUP3 PUSH2 0x6D2 JUMP JUMPDEST PUSH8 0xFFFFFFFFFFFFFFFF DUP2 GT ISZERO PUSH2 0xA2A JUMPI PUSH2 0xA29 PUSH2 0x53C JUMP JUMPDEST JUMPDEST PUSH2 0xA34 DUP3 SLOAD PUSH2 0x838 JUMP JUMPDEST PUSH2 0xA3F DUP3 DUP3 DUP6 PUSH2 0x97F JUMP JUMPDEST PUSH0 PUSH1 0x20 SWAP1 POP PUSH1 0x1F DUP4 GT PUSH1 0x1 DUP2 EQ PUSH2 0xA70 JUMPI PUSH0 DUP5 ISZERO PUSH2 0xA5E JUMPI DUP3 DUP8 ADD MLOAD SWAP1 POP JUMPDEST PUSH2 0xA68 DUP6 DUP3 PUSH2 0x9ED JUMP JUMPDEST DUP7 SSTORE POP PUSH2 0xACF JUMP JUMPDEST PUSH1 0x1F NOT DUP5 AND PUSH2 0xA7E DUP7 PUSH2 0x868 JUMP JUMPDEST PUSH0 JUMPDEST DUP3 DUP2 LT ISZERO PUSH2 0xAA5 JUMPI DUP5 DUP10 ADD MLOAD DUP3 SSTORE PUSH1 0x1 DUP3 ADD SWAP2 POP PUSH1 0x20 DUP6 ADD SWAP5 POP PUSH1 0x20 DUP2 ADD SWAP1 POP PUSH2 0xA80 JUMP JUMPDEST DUP7 DUP4 LT ISZERO PUSH2 0xAC2 JUMPI DUP5 DUP10 ADD MLOAD PUSH2 0xABE PUSH1 0x1F DUP10 AND DUP3 PUSH2 0x9D1 JUMP JUMPDEST DUP4 SSTORE POP JUMPDEST PUSH1 0x1 PUSH1 0x2 DUP9 MUL ADD DUP9 SSTORE POP POP POP JUMPDEST POP POP POP POP POP POP JUMP JUMPDEST PUSH0 PUSH1 0x20 DUP3 ADD SWAP1 POP DUP2 DUP2 SUB PUSH0 DUP4 ADD MSTORE PUSH2 0xAEF DUP2 DUP5 PUSH2 0x6FA JUMP JUMPDEST SWAP1 POP SWAP3 SWAP2 POP POP JUMP JUMPDEST PUSH32 0x4E487B7100000000000000000000000000000000000000000000000000000000 PUSH0 MSTORE PUSH1 0x11 PUSH1 0x4 MSTORE PUSH1 0x24 PUSH0 REVERT JUMPDEST PUSH0 PUSH2 0xB2E DUP3 PUSH2 0x420 JUMP JUMPDEST SWAP2 POP PUSH32 0xFFFFFFFFFFFFFFFFFFFFFFFFFFFFFFFFFFFFFFFFFFFFFFFFFFFFFFFFFFFFFFFF DUP3 SUB PUSH2 0xB60 JUMPI PUSH2 0xB5F PUSH2 0xAF7 JUMP JUMPDEST JUMPDEST PUSH1 0x1 DUP3 ADD SWAP1 POP SWAP2 SWAP1 POP JUMP INVALID LOG2 PUSH5 0x6970667358 0x22 SLT KECCAK256 0xCD 0xE 0x24 SWAP8 SWAP12 0xFC 0xEF SWAP1 0xED 0xBD CALLCODE 0xDE 0xCE PUSH6 0x4A5AB6847A37 EXTSTATICCALL 0xC6 PUSH21 0xDD41D9C9E9129AA1F964736F6C634300081E003300 "
				},
				"gasEstimates": {
					"creation": {
						"codeDepositCost": "595400",
						"executionCost": "5635",
						"totalCost": "601035"
					},
					"external": {
						"count()": "2403",
						"items(uint256)": "infinite",
						"registerItems(string)": "infinite",
						"transferOwnership(uint256,address)": "29151"
					}
				},
				"methodIdentifiers": {
					"count()": "06661abd",
					"items(uint256)": "bfb231d2",
					"registerItems(string)": "7effb29f",
					"transferOwnership(uint256,address)": "29507f73"
				}
			},
			"storageLayout": {
				"storage": [
					{
						"astId": 13,
						"contract": "assignment_4/tracker.sol:SimpleStorage",
						"label": "items",
						"offset": 0,
						"slot": "0",
						"type": "t_mapping(t_uint256,t_struct(Item)8_storage)"
					},
					{
						"astId": 16,
						"contract": "assignment_4/tracker.sol:SimpleStorage",
						"label": "count",
						"offset": 0,
						"slot": "1",
						"type": "t_uint256"
					}
				],
				"types": {
					"t_address": {
						"encoding": "inplace",
						"label": "address",
						"numberOfBytes": "20"
					},
					"t_mapping(t_uint256,t_struct(Item)8_storage)": {
						"encoding": "mapping",
						"key": "t_uint256",
						"label": "mapping(uint256 => struct SimpleStorage.Item)",
						"numberOfBytes": "32",
						"value": "t_struct(Item)8_storage"
					},
					"t_string_storage": {
						"encoding": "bytes",
						"label": "string",
						"numberOfBytes": "32"
					},
					"t_struct(Item)8_storage": {
						"encoding": "inplace",
						"label": "struct SimpleStorage.Item",
						"members": [
							{
								"astId": 3,
								"contract": "assignment_4/tracker.sol:SimpleStorage",
								"label": "id",
								"offset": 0,
								"slot": "0",
								"type": "t_uint256"
							},
							{
								"astId": 5,
								"contract": "assignment_4/tracker.sol:SimpleStorage",
								"label": "name",
								"offset": 0,
								"slot": "1",
								"type": "t_string_storage"
							},
							{
								"astId": 7,
								"contract": "assignment_4/tracker.sol:SimpleStorage",
								"label": "owner",
								"offset": 0,
								"slot": "2",
								"type": "t_address"
							}
						],
						"numberOfBytes": "96"
					},
					"t_uint256": {
						"encoding": "inplace",
						"label": "uint256",
						"numberOfBytes": "32"
					}
				}
			},
			"userdoc": {
				"kind": "user",
				"methods": {},
				"version": 1
			}
		}
	}
}